{
  "contractName": "Hybrid",
  "abi": [
    {
      "inputs": [
        {
          "internalType": "address",
          "name": "caller",
          "type": "address"
        }
      ],
      "name": "InvalidCaller",
      "type": "error"
    },
    {
      "inputs": [
        {
          "internalType": "bytes32",
          "name": "hash",
          "type": "bytes32"
        }
      ],
      "name": "InvalidSignedHash",
      "type": "error"
    },
    {
      "inputs": [
        {
          "internalType": "bytes32",
          "name": "approvalId",
          "type": "bytes32"
        }
      ],
      "name": "InvalidStatus",
      "type": "error"
    },
    {
      "inputs": [
        {
          "internalType": "address",
          "name": "signer",
          "type": "address"
        }
      ],
      "name": "WalletBinded",
      "type": "error"
    },
    {
      "inputs": [
        {
          "internalType": "address",
          "name": "caller",
          "type": "address"
        }
      ],
      "name": "ZeroAddress",
      "type": "error"
    },
    {
      "anonymous": false,
      "inputs": [
        {
          "indexed": false,
          "internalType": "bytes32",
          "name": "approvalId",
          "type": "bytes32"
        },
        {
          "indexed": false,
          "internalType": "address",
          "name": "assetId",
          "type": "address"
        },
        {
          "indexed": false,
          "internalType": "address",
          "name": "owner",
          "type": "address"
        },
        {
          "indexed": false,
          "internalType": "address",
          "name": "spender",
          "type": "address"
        },
        {
          "indexed": false,
          "internalType": "uint256",
          "name": "value",
          "type": "uint256"
        }
      ],
      "name": "ApprovalRequested",
      "type": "event"
    },
    {
      "anonymous": false,
      "inputs": [
        {
          "indexed": false,
          "internalType": "address",
          "name": "approvalId",
          "type": "address"
        },
        {
          "indexed": false,
          "internalType": "enum Structs.Status",
          "name": "Status",
          "type": "uint8"
        }
      ],
      "name": "ApprovalResult",
      "type": "event"
    },
    {
      "anonymous": false,
      "inputs": [
        {
          "indexed": false,
          "internalType": "address",
          "name": "assetId",
          "type": "address"
        },
        {
          "indexed": false,
          "internalType": "address",
          "name": "owner",
          "type": "address"
        }
      ],
      "name": "AssetDowngraded",
      "type": "event"
    },
    {
      "anonymous": false,
      "inputs": [
        {
          "indexed": false,
          "internalType": "address",
          "name": "assetId",
          "type": "address"
        },
        {
          "indexed": false,
          "internalType": "address",
          "name": "owner",
          "type": "address"
        }
      ],
      "name": "AssetUpgraded",
      "type": "event"
    },
    {
      "anonymous": false,
      "inputs": [
        {
          "indexed": false,
          "internalType": "address",
          "name": "owner",
          "type": "address"
        },
        {
          "indexed": false,
          "internalType": "uint256",
          "name": "endTimestamp",
          "type": "uint256"
        },
        {
          "indexed": false,
          "internalType": "enum Structs.Status",
          "name": "status",
          "type": "uint8"
        }
      ],
      "name": "CloseHybrid",
      "type": "event"
    },
    {
      "anonymous": false,
      "inputs": [
        {
          "indexed": false,
          "internalType": "address",
          "name": "assetId",
          "type": "address"
        },
        {
          "indexed": false,
          "internalType": "address",
          "name": "owner",
          "type": "address"
        }
      ],
      "name": "DowngradeRequested",
      "type": "event"
    },
    {
      "anonymous": false,
      "inputs": [
        {
          "indexed": false,
          "internalType": "address",
          "name": "owner",
          "type": "address"
        },
        {
          "indexed": false,
          "internalType": "address",
          "name": "signer",
          "type": "address"
        }
      ],
      "name": "WalletBind",
      "type": "event"
    },
    {
      "anonymous": false,
      "inputs": [
        {
          "indexed": false,
          "internalType": "address",
          "name": "owner",
          "type": "address"
        }
      ],
      "name": "WalletUnBind",
      "type": "event"
    },
    {
      "inputs": [
        {
          "internalType": "address",
          "name": "owner",
          "type": "address"
        }
      ],
      "name": "signerOf",
      "outputs": [
        {
          "internalType": "address",
          "name": "",
          "type": "address"
        }
      ],
      "stateMutability": "view",
      "type": "function",
      "constant": true
    },
    {
      "inputs": [
        {
          "internalType": "enum Structs.Status",
          "name": "status",
          "type": "uint8"
        }
      ],
      "name": "onRequestCloseHybrid",
      "outputs": [],
      "stateMutability": "nonpayable",
      "type": "function"
    },
    {
      "inputs": [],
      "name": "onCloseHybrid",
      "outputs": [],
      "stateMutability": "nonpayable",
      "type": "function"
    },
    {
      "inputs": [
        {
          "internalType": "address",
          "name": "owner",
          "type": "address"
        },
        {
          "internalType": "address",
          "name": "spender",
          "type": "address"
        },
        {
          "internalType": "uint256",
          "name": "value",
          "type": "uint256"
        }
      ],
      "name": "onRequestAprroval",
      "outputs": [
        {
          "internalType": "bytes32",
          "name": "",
          "type": "bytes32"
        }
      ],
      "stateMutability": "nonpayable",
      "type": "function"
    },
    {
      "inputs": [
        {
          "internalType": "bytes32",
          "name": "messageHash",
          "type": "bytes32"
        },
        {
          "internalType": "uint8",
          "name": "v",
          "type": "uint8"
        },
        {
          "internalType": "bytes32",
          "name": "r",
          "type": "bytes32"
        },
        {
          "internalType": "bytes32",
          "name": "s",
          "type": "bytes32"
        },
        {
          "internalType": "bytes32",
          "name": "approvalId",
          "type": "bytes32"
        }
      ],
      "name": "onValidApproval",
      "outputs": [
        {
          "internalType": "address",
          "name": "spender",
          "type": "address"
        },
        {
          "internalType": "uint256",
          "name": "value",
          "type": "uint256"
        }
      ],
      "stateMutability": "nonpayable",
      "type": "function"
    },
    {
      "inputs": [
        {
          "internalType": "bytes32",
          "name": "approvalId",
          "type": "bytes32"
        }
      ],
      "name": "onRejectAprroval",
      "outputs": [],
      "stateMutability": "nonpayable",
      "type": "function"
    },
    {
      "inputs": [
        {
          "internalType": "address",
          "name": "signer",
          "type": "address"
        }
      ],
      "name": "walletBind",
      "outputs": [],
      "stateMutability": "nonpayable",
      "type": "function"
    },
    {
      "inputs": [
        {
          "internalType": "bytes32",
          "name": "messageHash",
          "type": "bytes32"
        },
        {
          "internalType": "uint8",
          "name": "v",
          "type": "uint8"
        },
        {
          "internalType": "bytes32",
          "name": "r",
          "type": "bytes32"
        },
        {
          "internalType": "bytes32",
          "name": "s",
          "type": "bytes32"
        },
        {
          "internalType": "address",
          "name": "owner",
          "type": "address"
        }
      ],
      "name": "onWalletUnBind",
      "outputs": [],
      "stateMutability": "nonpayable",
      "type": "function"
    },
    {
      "inputs": [
        {
          "internalType": "address",
          "name": "owner",
          "type": "address"
        }
      ],
      "name": "onUpgradeAsset",
      "outputs": [],
      "stateMutability": "nonpayable",
      "type": "function"
    },
    {
      "inputs": [
        {
          "internalType": "address",
          "name": "owner",
          "type": "address"
        }
      ],
      "name": "onRequestDowngrade",
      "outputs": [],
      "stateMutability": "nonpayable",
      "type": "function"
    },
    {
      "inputs": [
        {
          "internalType": "bytes32",
          "name": "messageHash",
          "type": "bytes32"
        },
        {
          "internalType": "uint8",
          "name": "v",
          "type": "uint8"
        },
        {
          "internalType": "bytes32",
          "name": "r",
          "type": "bytes32"
        },
        {
          "internalType": "bytes32",
          "name": "s",
          "type": "bytes32"
        },
        {
          "internalType": "address",
          "name": "owner",
          "type": "address"
        }
      ],
      "name": "onDowngradeAsset",
      "outputs": [],
      "stateMutability": "nonpayable",
      "type": "function"
    },
    {
      "inputs": [
        {
          "internalType": "address",
          "name": "assetId",
          "type": "address"
        },
        {
          "internalType": "address",
          "name": "owner",
          "type": "address"
        }
      ],
      "name": "isUpgraded",
      "outputs": [
        {
          "internalType": "bool",
          "name": "",
          "type": "bool"
        }
      ],
      "stateMutability": "view",
      "type": "function",
      "constant": true
    }
  ],
  "bytecode": "0x608060405234801561000f575f80fd5b50611da08061001d5f395ff3fe608060405234801561000f575f80fd5b50600436106100b2575f3560e01c80636a7da6821161006f5780636a7da6821461019b5780636cc7af2c146101b757806389e1a857146101d3578063a5d73ebe146101dd578063c33cac831461020d578063cd8fb8d914610229576100b2565b806306747721146100b65780630dfefc30146100e65780631b05c655146101025780632b2c4d9f146101335780632bb5e6e31461014f5780635b5175d51461016b575b5f80fd5b6100d060048036038101906100cb9190611616565b610245565b6040516100dd919061167e565b60405180910390f35b61010060048036038101906100fb91906116f7565b610456565b005b61011c6004803603810190610117919061176e565b610613565b60405161012a929190611803565b60405180910390f35b61014d6004803603810190610148919061182a565b6108a9565b005b6101696004803603810190610164919061182a565b610aad565b005b6101856004803603810190610180919061182a565b610c56565b6040516101929190611855565b60405180910390f35b6101b560048036038101906101b091906116f7565b610cbb565b005b6101d160048036038101906101cc919061186e565b610e56565b005b6101db610fb4565b005b6101f760048036038101906101f29190611899565b6111f0565b60405161020491906118f1565b60405180910390f35b6102276004803603810190610222919061182a565b611317565b005b610243600480360381019061023e919061192d565b61135f565b005b5f8061024f61145a565b90505f6040518060c001604052805f81526020018373ffffffffffffffffffffffffffffffffffffffff1681526020018773ffffffffffffffffffffffffffffffffffffffff1681526020018673ffffffffffffffffffffffffffffffffffffffff168152602001858152602001600260038111156102d1576102d0611958565b5b81525090505f6102e082611461565b90507fdef1bb43847f22cfafa04f7c8c1929d0ece6915cfe25e8225afc855b5de78f0e8184898989604051610319959493929190611985565b60405180910390a18160025f8381526020019081526020015f205f820151815f01556020820151816001015f6101000a81548173ffffffffffffffffffffffffffffffffffffffff021916908373ffffffffffffffffffffffffffffffffffffffff1602179055506040820151816002015f6101000a81548173ffffffffffffffffffffffffffffffffffffffff021916908373ffffffffffffffffffffffffffffffffffffffff1602179055506060820151816003015f6101000a81548173ffffffffffffffffffffffffffffffffffffffff021916908373ffffffffffffffffffffffffffffffffffffffff1602179055506080820151816004015560a0820151816005015f6101000a81548160ff0219169083600381111561044157610440611958565b5b02179055509050508093505050509392505050565b845f808281526020019081526020015f205f9054906101000a900460ff16156104b4576040517f08c379a00000000000000000000000000000000000000000000000000000000081526004016104ab90611a30565b60405180910390fd5b5f6104bd61145a565b90505f6104d5888888886104d089610c56565b6114cf565b90508061051957876040517f3a527abc000000000000000000000000000000000000000000000000000000008152600401610510919061167e565b60405180910390fd5b60015f808a81526020019081526020015f205f6101000a81548160ff0219169083151502179055505f60035f8473ffffffffffffffffffffffffffffffffffffffff1673ffffffffffffffffffffffffffffffffffffffff1681526020019081526020015f205f8673ffffffffffffffffffffffffffffffffffffffff1673ffffffffffffffffffffffffffffffffffffffff1681526020019081526020015f205f6101000a81548160ff0219169083151502179055507f9ba222f205b35ca94d9b19fa3096877fb5dd19d51867ce27488dd51ab72316cc8285604051610601929190611a4e565b60405180910390a15050505050505050565b5f80865f808281526020019081526020015f205f9054906101000a900460ff1615610673576040517f08c379a000000000000000000000000000000000000000000000000000000000815260040161066a90611a30565b60405180910390fd5b5f60025f8681526020019081526020015f2090505f61069061145a565b90508073ffffffffffffffffffffffffffffffffffffffff16826001015f9054906101000a900473ffffffffffffffffffffffffffffffffffffffff1673ffffffffffffffffffffffffffffffffffffffff161461072557806040517fcbd9d2e000000000000000000000000000000000000000000000000000000000815260040161071c9190611855565b60405180910390fd5b6002600381111561073957610738611958565b5b826005015f9054906101000a900460ff16600381111561075c5761075b611958565b5b1461079e57856040517feddaf683000000000000000000000000000000000000000000000000000000008152600401610795919061167e565b60405180910390fd5b5f6107d78b8b8b8b6107d2886002015f9054906101000a900473ffffffffffffffffffffffffffffffffffffffff16610c56565b6114cf565b90508061081b578a6040517f3a527abc000000000000000000000000000000000000000000000000000000008152600401610812919061167e565b60405180910390fd5b60015f808d81526020019081526020015f205f6101000a81548160ff0219169083151502179055505f836005015f6101000a81548160ff0219169083600381111561086957610868611958565b5b0217905550826003015f9054906101000a900473ffffffffffffffffffffffffffffffffffffffff16836004015495509550505050509550959350505050565b5f6108b261145a565b90505f60015f8373ffffffffffffffffffffffffffffffffffffffff1673ffffffffffffffffffffffffffffffffffffffff1681526020019081526020015f205f9054906101000a900473ffffffffffffffffffffffffffffffffffffffff1690505f73ffffffffffffffffffffffffffffffffffffffff168173ffffffffffffffffffffffffffffffffffffffff161461098457806040517f01ccbbdd00000000000000000000000000000000000000000000000000000000815260040161097b9190611855565b60405180910390fd5b5f73ffffffffffffffffffffffffffffffffffffffff168373ffffffffffffffffffffffffffffffffffffffff16036109f457826040517fc80b88340000000000000000000000000000000000000000000000000000000081526004016109eb9190611855565b60405180910390fd5b8260015f8473ffffffffffffffffffffffffffffffffffffffff1673ffffffffffffffffffffffffffffffffffffffff1681526020019081526020015f205f6101000a81548173ffffffffffffffffffffffffffffffffffffffff021916908373ffffffffffffffffffffffffffffffffffffffff1602179055507f659c4667ec6ad38088d26f6c7a82b53e10080e81e6c6df2815a15ba1713515858284604051610aa0929190611a4e565b60405180910390a1505050565b5f610ab661145a565b90505f60015f8473ffffffffffffffffffffffffffffffffffffffff1673ffffffffffffffffffffffffffffffffffffffff1681526020019081526020015f205f9054906101000a900473ffffffffffffffffffffffffffffffffffffffff1690505f73ffffffffffffffffffffffffffffffffffffffff168173ffffffffffffffffffffffffffffffffffffffff1603610b8857806040517fc80b8834000000000000000000000000000000000000000000000000000000008152600401610b7f9190611855565b60405180910390fd5b600160035f8473ffffffffffffffffffffffffffffffffffffffff1673ffffffffffffffffffffffffffffffffffffffff1681526020019081526020015f205f8573ffffffffffffffffffffffffffffffffffffffff1673ffffffffffffffffffffffffffffffffffffffff1681526020019081526020015f205f6101000a81548160ff0219169083151502179055507f47d2cba3a44cba86a9895e6f0933781d9f7d90d1d5644e37ce30cada376552638284604051610c49929190611a4e565b60405180910390a1505050565b5f60015f8373ffffffffffffffffffffffffffffffffffffffff1673ffffffffffffffffffffffffffffffffffffffff1681526020019081526020015f205f9054906101000a900473ffffffffffffffffffffffffffffffffffffffff169050919050565b845f808281526020019081526020015f205f9054906101000a900460ff1615610d19576040517f08c379a0000000000000000000000000000000000000000000000000000000008152600401610d1090611a30565b60405180910390fd5b5f610d2f87878787610d2a88610c56565b6114cf565b905080610d7357866040517f3a527abc000000000000000000000000000000000000000000000000000000008152600401610d6a919061167e565b60405180910390fd5b60015f808981526020019081526020015f205f6101000a81548160ff0219169083151502179055505f60015f8573ffffffffffffffffffffffffffffffffffffffff1673ffffffffffffffffffffffffffffffffffffffff1681526020019081526020015f205f6101000a81548173ffffffffffffffffffffffffffffffffffffffff021916908373ffffffffffffffffffffffffffffffffffffffff1602179055507fcd015f8e4350857f751e8e90eebe530048be1b5708234f847dd600c5e6aa6f5883604051610e459190611855565b60405180910390a150505050505050565b5f60025f8381526020019081526020015f209050610e7261145a565b73ffffffffffffffffffffffffffffffffffffffff16816001015f9054906101000a900473ffffffffffffffffffffffffffffffffffffffff1673ffffffffffffffffffffffffffffffffffffffff1614610f0b57610ecf61145a565b6040517fcbd9d2e0000000000000000000000000000000000000000000000000000000008152600401610f029190611855565b60405180910390fd5b60026003811115610f1f57610f1e611958565b5b816005015f9054906101000a900460ff166003811115610f4257610f41611958565b5b14610f8457816040517feddaf683000000000000000000000000000000000000000000000000000000008152600401610f7b919061167e565b60405180910390fd5b6001816005015f6101000a81548160ff02191690836003811115610fab57610faa611958565b5b02179055505050565b5f610fbd61145a565b90505f60045f8373ffffffffffffffffffffffffffffffffffffffff1673ffffffffffffffffffffffffffffffffffffffff1681526020019081526020015f206040518060400160405290815f8201548152602001600182015f9054906101000a900460ff16600381111561103557611034611958565b5b600381111561104757611046611958565b5b81525050905042815f015110611092576040517f08c379a000000000000000000000000000000000000000000000000000000000815260040161108990611abf565b60405180910390fd5b600260038111156110a6576110a5611958565b5b816020015160038111156110bd576110bc611958565b5b146110fd576040517f08c379a00000000000000000000000000000000000000000000000000000000081526004016110f490611b27565b60405180910390fd5b60015f8373ffffffffffffffffffffffffffffffffffffffff1673ffffffffffffffffffffffffffffffffffffffff1681526020019081526020015f205f6101000a81549073ffffffffffffffffffffffffffffffffffffffff021916905560045f8373ffffffffffffffffffffffffffffffffffffffff1673ffffffffffffffffffffffffffffffffffffffff1681526020019081526020015f205f8082015f9055600182015f6101000a81549060ff021916905550507fcd015f8e4350857f751e8e90eebe530048be1b5708234f847dd600c5e6aa6f58826040516111e49190611855565b60405180910390a15050565b5f8060015f8473ffffffffffffffffffffffffffffffffffffffff1673ffffffffffffffffffffffffffffffffffffffff1681526020019081526020015f205f9054906101000a900473ffffffffffffffffffffffffffffffffffffffff1690505f73ffffffffffffffffffffffffffffffffffffffff168173ffffffffffffffffffffffffffffffffffffffff161415801561130e575060035f8573ffffffffffffffffffffffffffffffffffffffff1673ffffffffffffffffffffffffffffffffffffffff1681526020019081526020015f205f8473ffffffffffffffffffffffffffffffffffffffff1673ffffffffffffffffffffffffffffffffffffffff1681526020019081526020015f205f9054906101000a900460ff165b91505092915050565b5f61132061145a565b90507f3404452f1cd954cb1eae2606db392f20c77efc5c4b04bf630ea595d879fb77018183604051611353929190611a4e565b60405180910390a15050565b5f61136861145a565b90505f6203f4804261137a9190611b72565b905060405180604001604052808281526020018460038111156113a05761139f611958565b5b81525060045f8473ffffffffffffffffffffffffffffffffffffffff1673ffffffffffffffffffffffffffffffffffffffff1681526020019081526020015f205f820151815f01556020820151816001015f6101000a81548160ff0219169083600381111561141257611411611958565b5b02179055509050507fa054964368a6d4122e1715a687ad08e312784ffdd58754f470c7286c0dafbcea82828560405161144d93929190611beb565b60405180910390a1505050565b5f33905090565b5f7feeeeeeeeeeeeeeeeeeeeeeeeeeeeeeeeeeeeeeee0000000000000000000000005f1b8260200151836040015184606001518560800151865f01516040516020016114b296959493929190611c20565b604051602081830303815290604052805190602001209050919050565b5f80866040516020016114e29190611cf3565b6040516020818303038152906040528051906020012090505f6001828888886040515f815260200160405260405161151d9493929190611d27565b6020604051602081039080840390855afa15801561153d573d5f803e3d5ffd5b5050506020604051035190508373ffffffffffffffffffffffffffffffffffffffff168173ffffffffffffffffffffffffffffffffffffffff16149250505095945050505050565b5f80fd5b5f73ffffffffffffffffffffffffffffffffffffffff82169050919050565b5f6115b282611589565b9050919050565b6115c2816115a8565b81146115cc575f80fd5b50565b5f813590506115dd816115b9565b92915050565b5f819050919050565b6115f5816115e3565b81146115ff575f80fd5b50565b5f81359050611610816115ec565b92915050565b5f805f6060848603121561162d5761162c611585565b5b5f61163a868287016115cf565b935050602061164b868287016115cf565b925050604061165c86828701611602565b9150509250925092565b5f819050919050565b61167881611666565b82525050565b5f6020820190506116915f83018461166f565b92915050565b6116a081611666565b81146116aa575f80fd5b50565b5f813590506116bb81611697565b92915050565b5f60ff82169050919050565b6116d6816116c1565b81146116e0575f80fd5b50565b5f813590506116f1816116cd565b92915050565b5f805f805f60a086880312156117105761170f611585565b5b5f61171d888289016116ad565b955050602061172e888289016116e3565b945050604061173f888289016116ad565b9350506060611750888289016116ad565b9250506080611761888289016115cf565b9150509295509295909350565b5f805f805f60a0868803121561178757611786611585565b5b5f611794888289016116ad565b95505060206117a5888289016116e3565b94505060406117b6888289016116ad565b93505060606117c7888289016116ad565b92505060806117d8888289016116ad565b9150509295509295909350565b6117ee816115a8565b82525050565b6117fd816115e3565b82525050565b5f6040820190506118165f8301856117e5565b61182360208301846117f4565b9392505050565b5f6020828403121561183f5761183e611585565b5b5f61184c848285016115cf565b91505092915050565b5f6020820190506118685f8301846117e5565b92915050565b5f6020828403121561188357611882611585565b5b5f611890848285016116ad565b91505092915050565b5f80604083850312156118af576118ae611585565b5b5f6118bc858286016115cf565b92505060206118cd858286016115cf565b9150509250929050565b5f8115159050919050565b6118eb816118d7565b82525050565b5f6020820190506119045f8301846118e2565b92915050565b60048110611916575f80fd5b50565b5f813590506119278161190a565b92915050565b5f6020828403121561194257611941611585565b5b5f61194f84828501611919565b91505092915050565b7f4e487b71000000000000000000000000000000000000000000000000000000005f52602160045260245ffd5b5f60a0820190506119985f83018861166f565b6119a560208301876117e5565b6119b260408301866117e5565b6119bf60608301856117e5565b6119cc60808301846117f4565b9695505050505050565b5f82825260208201905092915050565b7f5349474e454420484153482055534544000000000000000000000000000000005f82015250565b5f611a1a6010836119d6565b9150611a25826119e6565b602082019050919050565b5f6020820190508181035f830152611a4781611a0e565b9050919050565b5f604082019050611a615f8301856117e5565b611a6e60208301846117e5565b9392505050565b7f52657175657374204e6f74204d617475726521000000000000000000000000005f82015250565b5f611aa96013836119d6565b9150611ab482611a75565b602082019050919050565b5f6020820190508181035f830152611ad681611a9d565b9050919050565b7f52657175657374204e6f742050656e64696e67210000000000000000000000005f82015250565b5f611b116014836119d6565b9150611b1c82611add565b602082019050919050565b5f6020820190508181035f830152611b3e81611b05565b9050919050565b7f4e487b71000000000000000000000000000000000000000000000000000000005f52601160045260245ffd5b5f611b7c826115e3565b9150611b87836115e3565b9250828201905080821115611b9f57611b9e611b45565b5b92915050565b60048110611bb657611bb5611958565b5b50565b5f819050611bc682611ba5565b919050565b5f611bd582611bb9565b9050919050565b611be581611bcb565b82525050565b5f606082019050611bfe5f8301866117e5565b611c0b60208301856117f4565b611c186040830184611bdc565b949350505050565b5f60c082019050611c335f83018961166f565b611c4060208301886117e5565b611c4d60408301876117e5565b611c5a60608301866117e5565b611c6760808301856117f4565b611c7460a08301846117f4565b979650505050505050565b5f81905092915050565b7f19457468657265756d205369676e6564204d6573736167653a0a3332000000005f82015250565b5f611cbd601c83611c7f565b9150611cc882611c89565b601c82019050919050565b5f819050919050565b611ced611ce882611666565b611cd3565b82525050565b5f611cfd82611cb1565b9150611d098284611cdc565b60208201915081905092915050565b611d21816116c1565b82525050565b5f608082019050611d3a5f83018761166f565b611d476020830186611d18565b611d54604083018561166f565b611d61606083018461166f565b9594505050505056fea26469706673582212200023131056eebb05b4d180aa4667bda896b73109a53f43f7820374f083318a3c64736f6c63430008140033",
  "immutableReferences": {},
  "source": "// SPDX-License-Identifier: MIT\r\npragma solidity ^0.8.20;\r\n\r\nimport {IHybrid} from \"./interfaces/IHybrid.sol\";\r\nimport {Structs} from \"./libraries/Structs.sol\";\r\n\r\nimport {Context} from \"@openzeppelin/contracts/utils/Context.sol\";\r\n\r\ncontract Hybrid is IHybrid, Context {\r\n    mapping(bytes32 => bool) private _usedSignedHash;\r\n\r\n    bytes32 internal constant LEAF_DOMAIN_SEPARATOR =\r\n        0xEeeeeEeeeEeEeeEeEeEeeEEEeeeeEeeeeeeeEEeE000000000000000000000000;\r\n\r\n    uint256 internal constant SECONDS_TO_CLOSE_HYBRID = 3 * 24 * 60 * 60;\r\n\r\n    mapping(address => address) private _signers;\r\n    mapping(bytes32 => Structs.Approval) private _approvals;\r\n    mapping(address => mapping(address => bool)) private _isAssetUpgraded;\r\n    mapping(address => Structs.CloseHybrid) private _closeHybrid;\r\n\r\n    function signerOf(address owner) public view override returns (address) {\r\n        return _signers[owner];\r\n    }\r\n\r\n    function onRequestCloseHybrid(Structs.Status status) external override {\r\n        address owner = _msgSender();\r\n\r\n        uint256 endTimestamp = (block.timestamp + SECONDS_TO_CLOSE_HYBRID);\r\n\r\n        _closeHybrid[owner] = Structs.CloseHybrid({\r\n            endTimestamp: endTimestamp,\r\n            status: status\r\n        });\r\n\r\n        emit CloseHybrid(owner, endTimestamp, status);\r\n    }\r\n\r\n    function onCloseHybrid() external override {\r\n        address owner = _msgSender();\r\n\r\n        Structs.CloseHybrid memory request = _closeHybrid[owner];\r\n\r\n        require(request.endTimestamp < block.timestamp, \"Request Not Mature!\");\r\n        require(\r\n            request.status == Structs.Status.PENDING,\r\n            \"Request Not Pending!\"\r\n        );\r\n\r\n        delete _signers[owner];\r\n        delete _closeHybrid[owner];\r\n\r\n        emit WalletUnBind(owner);\r\n    }\r\n\r\n    function onRequestAprroval(\r\n        address owner,\r\n        address spender,\r\n        uint256 value\r\n    ) external override returns (bytes32) {\r\n        address assetId = _msgSender();\r\n\r\n        Structs.Approval memory approval = Structs.Approval({\r\n            sequence: 0,\r\n            assetId: assetId,\r\n            owner: owner,\r\n            spender: spender,\r\n            value: value,\r\n            status: Structs.Status.PENDING\r\n        });\r\n\r\n        bytes32 approvalId = _getHashForApproval(approval);\r\n\r\n        emit ApprovalRequested(approvalId, assetId, owner, spender, value);\r\n\r\n        _approvals[approvalId] = approval;\r\n\r\n        return approvalId;\r\n    }\r\n\r\n    function onValidApproval(\r\n        bytes32 messageHash,\r\n        uint8 v,\r\n        bytes32 r,\r\n        bytes32 s,\r\n        bytes32 approvalId\r\n    )\r\n        external\r\n        override\r\n        onlyUnusedSignedHash(messageHash)\r\n        returns (address spender, uint256 value)\r\n    {\r\n        Structs.Approval storage approval = _approvals[approvalId];\r\n\r\n        address assetId = _msgSender();\r\n\r\n        if (approval.assetId != assetId) {\r\n            revert InvalidCaller(assetId);\r\n        }\r\n\r\n        if (approval.status != Structs.Status.PENDING) {\r\n            revert InvalidStatus(approvalId);\r\n        }\r\n\r\n        bool validate = _verifyHash(\r\n            messageHash,\r\n            v,\r\n            r,\r\n            s,\r\n            signerOf(approval.owner)\r\n        );\r\n\r\n        if (!validate) {\r\n            revert InvalidSignedHash(messageHash);\r\n        }\r\n\r\n        _usedSignedHash[messageHash] = true;\r\n\r\n        approval.status = Structs.Status.ACCEPTED;\r\n\r\n        return (approval.spender, approval.value);\r\n    }\r\n\r\n    function onRejectAprroval(bytes32 approvalId) external override {\r\n        Structs.Approval storage approval = _approvals[approvalId];\r\n\r\n        if (approval.assetId != _msgSender()) {\r\n            revert InvalidCaller(_msgSender());\r\n        }\r\n\r\n        if (approval.status != Structs.Status.PENDING) {\r\n            revert InvalidStatus(approvalId);\r\n        }\r\n\r\n        approval.status = Structs.Status.REJECTED;\r\n    }\r\n\r\n    function walletBind(address signer) external override {\r\n        address owner = _msgSender();\r\n        address previousSigner = _signers[owner];\r\n\r\n        if (previousSigner != address(0)) {\r\n            revert WalletBinded(previousSigner);\r\n        }\r\n\r\n        if (signer == address(0)) {\r\n            revert ZeroAddress(signer);\r\n        }\r\n\r\n        _signers[owner] = signer;\r\n\r\n        emit WalletBind(owner, signer);\r\n    }\r\n\r\n    function onWalletUnBind(\r\n        bytes32 messageHash,\r\n        uint8 v,\r\n        bytes32 r,\r\n        bytes32 s,\r\n        address owner\r\n    ) external override onlyUnusedSignedHash(messageHash) {\r\n        bool validate = _verifyHash(messageHash, v, r, s, signerOf(owner));\r\n\r\n        if (!validate) {\r\n            revert InvalidSignedHash(messageHash);\r\n        }\r\n\r\n        _usedSignedHash[messageHash] = true;\r\n        _signers[owner] = address(0);\r\n\r\n        emit WalletUnBind(owner);\r\n    }\r\n\r\n    function onUpgradeAsset(address owner) external override {\r\n        address assetId = _msgSender();\r\n        address signer = _signers[owner];\r\n\r\n        if (signer == address(0)) {\r\n            revert ZeroAddress(signer);\r\n        }\r\n\r\n        _isAssetUpgraded[assetId][owner] = true;\r\n\r\n        emit AssetUpgraded(assetId, owner);\r\n    }\r\n\r\n    function onRequestDowngrade(address owner) external override {\r\n        address assetId = _msgSender();\r\n\r\n        emit DowngradeRequested(assetId, owner);\r\n    }\r\n\r\n    function onDowngradeAsset(\r\n        bytes32 messageHash,\r\n        uint8 v,\r\n        bytes32 r,\r\n        bytes32 s,\r\n        address owner\r\n    ) external override onlyUnusedSignedHash(messageHash) {\r\n        address assetId = _msgSender();\r\n\r\n        bool validate = _verifyHash(messageHash, v, r, s, signerOf(owner));\r\n\r\n        if (!validate) {\r\n            revert InvalidSignedHash(messageHash);\r\n        }\r\n\r\n        _usedSignedHash[messageHash] = true;\r\n\r\n        _isAssetUpgraded[assetId][owner] = false;\r\n\r\n        emit AssetDowngraded(assetId, owner);\r\n    }\r\n\r\n    function isUpgraded(\r\n        address assetId,\r\n        address owner\r\n    ) external view override returns (bool) {\r\n        address signer = _signers[owner];\r\n\r\n        return (signer != address(0)) && (_isAssetUpgraded[assetId][owner]);\r\n    }\r\n\r\n    // ============================= //\r\n    // WALLET BINDING FUNCTIONS      //\r\n    // ============================= //\r\n\r\n    // ============================= //\r\n    // INTERNAL FUNCTIONS            //\r\n    // ============================= //\r\n\r\n    function _getHashForApproval(\r\n        Structs.Approval memory approval\r\n    ) internal pure returns (bytes32) {\r\n        return\r\n            keccak256(\r\n                abi.encode(\r\n                    LEAF_DOMAIN_SEPARATOR,\r\n                    approval.assetId,\r\n                    approval.owner,\r\n                    approval.spender,\r\n                    approval.value,\r\n                    approval.sequence\r\n                )\r\n            );\r\n    }\r\n\r\n    function _verifyHash(\r\n        bytes32 messageHash,\r\n        uint8 v,\r\n        bytes32 r,\r\n        bytes32 s,\r\n        address expectedSigner\r\n    ) internal pure returns (bool) {\r\n        // Concatenate the message hash with the Ethereum prefix \"\\x19Ethereum Signed Message:\\n32\"\r\n        bytes32 prefixedHash = keccak256(\r\n            abi.encodePacked(\"\\x19Ethereum Signed Message:\\n32\", messageHash)\r\n        );\r\n\r\n        // Recover the address from the signature\r\n        address recoveredAddress = ecrecover(prefixedHash, v, r, s);\r\n\r\n        // Check if the recovered address matches the expected signer\r\n        return recoveredAddress == expectedSigner;\r\n    }\r\n\r\n    // ============================= //\r\n    // MODIFIERS                     //\r\n    // ============================= //\r\n\r\n    modifier onlyUnusedSignedHash(bytes32 hash) {\r\n        require(!_usedSignedHash[hash], \"SIGNED HASH USED\");\r\n        _;\r\n    }\r\n}\r\n",
  "sourcePath": "C:\\Users\\DELL\\Documents\\hybrid.bnb.hack\\hybrid-token\\contracts\\Hybrid.sol",
  "compiler": {
    "name": "solc",
    "version": "0.8.20+commit.a1b79de6.Emscripten.clang"
  },
  "schemaVersion": "3.4.11",
  "updatedAt": "2024-02-18T08:18:57.581Z",
  "networkType": "ethereum",
  "devdoc": {
    "kind": "dev",
    "methods": {},
    "version": 1
  },
  "userdoc": {
    "kind": "user",
    "methods": {},
    "version": 1
  }
}