{
  "contractName": "Hybrid",
  "abi": [
    {
      "inputs": [
        {
          "internalType": "address",
          "name": "caller",
          "type": "address"
        }
      ],
      "name": "InvalidCaller",
      "type": "error"
    },
    {
      "inputs": [
        {
          "internalType": "bytes32",
          "name": "approvalId",
          "type": "bytes32"
        }
      ],
      "name": "InvalidStatus",
      "type": "error"
    },
    {
      "inputs": [
        {
          "internalType": "address",
          "name": "signer",
          "type": "address"
        }
      ],
      "name": "WalletBinded",
      "type": "error"
    },
    {
      "inputs": [
        {
          "internalType": "address",
          "name": "caller",
          "type": "address"
        }
      ],
      "name": "ZeroAddress",
      "type": "error"
    },
    {
      "anonymous": false,
      "inputs": [
        {
          "indexed": false,
          "internalType": "bytes32",
          "name": "approvalId",
          "type": "bytes32"
        },
        {
          "indexed": false,
          "internalType": "address",
          "name": "assetId",
          "type": "address"
        },
        {
          "indexed": false,
          "internalType": "address",
          "name": "owner",
          "type": "address"
        },
        {
          "indexed": false,
          "internalType": "address",
          "name": "spender",
          "type": "address"
        },
        {
          "indexed": false,
          "internalType": "uint256",
          "name": "value",
          "type": "uint256"
        }
      ],
      "name": "ApprovalRequested",
      "type": "event"
    },
    {
      "anonymous": false,
      "inputs": [
        {
          "indexed": false,
          "internalType": "address",
          "name": "approvalId",
          "type": "address"
        },
        {
          "indexed": false,
          "internalType": "enum Structs.Status",
          "name": "Status",
          "type": "uint8"
        }
      ],
      "name": "ApprovalResult",
      "type": "event"
    },
    {
      "anonymous": false,
      "inputs": [
        {
          "indexed": false,
          "internalType": "address",
          "name": "assetId",
          "type": "address"
        },
        {
          "indexed": false,
          "internalType": "address",
          "name": "owner",
          "type": "address"
        }
      ],
      "name": "AssetDowngraded",
      "type": "event"
    },
    {
      "anonymous": false,
      "inputs": [
        {
          "indexed": false,
          "internalType": "address",
          "name": "assetId",
          "type": "address"
        },
        {
          "indexed": false,
          "internalType": "address",
          "name": "owner",
          "type": "address"
        }
      ],
      "name": "AssetUpgraded",
      "type": "event"
    },
    {
      "anonymous": false,
      "inputs": [
        {
          "indexed": false,
          "internalType": "address",
          "name": "assetId",
          "type": "address"
        },
        {
          "indexed": false,
          "internalType": "address",
          "name": "owner",
          "type": "address"
        }
      ],
      "name": "DowngradeRequested",
      "type": "event"
    },
    {
      "anonymous": false,
      "inputs": [
        {
          "indexed": false,
          "internalType": "address",
          "name": "owner",
          "type": "address"
        },
        {
          "indexed": false,
          "internalType": "address",
          "name": "signer",
          "type": "address"
        }
      ],
      "name": "WalletBind",
      "type": "event"
    },
    {
      "anonymous": false,
      "inputs": [
        {
          "indexed": false,
          "internalType": "address",
          "name": "owner",
          "type": "address"
        }
      ],
      "name": "WalletUnBind",
      "type": "event"
    },
    {
      "inputs": [
        {
          "internalType": "address",
          "name": "owner",
          "type": "address"
        }
      ],
      "name": "signerOf",
      "outputs": [
        {
          "internalType": "address",
          "name": "",
          "type": "address"
        }
      ],
      "stateMutability": "view",
      "type": "function"
    },
    {
      "inputs": [
        {
          "internalType": "address",
          "name": "owner",
          "type": "address"
        },
        {
          "internalType": "address",
          "name": "spender",
          "type": "address"
        },
        {
          "internalType": "uint256",
          "name": "value",
          "type": "uint256"
        }
      ],
      "name": "onRequestAprroval",
      "outputs": [
        {
          "internalType": "bytes32",
          "name": "",
          "type": "bytes32"
        }
      ],
      "stateMutability": "nonpayable",
      "type": "function"
    },
    {
      "inputs": [
        {
          "internalType": "bytes32",
          "name": "messageHash",
          "type": "bytes32"
        },
        {
          "internalType": "uint8",
          "name": "v",
          "type": "uint8"
        },
        {
          "internalType": "bytes32",
          "name": "r",
          "type": "bytes32"
        },
        {
          "internalType": "bytes32",
          "name": "s",
          "type": "bytes32"
        },
        {
          "internalType": "bytes32",
          "name": "approvalId",
          "type": "bytes32"
        }
      ],
      "name": "onValidApproval",
      "outputs": [
        {
          "internalType": "address",
          "name": "spender",
          "type": "address"
        },
        {
          "internalType": "uint256",
          "name": "value",
          "type": "uint256"
        }
      ],
      "stateMutability": "nonpayable",
      "type": "function"
    },
    {
      "inputs": [
        {
          "internalType": "bytes32",
          "name": "approvalId",
          "type": "bytes32"
        }
      ],
      "name": "onRejectAprroval",
      "outputs": [],
      "stateMutability": "nonpayable",
      "type": "function"
    },
    {
      "inputs": [
        {
          "internalType": "address",
          "name": "owner",
          "type": "address"
        },
        {
          "internalType": "address",
          "name": "signer",
          "type": "address"
        }
      ],
      "name": "onWalletBind",
      "outputs": [],
      "stateMutability": "nonpayable",
      "type": "function"
    },
    {
      "inputs": [
        {
          "internalType": "address",
          "name": "owner",
          "type": "address"
        }
      ],
      "name": "onWalletUnBind",
      "outputs": [],
      "stateMutability": "nonpayable",
      "type": "function"
    },
    {
      "inputs": [
        {
          "internalType": "address",
          "name": "owner",
          "type": "address"
        }
      ],
      "name": "onUpgradeAsset",
      "outputs": [],
      "stateMutability": "nonpayable",
      "type": "function"
    },
    {
      "inputs": [
        {
          "internalType": "address",
          "name": "owner",
          "type": "address"
        }
      ],
      "name": "onRequestDowngrade",
      "outputs": [],
      "stateMutability": "nonpayable",
      "type": "function"
    },
    {
      "inputs": [
        {
          "internalType": "address",
          "name": "owner",
          "type": "address"
        }
      ],
      "name": "onDowngradeAsset",
      "outputs": [],
      "stateMutability": "nonpayable",
      "type": "function"
    },
    {
      "inputs": [
        {
          "internalType": "address",
          "name": "assetId",
          "type": "address"
        },
        {
          "internalType": "address",
          "name": "owner",
          "type": "address"
        }
      ],
      "name": "isUpgraded",
      "outputs": [
        {
          "internalType": "bool",
          "name": "",
          "type": "bool"
        }
      ],
      "stateMutability": "view",
      "type": "function"
    }
  ],
  "bytecode": "0x608060405234801561000f575f80fd5b506114308061001d5f395ff3fe608060405234801561000f575f80fd5b506004361061009c575f3560e01c80636efd5bf1116100645780636efd5bf114610169578063a5d73ebe14610185578063c33cac83146101b5578063dc09d900146101d1578063fa5a72a0146101ed5761009c565b806306747721146100a05780631b05c655146100d05780632bb5e6e3146101015780635b5175d51461011d5780636cc7af2c1461014d575b5f80fd5b6100ba60048036038101906100b59190610f8e565b610209565b6040516100c79190610ff6565b60405180910390f35b6100ea60048036038101906100e5919061106f565b61041a565b6040516100f8929190611104565b60405180910390f35b61011b6004803603810190610116919061112b565b6105f2565b005b6101376004803603810190610132919061112b565b6106ca565b6040516101449190611156565b60405180910390f35b6101676004803603810190610162919061116f565b61072e565b005b610183600480360381019061017e919061112b565b61088c565b005b61019f600480360381019061019a919061119a565b610963565b6040516101ac91906111f2565b60405180910390f35b6101cf60048036038101906101ca919061112b565b610a89565b005b6101eb60048036038101906101e6919061119a565b610ad1565b005b6102076004803603810190610202919061112b565b610cc8565b005b5f80610213610dd2565b90505f6040518060c001604052805f81526020018373ffffffffffffffffffffffffffffffffffffffff1681526020018773ffffffffffffffffffffffffffffffffffffffff1681526020018673ffffffffffffffffffffffffffffffffffffffff168152602001858152602001600260038111156102955761029461120b565b5b81525090505f6102a482610dd9565b90507fdef1bb43847f22cfafa04f7c8c1929d0ece6915cfe25e8225afc855b5de78f0e81848989896040516102dd959493929190611238565b60405180910390a18160015f8381526020019081526020015f205f820151815f01556020820151816001015f6101000a81548173ffffffffffffffffffffffffffffffffffffffff021916908373ffffffffffffffffffffffffffffffffffffffff1602179055506040820151816002015f6101000a81548173ffffffffffffffffffffffffffffffffffffffff021916908373ffffffffffffffffffffffffffffffffffffffff1602179055506060820151816003015f6101000a81548173ffffffffffffffffffffffffffffffffffffffff021916908373ffffffffffffffffffffffffffffffffffffffff1602179055506080820151816004015560a0820151816005015f6101000a81548160ff021916908360038111156104055761040461120b565b5b02179055509050508093505050509392505050565b5f805f60015f8581526020019081526020015f209050610438610dd2565b73ffffffffffffffffffffffffffffffffffffffff16816001015f9054906101000a900473ffffffffffffffffffffffffffffffffffffffff1673ffffffffffffffffffffffffffffffffffffffff16146104d157610495610dd2565b6040517fcbd9d2e00000000000000000000000000000000000000000000000000000000081526004016104c89190611156565b60405180910390fd5b600260038111156104e5576104e461120b565b5b816005015f9054906101000a900460ff1660038111156105085761050761120b565b5b1461054a57836040517feddaf6830000000000000000000000000000000000000000000000000000000081526004016105419190610ff6565b60405180910390fd5b5f6105838989898961057e876002015f9054906101000a900473ffffffffffffffffffffffffffffffffffffffff166106ca565b610e47565b90508061058e575f80fd5b5f826005015f6101000a81548160ff021916908360038111156105b4576105b361120b565b5b0217905550816003015f9054906101000a900473ffffffffffffffffffffffffffffffffffffffff1682600401549350935050509550959350505050565b5f6105fb610dd2565b9050600160025f8373ffffffffffffffffffffffffffffffffffffffff1673ffffffffffffffffffffffffffffffffffffffff1681526020019081526020015f205f8473ffffffffffffffffffffffffffffffffffffffff1673ffffffffffffffffffffffffffffffffffffffff1681526020019081526020015f205f6101000a81548160ff0219169083151502179055507f47d2cba3a44cba86a9895e6f0933781d9f7d90d1d5644e37ce30cada3765526381836040516106be929190611289565b60405180910390a15050565b5f805f8373ffffffffffffffffffffffffffffffffffffffff1673ffffffffffffffffffffffffffffffffffffffff1681526020019081526020015f205f9054906101000a900473ffffffffffffffffffffffffffffffffffffffff169050919050565b5f60015f8381526020019081526020015f20905061074a610dd2565b73ffffffffffffffffffffffffffffffffffffffff16816001015f9054906101000a900473ffffffffffffffffffffffffffffffffffffffff1673ffffffffffffffffffffffffffffffffffffffff16146107e3576107a7610dd2565b6040517fcbd9d2e00000000000000000000000000000000000000000000000000000000081526004016107da9190611156565b60405180910390fd5b600260038111156107f7576107f661120b565b5b816005015f9054906101000a900460ff16600381111561081a5761081961120b565b5b1461085c57816040517feddaf6830000000000000000000000000000000000000000000000000000000081526004016108539190610ff6565b60405180910390fd5b6001816005015f6101000a81548160ff021916908360038111156108835761088261120b565b5b02179055505050565b5f610895610dd2565b90505f60025f8373ffffffffffffffffffffffffffffffffffffffff1673ffffffffffffffffffffffffffffffffffffffff1681526020019081526020015f205f8473ffffffffffffffffffffffffffffffffffffffff1673ffffffffffffffffffffffffffffffffffffffff1681526020019081526020015f205f6101000a81548160ff0219169083151502179055507f9ba222f205b35ca94d9b19fa3096877fb5dd19d51867ce27488dd51ab72316cc8183604051610957929190611289565b60405180910390a15050565b5f805f808473ffffffffffffffffffffffffffffffffffffffff1673ffffffffffffffffffffffffffffffffffffffff1681526020019081526020015f205f9054906101000a900473ffffffffffffffffffffffffffffffffffffffff1690505f73ffffffffffffffffffffffffffffffffffffffff168173ffffffffffffffffffffffffffffffffffffffff1614158015610a80575060025f8573ffffffffffffffffffffffffffffffffffffffff1673ffffffffffffffffffffffffffffffffffffffff1681526020019081526020015f205f8473ffffffffffffffffffffffffffffffffffffffff1673ffffffffffffffffffffffffffffffffffffffff1681526020019081526020015f205f9054906101000a900460ff165b91505092915050565b5f610a92610dd2565b90507f3404452f1cd954cb1eae2606db392f20c77efc5c4b04bf630ea595d879fb77018183604051610ac5929190611289565b60405180910390a15050565b5f805f8473ffffffffffffffffffffffffffffffffffffffff1673ffffffffffffffffffffffffffffffffffffffff1681526020019081526020015f205f9054906101000a900473ffffffffffffffffffffffffffffffffffffffff1690505f73ffffffffffffffffffffffffffffffffffffffff168173ffffffffffffffffffffffffffffffffffffffff1614610ba057806040517f01ccbbdd000000000000000000000000000000000000000000000000000000008152600401610b979190611156565b60405180910390fd5b5f73ffffffffffffffffffffffffffffffffffffffff168273ffffffffffffffffffffffffffffffffffffffff1603610c1057816040517fc80b8834000000000000000000000000000000000000000000000000000000008152600401610c079190611156565b60405180910390fd5b815f808573ffffffffffffffffffffffffffffffffffffffff1673ffffffffffffffffffffffffffffffffffffffff1681526020019081526020015f205f6101000a81548173ffffffffffffffffffffffffffffffffffffffff021916908373ffffffffffffffffffffffffffffffffffffffff1602179055507f659c4667ec6ad38088d26f6c7a82b53e10080e81e6c6df2815a15ba1713515858383604051610cbb929190611289565b60405180910390a1505050565b5f805f8373ffffffffffffffffffffffffffffffffffffffff1673ffffffffffffffffffffffffffffffffffffffff1681526020019081526020015f205f9054906101000a900473ffffffffffffffffffffffffffffffffffffffff1690505f73ffffffffffffffffffffffffffffffffffffffff168173ffffffffffffffffffffffffffffffffffffffff1603610d9757806040517fc80b8834000000000000000000000000000000000000000000000000000000008152600401610d8e9190611156565b60405180910390fd5b7fcd015f8e4350857f751e8e90eebe530048be1b5708234f847dd600c5e6aa6f5882604051610dc69190611156565b60405180910390a15050565b5f33905090565b5f7feeeeeeeeeeeeeeeeeeeeeeeeeeeeeeeeeeeeeeee0000000000000000000000005f1b8260200151836040015184606001518560800151865f0151604051602001610e2a969594939291906112b0565b604051602081830303815290604052805190602001209050919050565b5f8086604051602001610e5a9190611383565b6040516020818303038152906040528051906020012090505f6001828888886040515f8152602001604052604051610e9594939291906113b7565b6020604051602081039080840390855afa158015610eb5573d5f803e3d5ffd5b5050506020604051035190508373ffffffffffffffffffffffffffffffffffffffff168173ffffffffffffffffffffffffffffffffffffffff16149250505095945050505050565b5f80fd5b5f73ffffffffffffffffffffffffffffffffffffffff82169050919050565b5f610f2a82610f01565b9050919050565b610f3a81610f20565b8114610f44575f80fd5b50565b5f81359050610f5581610f31565b92915050565b5f819050919050565b610f6d81610f5b565b8114610f77575f80fd5b50565b5f81359050610f8881610f64565b92915050565b5f805f60608486031215610fa557610fa4610efd565b5b5f610fb286828701610f47565b9350506020610fc386828701610f47565b9250506040610fd486828701610f7a565b9150509250925092565b5f819050919050565b610ff081610fde565b82525050565b5f6020820190506110095f830184610fe7565b92915050565b61101881610fde565b8114611022575f80fd5b50565b5f813590506110338161100f565b92915050565b5f60ff82169050919050565b61104e81611039565b8114611058575f80fd5b50565b5f8135905061106981611045565b92915050565b5f805f805f60a0868803121561108857611087610efd565b5b5f61109588828901611025565b95505060206110a68882890161105b565b94505060406110b788828901611025565b93505060606110c888828901611025565b92505060806110d988828901611025565b9150509295509295909350565b6110ef81610f20565b82525050565b6110fe81610f5b565b82525050565b5f6040820190506111175f8301856110e6565b61112460208301846110f5565b9392505050565b5f602082840312156111405761113f610efd565b5b5f61114d84828501610f47565b91505092915050565b5f6020820190506111695f8301846110e6565b92915050565b5f6020828403121561118457611183610efd565b5b5f61119184828501611025565b91505092915050565b5f80604083850312156111b0576111af610efd565b5b5f6111bd85828601610f47565b92505060206111ce85828601610f47565b9150509250929050565b5f8115159050919050565b6111ec816111d8565b82525050565b5f6020820190506112055f8301846111e3565b92915050565b7f4e487b71000000000000000000000000000000000000000000000000000000005f52602160045260245ffd5b5f60a08201905061124b5f830188610fe7565b61125860208301876110e6565b61126560408301866110e6565b61127260608301856110e6565b61127f60808301846110f5565b9695505050505050565b5f60408201905061129c5f8301856110e6565b6112a960208301846110e6565b9392505050565b5f60c0820190506112c35f830189610fe7565b6112d060208301886110e6565b6112dd60408301876110e6565b6112ea60608301866110e6565b6112f760808301856110f5565b61130460a08301846110f5565b979650505050505050565b5f81905092915050565b7f19457468657265756d205369676e6564204d6573736167653a0a3332000000005f82015250565b5f61134d601c8361130f565b915061135882611319565b601c82019050919050565b5f819050919050565b61137d61137882610fde565b611363565b82525050565b5f61138d82611341565b9150611399828461136c565b60208201915081905092915050565b6113b181611039565b82525050565b5f6080820190506113ca5f830187610fe7565b6113d760208301866113a8565b6113e46040830185610fe7565b6113f16060830184610fe7565b9594505050505056fea26469706673582212204a5d1d416b8a8c7e4d0184d6397a024f5437e7fcdcfb681f7de91efb33393ef264736f6c63430008140033",
  "immutableReferences": {},
  "source": "// SPDX-License-Identifier: MIT\r\npragma solidity ^0.8.20;\r\n\r\nimport {IHybrid} from \"./interfaces/IHybrid.sol\";\r\nimport {Structs} from \"./libraries/Structs.sol\";\r\n\r\nimport {Context} from \"@openzeppelin/contracts/utils/Context.sol\";\r\n\r\ncontract Hybrid is IHybrid, Context {\r\n    bytes32 internal constant LEAF_DOMAIN_SEPARATOR =\r\n        0xEeeeeEeeeEeEeeEeEeEeeEEEeeeeEeeeeeeeEEeE000000000000000000000000;\r\n\r\n    mapping(address => address) private _signers;\r\n    mapping(bytes32 => Structs.Approval) private _approvals;\r\n    mapping(address => mapping(address => bool)) private _grades;\r\n\r\n    function signerOf(address owner) public override view returns (address) {\r\n        return _signers[owner];\r\n    }\r\n\r\n    function onRequestAprroval(\r\n        address owner,\r\n        address spender,\r\n        uint256 value\r\n    ) external override returns (bytes32) {\r\n        address assetId = _msgSender();\r\n\r\n        Structs.Approval memory approval = Structs.Approval({\r\n            sequence: 0,\r\n            assetId: assetId,\r\n            owner: owner,\r\n            spender: spender,\r\n            value: value,\r\n            status: Structs.Status.PENDING\r\n        });\r\n\r\n        bytes32 approvalId = _getHashForApproval(approval);\r\n\r\n        emit ApprovalRequested(approvalId, assetId, owner, spender, value);\r\n\r\n        _approvals[approvalId] = approval;\r\n\r\n        return approvalId;\r\n    }\r\n\r\n    function onValidApproval(   \r\n        bytes32 messageHash,\r\n        uint8 v,\r\n        bytes32 r,\r\n        bytes32 s,\r\n        bytes32 approvalId\r\n    ) external override returns (address spender, uint256 value)  {\r\n       Structs.Approval storage approval = _approvals[approvalId];\r\n\r\n        if (approval.assetId != _msgSender()) {\r\n            revert InvalidCaller(_msgSender());\r\n        }\r\n\r\n        if (approval.status != Structs.Status.PENDING) {\r\n            revert InvalidStatus(approvalId);\r\n        }\r\n\r\n        bool validate = _verifyHash(messageHash, v, r, s, signerOf(approval.owner));\r\n\r\n        if (!validate) {\r\n            revert();\r\n        }\r\n\r\n        approval.status = Structs.Status.ACCEPTED;\r\n\r\n        return (approval.spender, approval.value);\r\n    }\r\n\r\n    function onRejectAprroval(bytes32 approvalId) external override {\r\n        Structs.Approval storage approval = _approvals[approvalId];\r\n\r\n        if (approval.assetId != _msgSender()) {\r\n           revert InvalidCaller(_msgSender());\r\n        }\r\n\r\n        if (approval.status != Structs.Status.PENDING) {\r\n            revert InvalidStatus(approvalId);\r\n        }\r\n\r\n        approval.status = Structs.Status.REJECTED;\r\n    }\r\n\r\n    function onWalletBind(address owner, address signer) external override {\r\n        address previousSigner = _signers[owner];\r\n\r\n        if (previousSigner != address(0)) {\r\n            revert WalletBinded(previousSigner);\r\n        }\r\n\r\n        if (signer == address(0)) {\r\n            revert ZeroAddress(signer);\r\n        }\r\n\r\n        _signers[owner] = signer;\r\n\r\n        emit WalletBind(owner, signer);\r\n    }\r\n\r\n    function onWalletUnBind(address owner) external override {\r\n        address previousSigner = _signers[owner];\r\n\r\n        if (previousSigner == address(0)) {\r\n            revert ZeroAddress(previousSigner);\r\n        }\r\n\r\n        emit WalletUnBind(owner);\r\n    }\r\n\r\n    function onUpgradeAsset(address owner) external override {\r\n        address assetId = _msgSender();\r\n\r\n        _grades[assetId][owner] = true;\r\n\r\n        emit AssetUpgraded(assetId, owner);\r\n    }\r\n\r\n    function onRequestDowngrade(address owner) external override {\r\n        address assetId = _msgSender();\r\n\r\n        emit DowngradeRequested(assetId, owner);\r\n    }\r\n\r\n    function onDowngradeAsset(address owner) external override {\r\n        address assetId = _msgSender();\r\n\r\n        _grades[assetId][owner] = false;\r\n\r\n        emit AssetDowngraded(assetId, owner);\r\n    }\r\n\r\n    function isUpgraded(address assetId, address owner) external override view returns (bool) {\r\n        address signer = _signers[owner];\r\n\r\n        return (signer != address(0)) && (_grades[assetId][owner]);\r\n    }\r\n\r\n    // ============================= //\r\n    // WALLET BINDING FUNCTIONS      //\r\n    // ============================= //\r\n\r\n    // ============================= //\r\n    // INTERNAL FUNCTIONS            //\r\n    // ============================= //\r\n\r\n    function _getHashForApproval(Structs.Approval memory approval) internal pure returns (bytes32) {\r\n        return keccak256(\r\n            abi.encode(\r\n                LEAF_DOMAIN_SEPARATOR,\r\n                approval.assetId,\r\n                approval.owner,\r\n                approval.spender,\r\n                approval.value,\r\n                approval.sequence\r\n            )\r\n        );\r\n    }\r\n\r\n    function _verifyHash(\r\n        bytes32 messageHash,\r\n        uint8 v,\r\n        bytes32 r,\r\n        bytes32 s,\r\n        address expectedSigner\r\n    ) internal pure returns (bool) {\r\n        // Concatenate the message hash with the Ethereum prefix \"\\x19Ethereum Signed Message:\\n32\"\r\n        bytes32 prefixedHash = keccak256(\r\n            abi.encodePacked(\"\\x19Ethereum Signed Message:\\n32\", messageHash)\r\n        );\r\n\r\n        // Recover the address from the signature\r\n        address recoveredAddress = ecrecover(prefixedHash, v, r, s);\r\n\r\n        // Check if the recovered address matches the expected signer\r\n        return recoveredAddress == expectedSigner;\r\n    }\r\n}\r\n",
  "sourcePath": "C:\\Users\\DELL\\Documents\\hybrid.bnb.hack\\hybrid-token\\contracts\\Hybrid.sol",
  "compiler": {
    "name": "solc",
    "version": "0.8.20+commit.a1b79de6.Emscripten.clang"
  },
  "schemaVersion": "3.4.11",
  "updatedAt": "2024-02-12T17:43:39.841Z",
  "devdoc": {
    "kind": "dev",
    "methods": {},
    "version": 1
  },
  "userdoc": {
    "kind": "user",
    "methods": {},
    "version": 1
  }
}