{
  "contractName": "Hybrid",
  "abi": [
    {
      "inputs": [
        {
          "internalType": "address",
          "name": "caller",
          "type": "address"
        }
      ],
      "name": "InvalidCaller",
      "type": "error"
    },
    {
      "inputs": [
        {
          "internalType": "bytes32",
          "name": "hash",
          "type": "bytes32"
        }
      ],
      "name": "InvalidSignedHash",
      "type": "error"
    },
    {
      "inputs": [
        {
          "internalType": "bytes32",
          "name": "approvalId",
          "type": "bytes32"
        }
      ],
      "name": "InvalidStatus",
      "type": "error"
    },
    {
      "inputs": [
        {
          "internalType": "address",
          "name": "signer",
          "type": "address"
        }
      ],
      "name": "WalletBinded",
      "type": "error"
    },
    {
      "inputs": [
        {
          "internalType": "address",
          "name": "caller",
          "type": "address"
        }
      ],
      "name": "ZeroAddress",
      "type": "error"
    },
    {
      "anonymous": false,
      "inputs": [
        {
          "indexed": false,
          "internalType": "bytes32",
          "name": "approvalId",
          "type": "bytes32"
        },
        {
          "indexed": false,
          "internalType": "address",
          "name": "assetId",
          "type": "address"
        },
        {
          "indexed": false,
          "internalType": "address",
          "name": "owner",
          "type": "address"
        },
        {
          "indexed": false,
          "internalType": "address",
          "name": "spender",
          "type": "address"
        },
        {
          "indexed": false,
          "internalType": "uint256",
          "name": "value",
          "type": "uint256"
        }
      ],
      "name": "ApprovalRequested",
      "type": "event"
    },
    {
      "anonymous": false,
      "inputs": [
        {
          "indexed": false,
          "internalType": "address",
          "name": "approvalId",
          "type": "address"
        },
        {
          "indexed": false,
          "internalType": "enum Structs.Status",
          "name": "Status",
          "type": "uint8"
        }
      ],
      "name": "ApprovalResult",
      "type": "event"
    },
    {
      "anonymous": false,
      "inputs": [
        {
          "indexed": false,
          "internalType": "address",
          "name": "assetId",
          "type": "address"
        },
        {
          "indexed": false,
          "internalType": "address",
          "name": "owner",
          "type": "address"
        }
      ],
      "name": "AssetDowngraded",
      "type": "event"
    },
    {
      "anonymous": false,
      "inputs": [
        {
          "indexed": false,
          "internalType": "address",
          "name": "assetId",
          "type": "address"
        },
        {
          "indexed": false,
          "internalType": "address",
          "name": "owner",
          "type": "address"
        }
      ],
      "name": "AssetUpgraded",
      "type": "event"
    },
    {
      "anonymous": false,
      "inputs": [
        {
          "indexed": false,
          "internalType": "address",
          "name": "owner",
          "type": "address"
        },
        {
          "indexed": false,
          "internalType": "uint256",
          "name": "endTimestamp",
          "type": "uint256"
        },
        {
          "indexed": false,
          "internalType": "enum Structs.Status",
          "name": "status",
          "type": "uint8"
        }
      ],
      "name": "CloseHybrid",
      "type": "event"
    },
    {
      "anonymous": false,
      "inputs": [
        {
          "indexed": false,
          "internalType": "address",
          "name": "owner",
          "type": "address"
        },
        {
          "indexed": false,
          "internalType": "address",
          "name": "signer",
          "type": "address"
        }
      ],
      "name": "WalletBind",
      "type": "event"
    },
    {
      "anonymous": false,
      "inputs": [
        {
          "indexed": false,
          "internalType": "address",
          "name": "owner",
          "type": "address"
        }
      ],
      "name": "WalletUnBind",
      "type": "event"
    },
    {
      "inputs": [
        {
          "internalType": "address",
          "name": "owner",
          "type": "address"
        }
      ],
      "name": "signerOf",
      "outputs": [
        {
          "internalType": "address",
          "name": "",
          "type": "address"
        }
      ],
      "stateMutability": "view",
      "type": "function",
      "constant": true
    },
    {
      "inputs": [
        {
          "internalType": "enum Structs.Status",
          "name": "status",
          "type": "uint8"
        }
      ],
      "name": "onRequestCloseHybrid",
      "outputs": [],
      "stateMutability": "nonpayable",
      "type": "function"
    },
    {
      "inputs": [],
      "name": "onCloseHybrid",
      "outputs": [],
      "stateMutability": "nonpayable",
      "type": "function"
    },
    {
      "inputs": [
        {
          "internalType": "address",
          "name": "owner",
          "type": "address"
        },
        {
          "internalType": "address",
          "name": "spender",
          "type": "address"
        },
        {
          "internalType": "uint256",
          "name": "value",
          "type": "uint256"
        }
      ],
      "name": "onRequestAprroval",
      "outputs": [
        {
          "internalType": "bytes32",
          "name": "",
          "type": "bytes32"
        }
      ],
      "stateMutability": "nonpayable",
      "type": "function"
    },
    {
      "inputs": [
        {
          "internalType": "bytes32",
          "name": "messageHash",
          "type": "bytes32"
        },
        {
          "internalType": "uint8",
          "name": "v",
          "type": "uint8"
        },
        {
          "internalType": "bytes32",
          "name": "r",
          "type": "bytes32"
        },
        {
          "internalType": "bytes32",
          "name": "s",
          "type": "bytes32"
        },
        {
          "internalType": "bytes32",
          "name": "approvalId",
          "type": "bytes32"
        }
      ],
      "name": "onValidApproval",
      "outputs": [
        {
          "internalType": "address",
          "name": "spender",
          "type": "address"
        },
        {
          "internalType": "uint256",
          "name": "value",
          "type": "uint256"
        }
      ],
      "stateMutability": "nonpayable",
      "type": "function"
    },
    {
      "inputs": [
        {
          "internalType": "bytes32",
          "name": "approvalId",
          "type": "bytes32"
        }
      ],
      "name": "onRejectAprroval",
      "outputs": [],
      "stateMutability": "nonpayable",
      "type": "function"
    },
    {
      "inputs": [
        {
          "internalType": "address",
          "name": "signer",
          "type": "address"
        }
      ],
      "name": "walletBind",
      "outputs": [],
      "stateMutability": "nonpayable",
      "type": "function"
    },
    {
      "inputs": [
        {
          "internalType": "bytes32",
          "name": "messageHash",
          "type": "bytes32"
        },
        {
          "internalType": "uint8",
          "name": "v",
          "type": "uint8"
        },
        {
          "internalType": "bytes32",
          "name": "r",
          "type": "bytes32"
        },
        {
          "internalType": "bytes32",
          "name": "s",
          "type": "bytes32"
        },
        {
          "internalType": "address",
          "name": "owner",
          "type": "address"
        }
      ],
      "name": "onWalletUnBind",
      "outputs": [],
      "stateMutability": "nonpayable",
      "type": "function"
    },
    {
      "inputs": [
        {
          "internalType": "address",
          "name": "owner",
          "type": "address"
        }
      ],
      "name": "onUpgradeAsset",
      "outputs": [],
      "stateMutability": "nonpayable",
      "type": "function"
    },
    {
      "inputs": [
        {
          "internalType": "bytes32",
          "name": "messageHash",
          "type": "bytes32"
        },
        {
          "internalType": "uint8",
          "name": "v",
          "type": "uint8"
        },
        {
          "internalType": "bytes32",
          "name": "r",
          "type": "bytes32"
        },
        {
          "internalType": "bytes32",
          "name": "s",
          "type": "bytes32"
        },
        {
          "internalType": "address",
          "name": "owner",
          "type": "address"
        }
      ],
      "name": "onDowngradeAsset",
      "outputs": [],
      "stateMutability": "nonpayable",
      "type": "function"
    },
    {
      "inputs": [
        {
          "internalType": "address",
          "name": "assetId",
          "type": "address"
        },
        {
          "internalType": "address",
          "name": "owner",
          "type": "address"
        }
      ],
      "name": "isUpgraded",
      "outputs": [
        {
          "internalType": "bool",
          "name": "",
          "type": "bool"
        }
      ],
      "stateMutability": "view",
      "type": "function",
      "constant": true
    }
  ],
  "bytecode": "0x608060405234801561000f575f80fd5b50611d318061001d5f395ff3fe608060405234801561000f575f80fd5b50600436106100a7575f3560e01c80635b5175d51161006f5780635b5175d5146101605780636a7da682146101905780636cc7af2c146101ac57806389e1a857146101c8578063a5d73ebe146101d2578063cd8fb8d914610202576100a7565b806306747721146100ab5780630dfefc30146100db5780631b05c655146100f75780632b2c4d9f146101285780632bb5e6e314610144575b5f80fd5b6100c560048036038101906100c091906115a7565b61021e565b6040516100d2919061160f565b60405180910390f35b6100f560048036038101906100f09190611688565b61042f565b005b610111600480360381019061010c91906116ff565b6105ec565b60405161011f929190611794565b60405180910390f35b610142600480360381019061013d91906117bb565b610882565b005b61015e600480360381019061015991906117bb565b610a86565b005b61017a600480360381019061017591906117bb565b610c2f565b60405161018791906117e6565b60405180910390f35b6101aa60048036038101906101a59190611688565b610c94565b005b6101c660048036038101906101c191906117ff565b610e2f565b005b6101d0610f8d565b005b6101ec60048036038101906101e7919061182a565b6111c9565b6040516101f99190611882565b60405180910390f35b61021c600480360381019061021791906118be565b6112f0565b005b5f806102286113eb565b90505f6040518060c001604052805f81526020018373ffffffffffffffffffffffffffffffffffffffff1681526020018773ffffffffffffffffffffffffffffffffffffffff1681526020018673ffffffffffffffffffffffffffffffffffffffff168152602001858152602001600260038111156102aa576102a96118e9565b5b81525090505f6102b9826113f2565b90507fdef1bb43847f22cfafa04f7c8c1929d0ece6915cfe25e8225afc855b5de78f0e81848989896040516102f2959493929190611916565b60405180910390a18160025f8381526020019081526020015f205f820151815f01556020820151816001015f6101000a81548173ffffffffffffffffffffffffffffffffffffffff021916908373ffffffffffffffffffffffffffffffffffffffff1602179055506040820151816002015f6101000a81548173ffffffffffffffffffffffffffffffffffffffff021916908373ffffffffffffffffffffffffffffffffffffffff1602179055506060820151816003015f6101000a81548173ffffffffffffffffffffffffffffffffffffffff021916908373ffffffffffffffffffffffffffffffffffffffff1602179055506080820151816004015560a0820151816005015f6101000a81548160ff0219169083600381111561041a576104196118e9565b5b02179055509050508093505050509392505050565b845f808281526020019081526020015f205f9054906101000a900460ff161561048d576040517f08c379a0000000000000000000000000000000000000000000000000000000008152600401610484906119c1565b60405180910390fd5b5f6104966113eb565b90505f6104ae888888886104a989610c2f565b611460565b9050806104f257876040517f3a527abc0000000000000000000000000000000000000000000000000000000081526004016104e9919061160f565b60405180910390fd5b60015f808a81526020019081526020015f205f6101000a81548160ff0219169083151502179055505f60035f8473ffffffffffffffffffffffffffffffffffffffff1673ffffffffffffffffffffffffffffffffffffffff1681526020019081526020015f205f8673ffffffffffffffffffffffffffffffffffffffff1673ffffffffffffffffffffffffffffffffffffffff1681526020019081526020015f205f6101000a81548160ff0219169083151502179055507f9ba222f205b35ca94d9b19fa3096877fb5dd19d51867ce27488dd51ab72316cc82856040516105da9291906119df565b60405180910390a15050505050505050565b5f80865f808281526020019081526020015f205f9054906101000a900460ff161561064c576040517f08c379a0000000000000000000000000000000000000000000000000000000008152600401610643906119c1565b60405180910390fd5b5f60025f8681526020019081526020015f2090505f6106696113eb565b90508073ffffffffffffffffffffffffffffffffffffffff16826001015f9054906101000a900473ffffffffffffffffffffffffffffffffffffffff1673ffffffffffffffffffffffffffffffffffffffff16146106fe57806040517fcbd9d2e00000000000000000000000000000000000000000000000000000000081526004016106f591906117e6565b60405180910390fd5b60026003811115610712576107116118e9565b5b826005015f9054906101000a900460ff166003811115610735576107346118e9565b5b1461077757856040517feddaf68300000000000000000000000000000000000000000000000000000000815260040161076e919061160f565b60405180910390fd5b5f6107b08b8b8b8b6107ab886002015f9054906101000a900473ffffffffffffffffffffffffffffffffffffffff16610c2f565b611460565b9050806107f4578a6040517f3a527abc0000000000000000000000000000000000000000000000000000000081526004016107eb919061160f565b60405180910390fd5b60015f808d81526020019081526020015f205f6101000a81548160ff0219169083151502179055505f836005015f6101000a81548160ff02191690836003811115610842576108416118e9565b5b0217905550826003015f9054906101000a900473ffffffffffffffffffffffffffffffffffffffff16836004015495509550505050509550959350505050565b5f61088b6113eb565b90505f60015f8373ffffffffffffffffffffffffffffffffffffffff1673ffffffffffffffffffffffffffffffffffffffff1681526020019081526020015f205f9054906101000a900473ffffffffffffffffffffffffffffffffffffffff1690505f73ffffffffffffffffffffffffffffffffffffffff168173ffffffffffffffffffffffffffffffffffffffff161461095d57806040517f01ccbbdd00000000000000000000000000000000000000000000000000000000815260040161095491906117e6565b60405180910390fd5b5f73ffffffffffffffffffffffffffffffffffffffff168373ffffffffffffffffffffffffffffffffffffffff16036109cd57826040517fc80b88340000000000000000000000000000000000000000000000000000000081526004016109c491906117e6565b60405180910390fd5b8260015f8473ffffffffffffffffffffffffffffffffffffffff1673ffffffffffffffffffffffffffffffffffffffff1681526020019081526020015f205f6101000a81548173ffffffffffffffffffffffffffffffffffffffff021916908373ffffffffffffffffffffffffffffffffffffffff1602179055507f659c4667ec6ad38088d26f6c7a82b53e10080e81e6c6df2815a15ba1713515858284604051610a799291906119df565b60405180910390a1505050565b5f610a8f6113eb565b90505f60015f8473ffffffffffffffffffffffffffffffffffffffff1673ffffffffffffffffffffffffffffffffffffffff1681526020019081526020015f205f9054906101000a900473ffffffffffffffffffffffffffffffffffffffff1690505f73ffffffffffffffffffffffffffffffffffffffff168173ffffffffffffffffffffffffffffffffffffffff1603610b6157806040517fc80b8834000000000000000000000000000000000000000000000000000000008152600401610b5891906117e6565b60405180910390fd5b600160035f8473ffffffffffffffffffffffffffffffffffffffff1673ffffffffffffffffffffffffffffffffffffffff1681526020019081526020015f205f8573ffffffffffffffffffffffffffffffffffffffff1673ffffffffffffffffffffffffffffffffffffffff1681526020019081526020015f205f6101000a81548160ff0219169083151502179055507f47d2cba3a44cba86a9895e6f0933781d9f7d90d1d5644e37ce30cada376552638284604051610c229291906119df565b60405180910390a1505050565b5f60015f8373ffffffffffffffffffffffffffffffffffffffff1673ffffffffffffffffffffffffffffffffffffffff1681526020019081526020015f205f9054906101000a900473ffffffffffffffffffffffffffffffffffffffff169050919050565b845f808281526020019081526020015f205f9054906101000a900460ff1615610cf2576040517f08c379a0000000000000000000000000000000000000000000000000000000008152600401610ce9906119c1565b60405180910390fd5b5f610d0887878787610d0388610c2f565b611460565b905080610d4c57866040517f3a527abc000000000000000000000000000000000000000000000000000000008152600401610d43919061160f565b60405180910390fd5b60015f808981526020019081526020015f205f6101000a81548160ff0219169083151502179055505f60015f8573ffffffffffffffffffffffffffffffffffffffff1673ffffffffffffffffffffffffffffffffffffffff1681526020019081526020015f205f6101000a81548173ffffffffffffffffffffffffffffffffffffffff021916908373ffffffffffffffffffffffffffffffffffffffff1602179055507fcd015f8e4350857f751e8e90eebe530048be1b5708234f847dd600c5e6aa6f5883604051610e1e91906117e6565b60405180910390a150505050505050565b5f60025f8381526020019081526020015f209050610e4b6113eb565b73ffffffffffffffffffffffffffffffffffffffff16816001015f9054906101000a900473ffffffffffffffffffffffffffffffffffffffff1673ffffffffffffffffffffffffffffffffffffffff1614610ee457610ea86113eb565b6040517fcbd9d2e0000000000000000000000000000000000000000000000000000000008152600401610edb91906117e6565b60405180910390fd5b60026003811115610ef857610ef76118e9565b5b816005015f9054906101000a900460ff166003811115610f1b57610f1a6118e9565b5b14610f5d57816040517feddaf683000000000000000000000000000000000000000000000000000000008152600401610f54919061160f565b60405180910390fd5b6001816005015f6101000a81548160ff02191690836003811115610f8457610f836118e9565b5b02179055505050565b5f610f966113eb565b90505f60045f8373ffffffffffffffffffffffffffffffffffffffff1673ffffffffffffffffffffffffffffffffffffffff1681526020019081526020015f206040518060400160405290815f8201548152602001600182015f9054906101000a900460ff16600381111561100e5761100d6118e9565b5b60038111156110205761101f6118e9565b5b81525050905042815f01511061106b576040517f08c379a000000000000000000000000000000000000000000000000000000000815260040161106290611a50565b60405180910390fd5b6002600381111561107f5761107e6118e9565b5b81602001516003811115611096576110956118e9565b5b146110d6576040517f08c379a00000000000000000000000000000000000000000000000000000000081526004016110cd90611ab8565b60405180910390fd5b60015f8373ffffffffffffffffffffffffffffffffffffffff1673ffffffffffffffffffffffffffffffffffffffff1681526020019081526020015f205f6101000a81549073ffffffffffffffffffffffffffffffffffffffff021916905560045f8373ffffffffffffffffffffffffffffffffffffffff1673ffffffffffffffffffffffffffffffffffffffff1681526020019081526020015f205f8082015f9055600182015f6101000a81549060ff021916905550507fcd015f8e4350857f751e8e90eebe530048be1b5708234f847dd600c5e6aa6f58826040516111bd91906117e6565b60405180910390a15050565b5f8060015f8473ffffffffffffffffffffffffffffffffffffffff1673ffffffffffffffffffffffffffffffffffffffff1681526020019081526020015f205f9054906101000a900473ffffffffffffffffffffffffffffffffffffffff1690505f73ffffffffffffffffffffffffffffffffffffffff168173ffffffffffffffffffffffffffffffffffffffff16141580156112e7575060035f8573ffffffffffffffffffffffffffffffffffffffff1673ffffffffffffffffffffffffffffffffffffffff1681526020019081526020015f205f8473ffffffffffffffffffffffffffffffffffffffff1673ffffffffffffffffffffffffffffffffffffffff1681526020019081526020015f205f9054906101000a900460ff165b91505092915050565b5f6112f96113eb565b90505f6203f4804261130b9190611b03565b90506040518060400160405280828152602001846003811115611331576113306118e9565b5b81525060045f8473ffffffffffffffffffffffffffffffffffffffff1673ffffffffffffffffffffffffffffffffffffffff1681526020019081526020015f205f820151815f01556020820151816001015f6101000a81548160ff021916908360038111156113a3576113a26118e9565b5b02179055509050507fa054964368a6d4122e1715a687ad08e312784ffdd58754f470c7286c0dafbcea8282856040516113de93929190611b7c565b60405180910390a1505050565b5f33905090565b5f7feeeeeeeeeeeeeeeeeeeeeeeeeeeeeeeeeeeeeeee0000000000000000000000005f1b8260200151836040015184606001518560800151865f015160405160200161144396959493929190611bb1565b604051602081830303815290604052805190602001209050919050565b5f80866040516020016114739190611c84565b6040516020818303038152906040528051906020012090505f6001828888886040515f81526020016040526040516114ae9493929190611cb8565b6020604051602081039080840390855afa1580156114ce573d5f803e3d5ffd5b5050506020604051035190508373ffffffffffffffffffffffffffffffffffffffff168173ffffffffffffffffffffffffffffffffffffffff16149250505095945050505050565b5f80fd5b5f73ffffffffffffffffffffffffffffffffffffffff82169050919050565b5f6115438261151a565b9050919050565b61155381611539565b811461155d575f80fd5b50565b5f8135905061156e8161154a565b92915050565b5f819050919050565b61158681611574565b8114611590575f80fd5b50565b5f813590506115a18161157d565b92915050565b5f805f606084860312156115be576115bd611516565b5b5f6115cb86828701611560565b93505060206115dc86828701611560565b92505060406115ed86828701611593565b9150509250925092565b5f819050919050565b611609816115f7565b82525050565b5f6020820190506116225f830184611600565b92915050565b611631816115f7565b811461163b575f80fd5b50565b5f8135905061164c81611628565b92915050565b5f60ff82169050919050565b61166781611652565b8114611671575f80fd5b50565b5f813590506116828161165e565b92915050565b5f805f805f60a086880312156116a1576116a0611516565b5b5f6116ae8882890161163e565b95505060206116bf88828901611674565b94505060406116d08882890161163e565b93505060606116e18882890161163e565b92505060806116f288828901611560565b9150509295509295909350565b5f805f805f60a0868803121561171857611717611516565b5b5f6117258882890161163e565b955050602061173688828901611674565b94505060406117478882890161163e565b93505060606117588882890161163e565b92505060806117698882890161163e565b9150509295509295909350565b61177f81611539565b82525050565b61178e81611574565b82525050565b5f6040820190506117a75f830185611776565b6117b46020830184611785565b9392505050565b5f602082840312156117d0576117cf611516565b5b5f6117dd84828501611560565b91505092915050565b5f6020820190506117f95f830184611776565b92915050565b5f6020828403121561181457611813611516565b5b5f6118218482850161163e565b91505092915050565b5f80604083850312156118405761183f611516565b5b5f61184d85828601611560565b925050602061185e85828601611560565b9150509250929050565b5f8115159050919050565b61187c81611868565b82525050565b5f6020820190506118955f830184611873565b92915050565b600481106118a7575f80fd5b50565b5f813590506118b88161189b565b92915050565b5f602082840312156118d3576118d2611516565b5b5f6118e0848285016118aa565b91505092915050565b7f4e487b71000000000000000000000000000000000000000000000000000000005f52602160045260245ffd5b5f60a0820190506119295f830188611600565b6119366020830187611776565b6119436040830186611776565b6119506060830185611776565b61195d6080830184611785565b9695505050505050565b5f82825260208201905092915050565b7f5349474e454420484153482055534544000000000000000000000000000000005f82015250565b5f6119ab601083611967565b91506119b682611977565b602082019050919050565b5f6020820190508181035f8301526119d88161199f565b9050919050565b5f6040820190506119f25f830185611776565b6119ff6020830184611776565b9392505050565b7f52657175657374204e6f74204d617475726521000000000000000000000000005f82015250565b5f611a3a601383611967565b9150611a4582611a06565b602082019050919050565b5f6020820190508181035f830152611a6781611a2e565b9050919050565b7f52657175657374204e6f742050656e64696e67210000000000000000000000005f82015250565b5f611aa2601483611967565b9150611aad82611a6e565b602082019050919050565b5f6020820190508181035f830152611acf81611a96565b9050919050565b7f4e487b71000000000000000000000000000000000000000000000000000000005f52601160045260245ffd5b5f611b0d82611574565b9150611b1883611574565b9250828201905080821115611b3057611b2f611ad6565b5b92915050565b60048110611b4757611b466118e9565b5b50565b5f819050611b5782611b36565b919050565b5f611b6682611b4a565b9050919050565b611b7681611b5c565b82525050565b5f606082019050611b8f5f830186611776565b611b9c6020830185611785565b611ba96040830184611b6d565b949350505050565b5f60c082019050611bc45f830189611600565b611bd16020830188611776565b611bde6040830187611776565b611beb6060830186611776565b611bf86080830185611785565b611c0560a0830184611785565b979650505050505050565b5f81905092915050565b7f19457468657265756d205369676e6564204d6573736167653a0a3332000000005f82015250565b5f611c4e601c83611c10565b9150611c5982611c1a565b601c82019050919050565b5f819050919050565b611c7e611c79826115f7565b611c64565b82525050565b5f611c8e82611c42565b9150611c9a8284611c6d565b60208201915081905092915050565b611cb281611652565b82525050565b5f608082019050611ccb5f830187611600565b611cd86020830186611ca9565b611ce56040830185611600565b611cf26060830184611600565b9594505050505056fea2646970667358221220f1eda13472a9efbfdea4b007b189373adf06718a112b4d2d2a5507e11ae2341864736f6c63430008140033",
  "immutableReferences": {},
  "source": "// SPDX-License-Identifier: MIT\r\npragma solidity ^0.8.20;\r\n\r\nimport {IHybrid} from \"./interfaces/IHybrid.sol\";\r\nimport {Structs} from \"./libraries/Structs.sol\";\r\n\r\nimport {Context} from \"@openzeppelin/contracts/utils/Context.sol\";\r\n\r\ncontract Hybrid is IHybrid, Context {\r\n    mapping(bytes32 => bool) private _usedSignedHash;\r\n\r\n    bytes32 internal constant LEAF_DOMAIN_SEPARATOR =\r\n        0xEeeeeEeeeEeEeeEeEeEeeEEEeeeeEeeeeeeeEEeE000000000000000000000000;\r\n\r\n    uint256 internal constant SECONDS_TO_CLOSE_HYBRID = 3 * 24 * 60 * 60;\r\n\r\n    mapping(address => address) private _signers;\r\n    mapping(bytes32 => Structs.Approval) private _approvals;\r\n    mapping(address => mapping(address => bool)) private _isAssetUpgraded;\r\n    mapping(address => Structs.CloseHybrid) private _closeHybrid;\r\n\r\n    function signerOf(address owner) public view override returns (address) {\r\n        return _signers[owner];\r\n    }\r\n\r\n    function onRequestCloseHybrid(Structs.Status status) external override {\r\n        address owner = _msgSender();\r\n\r\n        uint256 endTimestamp = (block.timestamp + SECONDS_TO_CLOSE_HYBRID);\r\n\r\n        _closeHybrid[owner] = Structs.CloseHybrid({\r\n            endTimestamp: endTimestamp,\r\n            status: status\r\n        });\r\n\r\n        emit CloseHybrid(owner, endTimestamp, status);\r\n    }\r\n\r\n    function onCloseHybrid() external override {\r\n        address owner = _msgSender();\r\n\r\n        Structs.CloseHybrid memory request = _closeHybrid[owner];\r\n\r\n        require(request.endTimestamp < block.timestamp, \"Request Not Mature!\");\r\n        require(\r\n            request.status == Structs.Status.PENDING,\r\n            \"Request Not Pending!\"\r\n        );\r\n\r\n        delete _signers[owner];\r\n        delete _closeHybrid[owner];\r\n\r\n        emit WalletUnBind(owner);\r\n    }\r\n\r\n    function onRequestAprroval(\r\n        address owner,\r\n        address spender,\r\n        uint256 value\r\n    ) external override returns (bytes32) {\r\n        address assetId = _msgSender();\r\n\r\n        Structs.Approval memory approval = Structs.Approval({\r\n            sequence: 0,\r\n            assetId: assetId,\r\n            owner: owner,\r\n            spender: spender,\r\n            value: value,\r\n            status: Structs.Status.PENDING\r\n        });\r\n\r\n        bytes32 approvalId = _getHashForApproval(approval);\r\n\r\n        emit ApprovalRequested(approvalId, assetId, owner, spender, value);\r\n\r\n        _approvals[approvalId] = approval;\r\n\r\n        return approvalId;\r\n    }\r\n\r\n    function onValidApproval(\r\n        bytes32 messageHash,\r\n        uint8 v,\r\n        bytes32 r,\r\n        bytes32 s,\r\n        bytes32 approvalId\r\n    )\r\n        external\r\n        override\r\n        onlyUnusedSignedHash(messageHash)\r\n        returns (address spender, uint256 value)\r\n    {\r\n        Structs.Approval storage approval = _approvals[approvalId];\r\n\r\n        address assetId = _msgSender();\r\n\r\n        if (approval.assetId != assetId) {\r\n            revert InvalidCaller(assetId);\r\n        }\r\n\r\n        if (approval.status != Structs.Status.PENDING) {\r\n            revert InvalidStatus(approvalId);\r\n        }\r\n\r\n        bool validate = _verifyHash(\r\n            messageHash,\r\n            v,\r\n            r,\r\n            s,\r\n            signerOf(approval.owner)\r\n        );\r\n\r\n        if (!validate) {\r\n            revert InvalidSignedHash(messageHash);\r\n        }\r\n\r\n        _usedSignedHash[messageHash] = true;\r\n\r\n        approval.status = Structs.Status.ACCEPTED;\r\n\r\n        return (approval.spender, approval.value);\r\n    }\r\n\r\n    function onRejectAprroval(bytes32 approvalId) external override {\r\n        Structs.Approval storage approval = _approvals[approvalId];\r\n\r\n        if (approval.assetId != _msgSender()) {\r\n            revert InvalidCaller(_msgSender());\r\n        }\r\n\r\n        if (approval.status != Structs.Status.PENDING) {\r\n            revert InvalidStatus(approvalId);\r\n        }\r\n\r\n        approval.status = Structs.Status.REJECTED;\r\n    }\r\n\r\n    function walletBind(address signer) external override {\r\n        address owner = _msgSender();\r\n        address previousSigner = _signers[owner];\r\n\r\n        if (previousSigner != address(0)) {\r\n            revert WalletBinded(previousSigner);\r\n        }\r\n\r\n        if (signer == address(0)) {\r\n            revert ZeroAddress(signer);\r\n        }\r\n\r\n        _signers[owner] = signer;\r\n\r\n        emit WalletBind(owner, signer);\r\n    }\r\n\r\n    function onWalletUnBind(\r\n        bytes32 messageHash,\r\n        uint8 v,\r\n        bytes32 r,\r\n        bytes32 s,\r\n        address owner\r\n    ) external override onlyUnusedSignedHash(messageHash) {\r\n        bool validate = _verifyHash(messageHash, v, r, s, signerOf(owner));\r\n\r\n        if (!validate) {\r\n            revert InvalidSignedHash(messageHash);\r\n        }\r\n\r\n        _usedSignedHash[messageHash] = true;\r\n        _signers[owner] = address(0);\r\n\r\n        emit WalletUnBind(owner);\r\n    }\r\n\r\n    function onUpgradeAsset(address owner) external override {\r\n        address assetId = _msgSender();\r\n        address signer = _signers[owner];\r\n\r\n        if (signer == address(0)) {\r\n            revert ZeroAddress(signer);\r\n        }\r\n\r\n        _isAssetUpgraded[assetId][owner] = true;\r\n\r\n        emit AssetUpgraded(assetId, owner);\r\n    }\r\n\r\n    function onDowngradeAsset(\r\n        bytes32 messageHash,\r\n        uint8 v,\r\n        bytes32 r,\r\n        bytes32 s,\r\n        address owner\r\n    ) external override onlyUnusedSignedHash(messageHash) {\r\n        address assetId = _msgSender();\r\n\r\n        bool validate = _verifyHash(messageHash, v, r, s, signerOf(owner));\r\n\r\n        if (!validate) {\r\n            revert InvalidSignedHash(messageHash);\r\n        }\r\n\r\n        _usedSignedHash[messageHash] = true;\r\n\r\n        _isAssetUpgraded[assetId][owner] = false;\r\n\r\n        emit AssetDowngraded(assetId, owner);\r\n    }\r\n\r\n    function isUpgraded(\r\n        address assetId,\r\n        address owner\r\n    ) external view override returns (bool) {\r\n        address signer = _signers[owner];\r\n\r\n        return (signer != address(0)) && (_isAssetUpgraded[assetId][owner]);\r\n    }\r\n\r\n    // ============================= //\r\n    // WALLET BINDING FUNCTIONS      //\r\n    // ============================= //\r\n\r\n    // ============================= //\r\n    // INTERNAL FUNCTIONS            //\r\n    // ============================= //\r\n\r\n    function _getHashForApproval(\r\n        Structs.Approval memory approval\r\n    ) internal pure returns (bytes32) {\r\n        return\r\n            keccak256(\r\n                abi.encode(\r\n                    LEAF_DOMAIN_SEPARATOR,\r\n                    approval.assetId,\r\n                    approval.owner,\r\n                    approval.spender,\r\n                    approval.value,\r\n                    approval.sequence\r\n                )\r\n            );\r\n    }\r\n\r\n    function _verifyHash(\r\n        bytes32 messageHash,\r\n        uint8 v,\r\n        bytes32 r,\r\n        bytes32 s,\r\n        address expectedSigner\r\n    ) internal pure returns (bool) {\r\n        // Concatenate the message hash with the Ethereum prefix \"\\x19Ethereum Signed Message:\\n32\"\r\n        bytes32 prefixedHash = keccak256(\r\n            abi.encodePacked(\"\\x19Ethereum Signed Message:\\n32\", messageHash)\r\n        );\r\n\r\n        // Recover the address from the signature\r\n        address recoveredAddress = ecrecover(prefixedHash, v, r, s);\r\n\r\n        // Check if the recovered address matches the expected signer\r\n        return recoveredAddress == expectedSigner;\r\n    }\r\n\r\n    // ============================= //\r\n    // MODIFIERS                     //\r\n    // ============================= //\r\n\r\n    modifier onlyUnusedSignedHash(bytes32 hash) {\r\n        require(!_usedSignedHash[hash], \"SIGNED HASH USED\");\r\n        _;\r\n    }\r\n}\r\n",
  "sourcePath": "C:\\Users\\DELL\\Documents\\hybrid.bnb.hack\\hybrid-token\\contracts\\Hybrid.sol",
  "compiler": {
    "name": "solc",
    "version": "0.8.20+commit.a1b79de6.Emscripten.clang"
  },
  "schemaVersion": "3.4.11",
  "updatedAt": "2024-02-19T07:23:01.062Z",
  "networkType": "ethereum",
  "devdoc": {
    "kind": "dev",
    "methods": {},
    "version": 1
  },
  "userdoc": {
    "kind": "user",
    "methods": {},
    "version": 1
  }
}