{
  "contractName": "Hybrid",
  "abi": [
    {
      "inputs": [
        {
          "internalType": "address",
          "name": "caller",
          "type": "address"
        }
      ],
      "name": "InvalidCaller",
      "type": "error"
    },
    {
      "inputs": [
        {
          "internalType": "address",
          "name": "signer",
          "type": "address"
        }
      ],
      "name": "InvalidSigner",
      "type": "error"
    },
    {
      "inputs": [
        {
          "internalType": "bytes32",
          "name": "approvalId",
          "type": "bytes32"
        }
      ],
      "name": "InvalidStatus",
      "type": "error"
    },
    {
      "inputs": [
        {
          "internalType": "address",
          "name": "signer",
          "type": "address"
        }
      ],
      "name": "WalletBinded",
      "type": "error"
    },
    {
      "inputs": [
        {
          "internalType": "address",
          "name": "caller",
          "type": "address"
        }
      ],
      "name": "ZeroAddress",
      "type": "error"
    },
    {
      "anonymous": false,
      "inputs": [
        {
          "indexed": false,
          "internalType": "bytes32",
          "name": "approvalId",
          "type": "bytes32"
        },
        {
          "indexed": false,
          "internalType": "address",
          "name": "assetId",
          "type": "address"
        },
        {
          "indexed": false,
          "internalType": "address",
          "name": "owner",
          "type": "address"
        },
        {
          "indexed": false,
          "internalType": "address",
          "name": "spender",
          "type": "address"
        },
        {
          "indexed": false,
          "internalType": "uint256",
          "name": "value",
          "type": "uint256"
        }
      ],
      "name": "ApprovalRequested",
      "type": "event"
    },
    {
      "anonymous": false,
      "inputs": [
        {
          "indexed": false,
          "internalType": "bytes32",
          "name": "approvalId",
          "type": "bytes32"
        },
        {
          "indexed": false,
          "internalType": "enum Structs.Status",
          "name": "status",
          "type": "uint8"
        }
      ],
      "name": "ApprovalResult",
      "type": "event"
    },
    {
      "anonymous": false,
      "inputs": [
        {
          "indexed": false,
          "internalType": "address",
          "name": "assetId",
          "type": "address"
        },
        {
          "indexed": false,
          "internalType": "address",
          "name": "owner",
          "type": "address"
        }
      ],
      "name": "AssetDowngraded",
      "type": "event"
    },
    {
      "anonymous": false,
      "inputs": [
        {
          "indexed": false,
          "internalType": "address",
          "name": "assetId",
          "type": "address"
        },
        {
          "indexed": false,
          "internalType": "address",
          "name": "owner",
          "type": "address"
        }
      ],
      "name": "AssetUpgraded",
      "type": "event"
    },
    {
      "anonymous": false,
      "inputs": [
        {
          "indexed": false,
          "internalType": "address",
          "name": "owner",
          "type": "address"
        },
        {
          "indexed": false,
          "internalType": "uint256",
          "name": "endTimestamp",
          "type": "uint256"
        },
        {
          "indexed": false,
          "internalType": "enum Structs.Status",
          "name": "status",
          "type": "uint8"
        }
      ],
      "name": "CloseHybrid",
      "type": "event"
    },
    {
      "anonymous": false,
      "inputs": [
        {
          "indexed": false,
          "internalType": "address",
          "name": "owner",
          "type": "address"
        },
        {
          "indexed": false,
          "internalType": "address",
          "name": "signer",
          "type": "address"
        }
      ],
      "name": "WalletBind",
      "type": "event"
    },
    {
      "anonymous": false,
      "inputs": [
        {
          "indexed": false,
          "internalType": "address",
          "name": "owner",
          "type": "address"
        }
      ],
      "name": "WalletUnBind",
      "type": "event"
    },
    {
      "inputs": [
        {
          "internalType": "enum Structs.Status",
          "name": "status",
          "type": "uint8"
        }
      ],
      "name": "onRequestCloseHybrid",
      "outputs": [],
      "stateMutability": "nonpayable",
      "type": "function"
    },
    {
      "inputs": [],
      "name": "onCloseHybrid",
      "outputs": [],
      "stateMutability": "nonpayable",
      "type": "function"
    },
    {
      "inputs": [
        {
          "internalType": "address",
          "name": "owner",
          "type": "address"
        },
        {
          "internalType": "address",
          "name": "spender",
          "type": "address"
        },
        {
          "internalType": "uint256",
          "name": "value",
          "type": "uint256"
        }
      ],
      "name": "onRequestAprroval",
      "outputs": [
        {
          "internalType": "bytes32",
          "name": "",
          "type": "bytes32"
        }
      ],
      "stateMutability": "nonpayable",
      "type": "function"
    },
    {
      "inputs": [
        {
          "internalType": "bytes32",
          "name": "message",
          "type": "bytes32"
        },
        {
          "internalType": "bytes",
          "name": "signature",
          "type": "bytes"
        },
        {
          "internalType": "bytes32",
          "name": "approvalId",
          "type": "bytes32"
        }
      ],
      "name": "onValidApproval",
      "outputs": [
        {
          "internalType": "address",
          "name": "spender",
          "type": "address"
        },
        {
          "internalType": "uint256",
          "name": "value",
          "type": "uint256"
        }
      ],
      "stateMutability": "nonpayable",
      "type": "function"
    },
    {
      "inputs": [
        {
          "internalType": "bytes32",
          "name": "approvalId",
          "type": "bytes32"
        }
      ],
      "name": "onRejectAprroval",
      "outputs": [],
      "stateMutability": "nonpayable",
      "type": "function"
    },
    {
      "inputs": [
        {
          "internalType": "address",
          "name": "owner",
          "type": "address"
        }
      ],
      "name": "onUpgradeAsset",
      "outputs": [],
      "stateMutability": "nonpayable",
      "type": "function"
    },
    {
      "inputs": [
        {
          "internalType": "bytes32",
          "name": "message",
          "type": "bytes32"
        },
        {
          "internalType": "bytes",
          "name": "signature",
          "type": "bytes"
        },
        {
          "internalType": "address",
          "name": "owner",
          "type": "address"
        }
      ],
      "name": "onDowngradeAsset",
      "outputs": [],
      "stateMutability": "nonpayable",
      "type": "function"
    },
    {
      "inputs": [
        {
          "internalType": "address",
          "name": "assetId",
          "type": "address"
        },
        {
          "internalType": "address",
          "name": "owner",
          "type": "address"
        }
      ],
      "name": "isUpgraded",
      "outputs": [
        {
          "internalType": "bool",
          "name": "",
          "type": "bool"
        }
      ],
      "stateMutability": "view",
      "type": "function"
    },
    {
      "inputs": [
        {
          "internalType": "address",
          "name": "signer",
          "type": "address"
        }
      ],
      "name": "onWalletBind",
      "outputs": [],
      "stateMutability": "nonpayable",
      "type": "function"
    },
    {
      "inputs": [
        {
          "internalType": "bytes32",
          "name": "message",
          "type": "bytes32"
        },
        {
          "internalType": "bytes",
          "name": "signature",
          "type": "bytes"
        }
      ],
      "name": "onWalletUnBind",
      "outputs": [],
      "stateMutability": "nonpayable",
      "type": "function"
    },
    {
      "inputs": [
        {
          "internalType": "address",
          "name": "owner",
          "type": "address"
        }
      ],
      "name": "signerOf",
      "outputs": [
        {
          "internalType": "address",
          "name": "",
          "type": "address"
        }
      ],
      "stateMutability": "view",
      "type": "function"
    },
    {
      "inputs": [
        {
          "internalType": "bytes32",
          "name": "message",
          "type": "bytes32"
        },
        {
          "internalType": "bytes",
          "name": "signature",
          "type": "bytes"
        }
      ],
      "name": "_verifyHash",
      "outputs": [
        {
          "internalType": "address",
          "name": "",
          "type": "address"
        }
      ],
      "stateMutability": "pure",
      "type": "function"
    }
  ],
  "bytecode": "0x608060405260015f55348015610013575f80fd5b50612096806100215f395ff3fe608060405234801561000f575f80fd5b50600436106100b2575f3560e01c80637bd6f9c11161006f5780637bd6f9c11461019a57806389e1a857146101b6578063a5d73ebe146101c0578063c12fb0cf146101f0578063cd8fb8d91461020c578063ebca197d14610228576100b2565b806306747721146100b65780630bb6f4f5146100e6578063150c2f5b146101025780632bb5e6e3146101325780635b5175d51461014e5780636cc7af2c1461017e575b5f80fd5b6100d060048036038101906100cb919061172b565b610259565b6040516100dd9190611793565b60405180910390f35b61010060048036038101906100fb9190611912565b610481565b005b61011c60048036038101906101179190611912565b61066b565b604051610129919061197b565b60405180910390f35b61014c60048036038101906101479190611994565b6106fe565b005b61016860048036038101906101639190611994565b6108a7565b604051610175919061197b565b60405180910390f35b610198600480360381019061019391906119bf565b61090c565b005b6101b460048036038101906101af91906119ea565b610aa2565b005b6101be610ca3565b005b6101da60048036038101906101d59190611a56565b610edf565b6040516101e79190611aae565b60405180910390f35b61020a60048036038101906102059190611994565b611006565b005b61022660048036038101906102219190611aea565b61120a565b005b610242600480360381019061023d9190611b15565b611305565b604051610250929190611b90565b60405180910390f35b5f80610263611618565b90505f6040518060c001604052805f5481526020018373ffffffffffffffffffffffffffffffffffffffff1681526020018773ffffffffffffffffffffffffffffffffffffffff1681526020018673ffffffffffffffffffffffffffffffffffffffff168152602001858152602001600260038111156102e6576102e5611bb7565b5b81525090505f6102f58261161f565b90507fdef1bb43847f22cfafa04f7c8c1929d0ece6915cfe25e8225afc855b5de78f0e818489898960405161032e959493929190611be4565b60405180910390a18160035f8381526020019081526020015f205f820151815f01556020820151816001015f6101000a81548173ffffffffffffffffffffffffffffffffffffffff021916908373ffffffffffffffffffffffffffffffffffffffff1602179055506040820151816002015f6101000a81548173ffffffffffffffffffffffffffffffffffffffff021916908373ffffffffffffffffffffffffffffffffffffffff1602179055506060820151816003015f6101000a81548173ffffffffffffffffffffffffffffffffffffffff021916908373ffffffffffffffffffffffffffffffffffffffff1602179055506080820151816004015560a0820151816005015f6101000a81548160ff0219169083600381111561045657610455611bb7565b5b02179055509050505f8081548092919061046f90611c62565b91905055508093505050509392505050565b806001816040516104929190611d15565b90815260200160405180910390205f9054906101000a900460ff16156104ed576040517f08c379a00000000000000000000000000000000000000000000000000000000081526004016104e490611d85565b60405180910390fd5b5f6104f6611618565b90505f610503858561066b565b905061050e826108a7565b73ffffffffffffffffffffffffffffffffffffffff168173ffffffffffffffffffffffffffffffffffffffff161461057d57806040517fbf18af43000000000000000000000000000000000000000000000000000000008152600401610574919061197b565b60405180910390fd5b6001808560405161058e9190611d15565b90815260200160405180910390205f6101000a81548160ff0219169083151502179055505f60025f8473ffffffffffffffffffffffffffffffffffffffff1673ffffffffffffffffffffffffffffffffffffffff1681526020019081526020015f205f6101000a81548173ffffffffffffffffffffffffffffffffffffffff021916908373ffffffffffffffffffffffffffffffffffffffff1602179055507fcd015f8e4350857f751e8e90eebe530048be1b5708234f847dd600c5e6aa6f588260405161065c919061197b565b60405180910390a15050505050565b5f805f80602085015192506040850151915060608501515f1a9050601b8160ff1610156106a257601b8161069f9190611daf565b90505b5f6001878386866040515f81526020016040526040516106c59493929190611df2565b6020604051602081039080840390855afa1580156106e5573d5f803e3d5ffd5b5050506020604051035190508094505050505092915050565b5f610707611618565b90505f60025f8473ffffffffffffffffffffffffffffffffffffffff1673ffffffffffffffffffffffffffffffffffffffff1681526020019081526020015f205f9054906101000a900473ffffffffffffffffffffffffffffffffffffffff1690505f73ffffffffffffffffffffffffffffffffffffffff168173ffffffffffffffffffffffffffffffffffffffff16036107d957806040517fc80b88340000000000000000000000000000000000000000000000000000000081526004016107d0919061197b565b60405180910390fd5b600160045f8473ffffffffffffffffffffffffffffffffffffffff1673ffffffffffffffffffffffffffffffffffffffff1681526020019081526020015f205f8573ffffffffffffffffffffffffffffffffffffffff1673ffffffffffffffffffffffffffffffffffffffff1681526020019081526020015f205f6101000a81548160ff0219169083151502179055507f47d2cba3a44cba86a9895e6f0933781d9f7d90d1d5644e37ce30cada37655263828460405161089a929190611e35565b60405180910390a1505050565b5f60025f8373ffffffffffffffffffffffffffffffffffffffff1673ffffffffffffffffffffffffffffffffffffffff1681526020019081526020015f205f9054906101000a900473ffffffffffffffffffffffffffffffffffffffff169050919050565b5f60035f8381526020019081526020015f2090505f610929611618565b90508073ffffffffffffffffffffffffffffffffffffffff16826001015f9054906101000a900473ffffffffffffffffffffffffffffffffffffffff1673ffffffffffffffffffffffffffffffffffffffff16146109be57806040517fcbd9d2e00000000000000000000000000000000000000000000000000000000081526004016109b5919061197b565b60405180910390fd5b600260038111156109d2576109d1611bb7565b5b826005015f9054906101000a900460ff1660038111156109f5576109f4611bb7565b5b14610a3757826040517feddaf683000000000000000000000000000000000000000000000000000000008152600401610a2e9190611793565b60405180910390fd5b6001826005015f6101000a81548160ff02191690836003811115610a5e57610a5d611bb7565b5b02179055507f64f40ad1979d13d9fbeec6caf3a51299776ccf6481bb06a4cb64628aef86913f836001604051610a95929190611ea2565b60405180910390a1505050565b81600181604051610ab39190611d15565b90815260200160405180910390205f9054906101000a900460ff1615610b0e576040517f08c379a0000000000000000000000000000000000000000000000000000000008152600401610b0590611d85565b60405180910390fd5b5f610b17611618565b90505f610b24868661066b565b9050610b2f846108a7565b73ffffffffffffffffffffffffffffffffffffffff168173ffffffffffffffffffffffffffffffffffffffff1614610b9e57806040517fbf18af43000000000000000000000000000000000000000000000000000000008152600401610b95919061197b565b60405180910390fd5b60018086604051610baf9190611d15565b90815260200160405180910390205f6101000a81548160ff0219169083151502179055505f60045f8473ffffffffffffffffffffffffffffffffffffffff1673ffffffffffffffffffffffffffffffffffffffff1681526020019081526020015f205f8673ffffffffffffffffffffffffffffffffffffffff1673ffffffffffffffffffffffffffffffffffffffff1681526020019081526020015f205f6101000a81548160ff0219169083151502179055507f9ba222f205b35ca94d9b19fa3096877fb5dd19d51867ce27488dd51ab72316cc8285604051610c93929190611e35565b60405180910390a1505050505050565b5f610cac611618565b90505f60055f8373ffffffffffffffffffffffffffffffffffffffff1673ffffffffffffffffffffffffffffffffffffffff1681526020019081526020015f206040518060400160405290815f8201548152602001600182015f9054906101000a900460ff166003811115610d2457610d23611bb7565b5b6003811115610d3657610d35611bb7565b5b81525050905042815f015110610d81576040517f08c379a0000000000000000000000000000000000000000000000000000000008152600401610d7890611f13565b60405180910390fd5b60026003811115610d9557610d94611bb7565b5b81602001516003811115610dac57610dab611bb7565b5b14610dec576040517f08c379a0000000000000000000000000000000000000000000000000000000008152600401610de390611f7b565b60405180910390fd5b60025f8373ffffffffffffffffffffffffffffffffffffffff1673ffffffffffffffffffffffffffffffffffffffff1681526020019081526020015f205f6101000a81549073ffffffffffffffffffffffffffffffffffffffff021916905560055f8373ffffffffffffffffffffffffffffffffffffffff1673ffffffffffffffffffffffffffffffffffffffff1681526020019081526020015f205f8082015f9055600182015f6101000a81549060ff021916905550507fcd015f8e4350857f751e8e90eebe530048be1b5708234f847dd600c5e6aa6f5882604051610ed3919061197b565b60405180910390a15050565b5f8060025f8473ffffffffffffffffffffffffffffffffffffffff1673ffffffffffffffffffffffffffffffffffffffff1681526020019081526020015f205f9054906101000a900473ffffffffffffffffffffffffffffffffffffffff1690505f73ffffffffffffffffffffffffffffffffffffffff168173ffffffffffffffffffffffffffffffffffffffff1614158015610ffd575060045f8573ffffffffffffffffffffffffffffffffffffffff1673ffffffffffffffffffffffffffffffffffffffff1681526020019081526020015f205f8473ffffffffffffffffffffffffffffffffffffffff1673ffffffffffffffffffffffffffffffffffffffff1681526020019081526020015f205f9054906101000a900460ff165b91505092915050565b5f61100f611618565b90505f60025f8373ffffffffffffffffffffffffffffffffffffffff1673ffffffffffffffffffffffffffffffffffffffff1681526020019081526020015f205f9054906101000a900473ffffffffffffffffffffffffffffffffffffffff1690505f73ffffffffffffffffffffffffffffffffffffffff168173ffffffffffffffffffffffffffffffffffffffff16146110e157806040517f01ccbbdd0000000000000000000000000000000000000000000000000000000081526004016110d8919061197b565b60405180910390fd5b5f73ffffffffffffffffffffffffffffffffffffffff168373ffffffffffffffffffffffffffffffffffffffff160361115157826040517fc80b8834000000000000000000000000000000000000000000000000000000008152600401611148919061197b565b60405180910390fd5b8260025f8473ffffffffffffffffffffffffffffffffffffffff1673ffffffffffffffffffffffffffffffffffffffff1681526020019081526020015f205f6101000a81548173ffffffffffffffffffffffffffffffffffffffff021916908373ffffffffffffffffffffffffffffffffffffffff1602179055507f659c4667ec6ad38088d26f6c7a82b53e10080e81e6c6df2815a15ba17135158582846040516111fd929190611e35565b60405180910390a1505050565b5f611213611618565b90505f62093a80426112259190611f99565b9050604051806040016040528082815260200184600381111561124b5761124a611bb7565b5b81525060055f8473ffffffffffffffffffffffffffffffffffffffff1673ffffffffffffffffffffffffffffffffffffffff1681526020019081526020015f205f820151815f01556020820151816001015f6101000a81548160ff021916908360038111156112bd576112bc611bb7565b5b02179055509050507fa054964368a6d4122e1715a687ad08e312784ffdd58754f470c7286c0dafbcea8282856040516112f893929190611fcc565b60405180910390a1505050565b5f80836001816040516113189190611d15565b90815260200160405180910390205f9054906101000a900460ff1615611373576040517f08c379a000000000000000000000000000000000000000000000000000000000815260040161136a90611d85565b60405180910390fd5b5f60035f8681526020019081526020015f2090505f611390611618565b90508073ffffffffffffffffffffffffffffffffffffffff16826001015f9054906101000a900473ffffffffffffffffffffffffffffffffffffffff1673ffffffffffffffffffffffffffffffffffffffff161461142557806040517fcbd9d2e000000000000000000000000000000000000000000000000000000000815260040161141c919061197b565b60405180910390fd5b6002600381111561143957611438611bb7565b5b826005015f9054906101000a900460ff16600381111561145c5761145b611bb7565b5b1461149e57856040517feddaf6830000000000000000000000000000000000000000000000000000000081526004016114959190611793565b60405180910390fd5b5f6114a9898961066b565b90506114d7836002015f9054906101000a900473ffffffffffffffffffffffffffffffffffffffff166108a7565b73ffffffffffffffffffffffffffffffffffffffff168173ffffffffffffffffffffffffffffffffffffffff161461154657806040517fbf18af4300000000000000000000000000000000000000000000000000000000815260040161153d919061197b565b60405180910390fd5b600180896040516115579190611d15565b90815260200160405180910390205f6101000a81548160ff0219169083151502179055505f836005015f6101000a81548160ff021916908360038111156115a1576115a0611bb7565b5b02179055507f64f40ad1979d13d9fbeec6caf3a51299776ccf6481bb06a4cb64628aef86913f875f6040516115d7929190611ea2565b60405180910390a1826003015f9054906101000a900473ffffffffffffffffffffffffffffffffffffffff1683600401549550955050505050935093915050565b5f33905090565b5f7feeeeeeeeeeeeeeeeeeeeeeeeeeeeeeeeeeeeeeee0000000000000000000000005f1b8260200151836040015184606001518560800151865f015160405160200161167096959493929190612001565b604051602081830303815290604052805190602001209050919050565b5f604051905090565b5f80fd5b5f80fd5b5f73ffffffffffffffffffffffffffffffffffffffff82169050919050565b5f6116c78261169e565b9050919050565b6116d7816116bd565b81146116e1575f80fd5b50565b5f813590506116f2816116ce565b92915050565b5f819050919050565b61170a816116f8565b8114611714575f80fd5b50565b5f8135905061172581611701565b92915050565b5f805f6060848603121561174257611741611696565b5b5f61174f868287016116e4565b9350506020611760868287016116e4565b925050604061177186828701611717565b9150509250925092565b5f819050919050565b61178d8161177b565b82525050565b5f6020820190506117a65f830184611784565b92915050565b6117b58161177b565b81146117bf575f80fd5b50565b5f813590506117d0816117ac565b92915050565b5f80fd5b5f80fd5b5f601f19601f8301169050919050565b7f4e487b71000000000000000000000000000000000000000000000000000000005f52604160045260245ffd5b611824826117de565b810181811067ffffffffffffffff82111715611843576118426117ee565b5b80604052505050565b5f61185561168d565b9050611861828261181b565b919050565b5f67ffffffffffffffff8211156118805761187f6117ee565b5b611889826117de565b9050602081019050919050565b828183375f83830152505050565b5f6118b66118b184611866565b61184c565b9050828152602081018484840111156118d2576118d16117da565b5b6118dd848285611896565b509392505050565b5f82601f8301126118f9576118f86117d6565b5b81356119098482602086016118a4565b91505092915050565b5f806040838503121561192857611927611696565b5b5f611935858286016117c2565b925050602083013567ffffffffffffffff8111156119565761195561169a565b5b611962858286016118e5565b9150509250929050565b611975816116bd565b82525050565b5f60208201905061198e5f83018461196c565b92915050565b5f602082840312156119a9576119a8611696565b5b5f6119b6848285016116e4565b91505092915050565b5f602082840312156119d4576119d3611696565b5b5f6119e1848285016117c2565b91505092915050565b5f805f60608486031215611a0157611a00611696565b5b5f611a0e868287016117c2565b935050602084013567ffffffffffffffff811115611a2f57611a2e61169a565b5b611a3b868287016118e5565b9250506040611a4c868287016116e4565b9150509250925092565b5f8060408385031215611a6c57611a6b611696565b5b5f611a79858286016116e4565b9250506020611a8a858286016116e4565b9150509250929050565b5f8115159050919050565b611aa881611a94565b82525050565b5f602082019050611ac15f830184611a9f565b92915050565b60048110611ad3575f80fd5b50565b5f81359050611ae481611ac7565b92915050565b5f60208284031215611aff57611afe611696565b5b5f611b0c84828501611ad6565b91505092915050565b5f805f60608486031215611b2c57611b2b611696565b5b5f611b39868287016117c2565b935050602084013567ffffffffffffffff811115611b5a57611b5961169a565b5b611b66868287016118e5565b9250506040611b77868287016117c2565b9150509250925092565b611b8a816116f8565b82525050565b5f604082019050611ba35f83018561196c565b611bb06020830184611b81565b9392505050565b7f4e487b71000000000000000000000000000000000000000000000000000000005f52602160045260245ffd5b5f60a082019050611bf75f830188611784565b611c04602083018761196c565b611c11604083018661196c565b611c1e606083018561196c565b611c2b6080830184611b81565b9695505050505050565b7f4e487b71000000000000000000000000000000000000000000000000000000005f52601160045260245ffd5b5f611c6c826116f8565b91507fffffffffffffffffffffffffffffffffffffffffffffffffffffffffffffffff8203611c9e57611c9d611c35565b5b600182019050919050565b5f81519050919050565b5f81905092915050565b5f5b83811015611cda578082015181840152602081019050611cbf565b5f8484015250505050565b5f611cef82611ca9565b611cf98185611cb3565b9350611d09818560208601611cbd565b80840191505092915050565b5f611d208284611ce5565b915081905092915050565b5f82825260208201905092915050565b7f5369676e617475726520776173207573656400000000000000000000000000005f82015250565b5f611d6f601283611d2b565b9150611d7a82611d3b565b602082019050919050565b5f6020820190508181035f830152611d9c81611d63565b9050919050565b5f60ff82169050919050565b5f611db982611da3565b9150611dc483611da3565b9250828201905060ff811115611ddd57611ddc611c35565b5b92915050565b611dec81611da3565b82525050565b5f608082019050611e055f830187611784565b611e126020830186611de3565b611e1f6040830185611784565b611e2c6060830184611784565b95945050505050565b5f604082019050611e485f83018561196c565b611e55602083018461196c565b9392505050565b60048110611e6d57611e6c611bb7565b5b50565b5f819050611e7d82611e5c565b919050565b5f611e8c82611e70565b9050919050565b611e9c81611e82565b82525050565b5f604082019050611eb55f830185611784565b611ec26020830184611e93565b9392505050565b7f52657175657374204e6f74204d617475726521000000000000000000000000005f82015250565b5f611efd601383611d2b565b9150611f0882611ec9565b602082019050919050565b5f6020820190508181035f830152611f2a81611ef1565b9050919050565b7f52657175657374204e6f742050656e64696e67210000000000000000000000005f82015250565b5f611f65601483611d2b565b9150611f7082611f31565b602082019050919050565b5f6020820190508181035f830152611f9281611f59565b9050919050565b5f611fa3826116f8565b9150611fae836116f8565b9250828201905080821115611fc657611fc5611c35565b5b92915050565b5f606082019050611fdf5f83018661196c565b611fec6020830185611b81565b611ff96040830184611e93565b949350505050565b5f60c0820190506120145f830189611784565b612021602083018861196c565b61202e604083018761196c565b61203b606083018661196c565b6120486080830185611b81565b61205560a0830184611b81565b97965050505050505056fea264697066735822122080c590183e636ec0aab75f3683fb416d0af0d51805db8c17832663fc3557941764736f6c63430008140033",
  "immutableReferences": {},
  "source": "// SPDX-License-Identifier: MIT\r\npragma solidity ^0.8.20;\r\n\r\nimport {IHybrid} from \"./interfaces/IHybrid.sol\";\r\nimport {Structs} from \"./libraries/Structs.sol\";\r\n\r\nimport {Context} from \"@openzeppelin/contracts/utils/Context.sol\";\r\n\r\ncontract Hybrid is IHybrid, Context {\r\n    // ============================= //\r\n    // GLOBAL VARS                   //\r\n    // ============================= //\r\n\r\n    uint256 private _sequence = 1;\r\n    mapping(bytes => bool) private _usedSignatures;\r\n\r\n    bytes32 internal constant LEAF_DOMAIN_SEPARATOR =\r\n        0xEeeeeEeeeEeEeeEeEeEeeEEEeeeeEeeeeeeeEEeE000000000000000000000000;\r\n\r\n    uint256 internal constant SECONDS_TO_CLOSE_HYBRID = 7 * 24 * 60 * 60;\r\n\r\n    mapping(address => address) private _signers;\r\n    mapping(bytes32 => Structs.Approval) private _approvals;\r\n    mapping(address => mapping(address => bool)) private _isAssetUpgraded;\r\n    mapping(address => Structs.CloseHybrid) private _closeHybrid;\r\n\r\n    // ============================= //\r\n    // CLOSE FUNCTIONS               //\r\n    // ============================= //\r\n\r\n    function onRequestCloseHybrid(Structs.Status status) external override {\r\n        address owner = _msgSender();\r\n\r\n        uint256 endTimestamp = (block.timestamp + SECONDS_TO_CLOSE_HYBRID);\r\n\r\n        _closeHybrid[owner] = Structs.CloseHybrid({\r\n            endTimestamp: endTimestamp,\r\n            status: status\r\n        });\r\n\r\n        emit CloseHybrid(owner, endTimestamp, status);\r\n    }\r\n\r\n    function onCloseHybrid() external override {\r\n        address owner = _msgSender();\r\n\r\n        Structs.CloseHybrid memory request = _closeHybrid[owner];\r\n\r\n        require(request.endTimestamp < block.timestamp, \"Request Not Mature!\");\r\n        require(\r\n            request.status == Structs.Status.PENDING,\r\n            \"Request Not Pending!\"\r\n        );\r\n\r\n        delete _signers[owner];\r\n        delete _closeHybrid[owner];\r\n\r\n        emit WalletUnBind(owner);\r\n    }\r\n\r\n    // ============================= //\r\n    // APPROVAL FUNCTIONS            //\r\n    // ============================= //\r\n\r\n    function onRequestAprroval(\r\n        address owner,\r\n        address spender,\r\n        uint256 value\r\n    ) external override returns (bytes32) {\r\n        address assetId = _msgSender();\r\n\r\n        Structs.Approval memory approval = Structs.Approval({\r\n            sequence: _sequence,\r\n            assetId: assetId,\r\n            owner: owner,\r\n            spender: spender,\r\n            value: value,\r\n            status: Structs.Status.PENDING\r\n        });\r\n\r\n        bytes32 approvalId = _getHashForApproval(approval);\r\n\r\n        emit ApprovalRequested(approvalId, assetId, owner, spender, value);\r\n\r\n        _approvals[approvalId] = approval;\r\n        _sequence++;\r\n\r\n        return approvalId;\r\n    }\r\n\r\n    function onValidApproval(\r\n        bytes32 message,\r\n        bytes memory signature,\r\n        bytes32 approvalId\r\n    )\r\n        external\r\n        override\r\n        onlyUnusedSignature(signature)\r\n        returns (address spender, uint256 value)\r\n    {\r\n        Structs.Approval storage approval = _approvals[approvalId];\r\n\r\n        address assetId = _msgSender();\r\n\r\n        if (approval.assetId != assetId) {\r\n            revert InvalidCaller(assetId);\r\n        }\r\n\r\n        if (approval.status != Structs.Status.PENDING) {\r\n            revert InvalidStatus(approvalId);\r\n        }\r\n\r\n        address extractedSigner = _verifyHash(message, signature);\r\n\r\n        if (extractedSigner != signerOf(approval.owner)) {\r\n            revert InvalidSigner(extractedSigner);\r\n        }\r\n\r\n        _usedSignatures[signature] = true;\r\n\r\n        approval.status = Structs.Status.ACCEPTED;\r\n\r\n        emit ApprovalResult(approvalId, Structs.Status.ACCEPTED);\r\n\r\n        return (approval.spender, approval.value);\r\n    }\r\n\r\n    function onRejectAprroval(bytes32 approvalId) external override {\r\n        Structs.Approval storage approval = _approvals[approvalId];\r\n\r\n        address assetId = _msgSender();\r\n\r\n        if (approval.assetId != assetId) {\r\n            revert InvalidCaller(assetId);\r\n        }\r\n\r\n        if (approval.status != Structs.Status.PENDING) {\r\n            revert InvalidStatus(approvalId);\r\n        }\r\n\r\n        approval.status = Structs.Status.REJECTED;\r\n\r\n        emit ApprovalResult(approvalId, Structs.Status.REJECTED);\r\n    }\r\n\r\n    // ============================= //\r\n    // UP/DOWN GRADE FUNCTIONS       //\r\n    // ============================= //\r\n\r\n    function onUpgradeAsset(address owner) external override {\r\n        address assetId = _msgSender();\r\n        address signer = _signers[owner];\r\n\r\n        if (signer == address(0)) {\r\n            revert ZeroAddress(signer);\r\n        }\r\n\r\n        _isAssetUpgraded[assetId][owner] = true;\r\n\r\n        emit AssetUpgraded(assetId, owner);\r\n    }\r\n\r\n    function onDowngradeAsset(\r\n        bytes32 message,\r\n        bytes memory signature,\r\n        address owner\r\n    ) external override onlyUnusedSignature(signature) {\r\n        address assetId = _msgSender();\r\n\r\n        address extractedSigner = _verifyHash(message, signature);\r\n\r\n        if (extractedSigner != signerOf(owner)) {\r\n            revert InvalidSigner(extractedSigner);\r\n        }\r\n\r\n        _usedSignatures[signature] = true;\r\n\r\n        _isAssetUpgraded[assetId][owner] = false;\r\n\r\n        emit AssetDowngraded(assetId, owner);\r\n    }\r\n\r\n    function isUpgraded(\r\n        address assetId,\r\n        address owner\r\n    ) external view override returns (bool) {\r\n        address signer = _signers[owner];\r\n\r\n        return (signer != address(0)) && (_isAssetUpgraded[assetId][owner]);\r\n    }\r\n\r\n    // ============================= //\r\n    // WALLET BINDING FUNCTIONS      //\r\n    // ============================= //\r\n\r\n    function onWalletBind(address signer) external override {\r\n        address owner = _msgSender();\r\n        address previousSigner = _signers[owner];\r\n\r\n        if (previousSigner != address(0)) {\r\n            revert WalletBinded(previousSigner);\r\n        }\r\n\r\n        if (signer == address(0)) {\r\n            revert ZeroAddress(signer);\r\n        }\r\n\r\n        _signers[owner] = signer;\r\n\r\n        emit WalletBind(owner, signer);\r\n    }\r\n\r\n    function onWalletUnBind(\r\n        bytes32 message,\r\n        bytes memory signature\r\n    ) external override onlyUnusedSignature(signature) {\r\n        address owner = _msgSender();\r\n\r\n        address extractedSigner = _verifyHash(message, signature);\r\n\r\n        if (extractedSigner != signerOf(owner)) {\r\n            revert InvalidSigner(extractedSigner);\r\n        }\r\n\r\n        _usedSignatures[signature] = true;\r\n        _signers[owner] = address(0);\r\n\r\n        emit WalletUnBind(owner);\r\n    }\r\n\r\n    function signerOf(address owner) public view override returns (address) {\r\n        return _signers[owner];\r\n    }\r\n\r\n    // ============================= //\r\n    // INTERNAL FUNCTIONS            //\r\n    // ============================= //\r\n\r\n    function _getHashForApproval(\r\n        Structs.Approval memory approval\r\n    ) internal pure returns (bytes32) {\r\n        return\r\n            keccak256(\r\n                abi.encode(\r\n                    LEAF_DOMAIN_SEPARATOR,\r\n                    approval.assetId,\r\n                    approval.owner,\r\n                    approval.spender,\r\n                    approval.value,\r\n                    approval.sequence\r\n                )\r\n            );\r\n    }\r\n\r\n    function _verifyHash(\r\n        bytes32 message,\r\n        bytes memory signature\r\n    ) public pure returns (address) {\r\n        bytes32 r;\r\n        bytes32 s;\r\n        uint8 v;\r\n\r\n        // Extracting r, s, v values from the signature\r\n        assembly {\r\n            r := mload(add(signature, 32))\r\n            s := mload(add(signature, 64))\r\n            v := byte(0, mload(add(signature, 96)))\r\n        }\r\n\r\n        // EIP-2: Consider v = {0, 1} as it might not be exactly 27 or 28\r\n        if (v < 27) {\r\n            v += 27;\r\n        }\r\n\r\n        // Recover the signer's address using ecrecover\r\n        address signer = ecrecover(message, v, r, s);\r\n\r\n        return signer;\r\n    }\r\n\r\n    // ============================= //\r\n    // MODIFIERS                     //\r\n    // ============================= //\r\n\r\n    modifier onlyUnusedSignature(bytes memory signature) {\r\n        require(!_usedSignatures[signature], \"Signature was used\");\r\n        _;\r\n    }\r\n}\r\n",
  "sourcePath": "C:\\Users\\DELL\\Documents\\hybrid.bnb.hack\\hybrid-token\\contracts\\Hybrid.sol",
  "compiler": {
    "name": "solc",
    "version": "0.8.20+commit.a1b79de6.Emscripten.clang"
  },
  "schemaVersion": "3.4.11",
  "updatedAt": "2024-03-04T14:21:51.812Z",
  "devdoc": {
    "kind": "dev",
    "methods": {},
    "version": 1
  },
  "userdoc": {
    "kind": "user",
    "methods": {},
    "version": 1
  }
}