{
  "contractName": "Hybrid",
  "abi": [
    {
      "inputs": [
        {
          "internalType": "address",
          "name": "caller",
          "type": "address"
        }
      ],
      "name": "InvalidCaller",
      "type": "error"
    },
    {
      "inputs": [
        {
          "internalType": "address",
          "name": "signer",
          "type": "address"
        }
      ],
      "name": "InvalidSigner",
      "type": "error"
    },
    {
      "inputs": [
        {
          "internalType": "bytes32",
          "name": "approvalId",
          "type": "bytes32"
        }
      ],
      "name": "InvalidStatus",
      "type": "error"
    },
    {
      "inputs": [
        {
          "internalType": "address",
          "name": "signer",
          "type": "address"
        }
      ],
      "name": "WalletBinded",
      "type": "error"
    },
    {
      "inputs": [
        {
          "internalType": "address",
          "name": "caller",
          "type": "address"
        }
      ],
      "name": "ZeroAddress",
      "type": "error"
    },
    {
      "anonymous": false,
      "inputs": [
        {
          "indexed": false,
          "internalType": "bytes32",
          "name": "approvalId",
          "type": "bytes32"
        },
        {
          "indexed": false,
          "internalType": "address",
          "name": "assetId",
          "type": "address"
        },
        {
          "indexed": false,
          "internalType": "address",
          "name": "owner",
          "type": "address"
        },
        {
          "indexed": false,
          "internalType": "address",
          "name": "spender",
          "type": "address"
        },
        {
          "indexed": false,
          "internalType": "uint256",
          "name": "value",
          "type": "uint256"
        }
      ],
      "name": "ApprovalRequested",
      "type": "event"
    },
    {
      "anonymous": false,
      "inputs": [
        {
          "indexed": false,
          "internalType": "bytes32",
          "name": "approvalId",
          "type": "bytes32"
        },
        {
          "indexed": false,
          "internalType": "enum Structs.Status",
          "name": "status",
          "type": "uint8"
        }
      ],
      "name": "ApprovalResult",
      "type": "event"
    },
    {
      "anonymous": false,
      "inputs": [
        {
          "indexed": false,
          "internalType": "address",
          "name": "assetId",
          "type": "address"
        },
        {
          "indexed": false,
          "internalType": "address",
          "name": "owner",
          "type": "address"
        }
      ],
      "name": "AssetDowngraded",
      "type": "event"
    },
    {
      "anonymous": false,
      "inputs": [
        {
          "indexed": false,
          "internalType": "address",
          "name": "assetId",
          "type": "address"
        },
        {
          "indexed": false,
          "internalType": "address",
          "name": "owner",
          "type": "address"
        }
      ],
      "name": "AssetUpgraded",
      "type": "event"
    },
    {
      "anonymous": false,
      "inputs": [
        {
          "indexed": false,
          "internalType": "address",
          "name": "owner",
          "type": "address"
        },
        {
          "indexed": false,
          "internalType": "uint256",
          "name": "endTimestamp",
          "type": "uint256"
        },
        {
          "indexed": false,
          "internalType": "enum Structs.Status",
          "name": "status",
          "type": "uint8"
        }
      ],
      "name": "CloseHybrid",
      "type": "event"
    },
    {
      "anonymous": false,
      "inputs": [
        {
          "indexed": false,
          "internalType": "address",
          "name": "owner",
          "type": "address"
        },
        {
          "indexed": false,
          "internalType": "address",
          "name": "signer",
          "type": "address"
        }
      ],
      "name": "WalletBind",
      "type": "event"
    },
    {
      "anonymous": false,
      "inputs": [
        {
          "indexed": false,
          "internalType": "address",
          "name": "owner",
          "type": "address"
        }
      ],
      "name": "WalletUnBind",
      "type": "event"
    },
    {
      "inputs": [
        {
          "internalType": "enum Structs.Status",
          "name": "status",
          "type": "uint8"
        }
      ],
      "name": "onRequestCloseHybrid",
      "outputs": [],
      "stateMutability": "nonpayable",
      "type": "function"
    },
    {
      "inputs": [],
      "name": "onCloseHybrid",
      "outputs": [],
      "stateMutability": "nonpayable",
      "type": "function"
    },
    {
      "inputs": [
        {
          "internalType": "address",
          "name": "owner",
          "type": "address"
        },
        {
          "internalType": "address",
          "name": "spender",
          "type": "address"
        },
        {
          "internalType": "uint256",
          "name": "value",
          "type": "uint256"
        }
      ],
      "name": "onRequestAprroval",
      "outputs": [
        {
          "internalType": "bytes32",
          "name": "",
          "type": "bytes32"
        }
      ],
      "stateMutability": "nonpayable",
      "type": "function"
    },
    {
      "inputs": [
        {
          "internalType": "bytes32",
          "name": "messageHash",
          "type": "bytes32"
        },
        {
          "internalType": "uint8",
          "name": "v",
          "type": "uint8"
        },
        {
          "internalType": "bytes32",
          "name": "r",
          "type": "bytes32"
        },
        {
          "internalType": "bytes32",
          "name": "s",
          "type": "bytes32"
        },
        {
          "internalType": "bytes32",
          "name": "approvalId",
          "type": "bytes32"
        }
      ],
      "name": "onValidApproval",
      "outputs": [
        {
          "internalType": "address",
          "name": "spender",
          "type": "address"
        },
        {
          "internalType": "uint256",
          "name": "value",
          "type": "uint256"
        }
      ],
      "stateMutability": "nonpayable",
      "type": "function"
    },
    {
      "inputs": [
        {
          "internalType": "bytes32",
          "name": "approvalId",
          "type": "bytes32"
        }
      ],
      "name": "onRejectAprroval",
      "outputs": [],
      "stateMutability": "nonpayable",
      "type": "function"
    },
    {
      "inputs": [
        {
          "internalType": "address",
          "name": "owner",
          "type": "address"
        }
      ],
      "name": "onUpgradeAsset",
      "outputs": [],
      "stateMutability": "nonpayable",
      "type": "function"
    },
    {
      "inputs": [
        {
          "internalType": "bytes32",
          "name": "messageHash",
          "type": "bytes32"
        },
        {
          "internalType": "uint8",
          "name": "v",
          "type": "uint8"
        },
        {
          "internalType": "bytes32",
          "name": "r",
          "type": "bytes32"
        },
        {
          "internalType": "bytes32",
          "name": "s",
          "type": "bytes32"
        },
        {
          "internalType": "address",
          "name": "owner",
          "type": "address"
        }
      ],
      "name": "onDowngradeAsset",
      "outputs": [],
      "stateMutability": "nonpayable",
      "type": "function"
    },
    {
      "inputs": [
        {
          "internalType": "address",
          "name": "assetId",
          "type": "address"
        },
        {
          "internalType": "address",
          "name": "owner",
          "type": "address"
        }
      ],
      "name": "isUpgraded",
      "outputs": [
        {
          "internalType": "bool",
          "name": "",
          "type": "bool"
        }
      ],
      "stateMutability": "view",
      "type": "function",
      "constant": true
    },
    {
      "inputs": [
        {
          "internalType": "address",
          "name": "signer",
          "type": "address"
        }
      ],
      "name": "onWalletBind",
      "outputs": [],
      "stateMutability": "nonpayable",
      "type": "function"
    },
    {
      "inputs": [
        {
          "internalType": "bytes32",
          "name": "messageHash",
          "type": "bytes32"
        },
        {
          "internalType": "uint8",
          "name": "v",
          "type": "uint8"
        },
        {
          "internalType": "bytes32",
          "name": "r",
          "type": "bytes32"
        },
        {
          "internalType": "bytes32",
          "name": "s",
          "type": "bytes32"
        }
      ],
      "name": "onWalletUnBind",
      "outputs": [],
      "stateMutability": "nonpayable",
      "type": "function"
    },
    {
      "inputs": [
        {
          "internalType": "address",
          "name": "owner",
          "type": "address"
        }
      ],
      "name": "signerOf",
      "outputs": [
        {
          "internalType": "address",
          "name": "",
          "type": "address"
        }
      ],
      "stateMutability": "view",
      "type": "function",
      "constant": true
    }
  ],
  "bytecode": "0x608060405260015f55348015610013575f80fd5b50611ef3806100215f395ff3fe608060405234801561000f575f80fd5b50600436106100a7575f3560e01c80636cc7af2c1161006f5780636cc7af2c1461017457806389e1a857146101905780638e859f181461019a578063a5d73ebe146101b6578063c12fb0cf146101e6578063cd8fb8d914610202576100a7565b806306747721146100ab5780630dfefc30146100db5780631b05c655146100f75780632bb5e6e3146101285780635b5175d514610144575b5f80fd5b6100c560048036038101906100c09190611697565b61021e565b6040516100d291906116ff565b60405180910390f35b6100f560048036038101906100f09190611778565b610446565b005b610111600480360381019061010c91906117ef565b610631565b60405161011f929190611884565b60405180910390f35b610142600480360381019061013d91906118ab565b61092e565b005b61015e600480360381019061015991906118ab565b610ad7565b60405161016b91906118d6565b60405180910390f35b61018e600480360381019061018991906118ef565b610b3c565b005b610198610cd4565b005b6101b460048036038101906101af919061191a565b610f10565b005b6101d060048036038101906101cb919061197e565b6110e4565b6040516101dd91906119d6565b60405180910390f35b61020060048036038101906101fb91906118ab565b61120b565b005b61021c60048036038101906102179190611a12565b61140f565b005b5f8061022861150a565b90505f6040518060c001604052805f5481526020018373ffffffffffffffffffffffffffffffffffffffff1681526020018773ffffffffffffffffffffffffffffffffffffffff1681526020018673ffffffffffffffffffffffffffffffffffffffff168152602001858152602001600260038111156102ab576102aa611a3d565b5b81525090505f6102ba82611511565b90507fdef1bb43847f22cfafa04f7c8c1929d0ece6915cfe25e8225afc855b5de78f0e81848989896040516102f3959493929190611a6a565b60405180910390a18160035f8381526020019081526020015f205f820151815f01556020820151816001015f6101000a81548173ffffffffffffffffffffffffffffffffffffffff021916908373ffffffffffffffffffffffffffffffffffffffff1602179055506040820151816002015f6101000a81548173ffffffffffffffffffffffffffffffffffffffff021916908373ffffffffffffffffffffffffffffffffffffffff1602179055506060820151816003015f6101000a81548173ffffffffffffffffffffffffffffffffffffffff021916908373ffffffffffffffffffffffffffffffffffffffff1602179055506080820151816004015560a0820151816005015f6101000a81548160ff0219169083600381111561041b5761041a611a3d565b5b02179055509050505f8081548092919061043490611ae8565b91905055508093505050509392505050565b8460015f8281526020019081526020015f205f9054906101000a900460ff16156104a5576040517f08c379a000000000000000000000000000000000000000000000000000000000815260040161049c90611b89565b60405180910390fd5b5f6104ae61150a565b90505f6104bd8888888861157f565b90506104c884610ad7565b73ffffffffffffffffffffffffffffffffffffffff168173ffffffffffffffffffffffffffffffffffffffff161461053757806040517fbf18af4300000000000000000000000000000000000000000000000000000000815260040161052e91906118d6565b60405180910390fd5b6001805f8a81526020019081526020015f205f6101000a81548160ff0219169083151502179055505f60045f8473ffffffffffffffffffffffffffffffffffffffff1673ffffffffffffffffffffffffffffffffffffffff1681526020019081526020015f205f8673ffffffffffffffffffffffffffffffffffffffff1673ffffffffffffffffffffffffffffffffffffffff1681526020019081526020015f205f6101000a81548160ff0219169083151502179055507f9ba222f205b35ca94d9b19fa3096877fb5dd19d51867ce27488dd51ab72316cc828560405161061f929190611ba7565b60405180910390a15050505050505050565b5f808660015f8281526020019081526020015f205f9054906101000a900460ff1615610692576040517f08c379a000000000000000000000000000000000000000000000000000000000815260040161068990611b89565b60405180910390fd5b5f60035f8681526020019081526020015f2090505f6106af61150a565b90508073ffffffffffffffffffffffffffffffffffffffff16826001015f9054906101000a900473ffffffffffffffffffffffffffffffffffffffff1673ffffffffffffffffffffffffffffffffffffffff161461074457806040517fcbd9d2e000000000000000000000000000000000000000000000000000000000815260040161073b91906118d6565b60405180910390fd5b6002600381111561075857610757611a3d565b5b826005015f9054906101000a900460ff16600381111561077b5761077a611a3d565b5b146107bd57856040517feddaf6830000000000000000000000000000000000000000000000000000000081526004016107b491906116ff565b60405180910390fd5b5f6107ca8b8b8b8b61157f565b90506107f8836002015f9054906101000a900473ffffffffffffffffffffffffffffffffffffffff16610ad7565b73ffffffffffffffffffffffffffffffffffffffff168173ffffffffffffffffffffffffffffffffffffffff161461086757806040517fbf18af4300000000000000000000000000000000000000000000000000000000815260040161085e91906118d6565b60405180910390fd5b6001805f8d81526020019081526020015f205f6101000a81548160ff0219169083151502179055505f836005015f6101000a81548160ff021916908360038111156108b5576108b4611a3d565b5b02179055507f64f40ad1979d13d9fbeec6caf3a51299776ccf6481bb06a4cb64628aef86913f875f6040516108eb929190611c14565b60405180910390a1826003015f9054906101000a900473ffffffffffffffffffffffffffffffffffffffff16836004015495509550505050509550959350505050565b5f61093761150a565b90505f60025f8473ffffffffffffffffffffffffffffffffffffffff1673ffffffffffffffffffffffffffffffffffffffff1681526020019081526020015f205f9054906101000a900473ffffffffffffffffffffffffffffffffffffffff1690505f73ffffffffffffffffffffffffffffffffffffffff168173ffffffffffffffffffffffffffffffffffffffff1603610a0957806040517fc80b8834000000000000000000000000000000000000000000000000000000008152600401610a0091906118d6565b60405180910390fd5b600160045f8473ffffffffffffffffffffffffffffffffffffffff1673ffffffffffffffffffffffffffffffffffffffff1681526020019081526020015f205f8573ffffffffffffffffffffffffffffffffffffffff1673ffffffffffffffffffffffffffffffffffffffff1681526020019081526020015f205f6101000a81548160ff0219169083151502179055507f47d2cba3a44cba86a9895e6f0933781d9f7d90d1d5644e37ce30cada376552638284604051610aca929190611ba7565b60405180910390a1505050565b5f60025f8373ffffffffffffffffffffffffffffffffffffffff1673ffffffffffffffffffffffffffffffffffffffff1681526020019081526020015f205f9054906101000a900473ffffffffffffffffffffffffffffffffffffffff169050919050565b5f60035f8381526020019081526020015f209050610b5861150a565b73ffffffffffffffffffffffffffffffffffffffff16816001015f9054906101000a900473ffffffffffffffffffffffffffffffffffffffff1673ffffffffffffffffffffffffffffffffffffffff1614610bf157610bb561150a565b6040517fcbd9d2e0000000000000000000000000000000000000000000000000000000008152600401610be891906118d6565b60405180910390fd5b60026003811115610c0557610c04611a3d565b5b816005015f9054906101000a900460ff166003811115610c2857610c27611a3d565b5b14610c6a57816040517feddaf683000000000000000000000000000000000000000000000000000000008152600401610c6191906116ff565b60405180910390fd5b6001816005015f6101000a81548160ff02191690836003811115610c9157610c90611a3d565b5b02179055507f64f40ad1979d13d9fbeec6caf3a51299776ccf6481bb06a4cb64628aef86913f826001604051610cc8929190611c14565b60405180910390a15050565b5f610cdd61150a565b90505f60055f8373ffffffffffffffffffffffffffffffffffffffff1673ffffffffffffffffffffffffffffffffffffffff1681526020019081526020015f206040518060400160405290815f8201548152602001600182015f9054906101000a900460ff166003811115610d5557610d54611a3d565b5b6003811115610d6757610d66611a3d565b5b81525050905042815f015110610db2576040517f08c379a0000000000000000000000000000000000000000000000000000000008152600401610da990611c85565b60405180910390fd5b60026003811115610dc657610dc5611a3d565b5b81602001516003811115610ddd57610ddc611a3d565b5b14610e1d576040517f08c379a0000000000000000000000000000000000000000000000000000000008152600401610e1490611ced565b60405180910390fd5b60025f8373ffffffffffffffffffffffffffffffffffffffff1673ffffffffffffffffffffffffffffffffffffffff1681526020019081526020015f205f6101000a81549073ffffffffffffffffffffffffffffffffffffffff021916905560055f8373ffffffffffffffffffffffffffffffffffffffff1673ffffffffffffffffffffffffffffffffffffffff1681526020019081526020015f205f8082015f9055600182015f6101000a81549060ff021916905550507fcd015f8e4350857f751e8e90eebe530048be1b5708234f847dd600c5e6aa6f5882604051610f0491906118d6565b60405180910390a15050565b8360015f8281526020019081526020015f205f9054906101000a900460ff1615610f6f576040517f08c379a0000000000000000000000000000000000000000000000000000000008152600401610f6690611b89565b60405180910390fd5b5f610f7861150a565b90505f610f878787878761157f565b9050610f9282610ad7565b73ffffffffffffffffffffffffffffffffffffffff168173ffffffffffffffffffffffffffffffffffffffff161461100157806040517fbf18af43000000000000000000000000000000000000000000000000000000008152600401610ff891906118d6565b60405180910390fd5b6001805f8981526020019081526020015f205f6101000a81548160ff0219169083151502179055505f60025f8473ffffffffffffffffffffffffffffffffffffffff1673ffffffffffffffffffffffffffffffffffffffff1681526020019081526020015f205f6101000a81548173ffffffffffffffffffffffffffffffffffffffff021916908373ffffffffffffffffffffffffffffffffffffffff1602179055507fcd015f8e4350857f751e8e90eebe530048be1b5708234f847dd600c5e6aa6f58826040516110d391906118d6565b60405180910390a150505050505050565b5f8060025f8473ffffffffffffffffffffffffffffffffffffffff1673ffffffffffffffffffffffffffffffffffffffff1681526020019081526020015f205f9054906101000a900473ffffffffffffffffffffffffffffffffffffffff1690505f73ffffffffffffffffffffffffffffffffffffffff168173ffffffffffffffffffffffffffffffffffffffff1614158015611202575060045f8573ffffffffffffffffffffffffffffffffffffffff1673ffffffffffffffffffffffffffffffffffffffff1681526020019081526020015f205f8473ffffffffffffffffffffffffffffffffffffffff1673ffffffffffffffffffffffffffffffffffffffff1681526020019081526020015f205f9054906101000a900460ff165b91505092915050565b5f61121461150a565b90505f60025f8373ffffffffffffffffffffffffffffffffffffffff1673ffffffffffffffffffffffffffffffffffffffff1681526020019081526020015f205f9054906101000a900473ffffffffffffffffffffffffffffffffffffffff1690505f73ffffffffffffffffffffffffffffffffffffffff168173ffffffffffffffffffffffffffffffffffffffff16146112e657806040517f01ccbbdd0000000000000000000000000000000000000000000000000000000081526004016112dd91906118d6565b60405180910390fd5b5f73ffffffffffffffffffffffffffffffffffffffff168373ffffffffffffffffffffffffffffffffffffffff160361135657826040517fc80b883400000000000000000000000000000000000000000000000000000000815260040161134d91906118d6565b60405180910390fd5b8260025f8473ffffffffffffffffffffffffffffffffffffffff1673ffffffffffffffffffffffffffffffffffffffff1681526020019081526020015f205f6101000a81548173ffffffffffffffffffffffffffffffffffffffff021916908373ffffffffffffffffffffffffffffffffffffffff1602179055507f659c4667ec6ad38088d26f6c7a82b53e10080e81e6c6df2815a15ba1713515858284604051611402929190611ba7565b60405180910390a1505050565b5f61141861150a565b90505f62093a804261142a9190611d0b565b905060405180604001604052808281526020018460038111156114505761144f611a3d565b5b81525060055f8473ffffffffffffffffffffffffffffffffffffffff1673ffffffffffffffffffffffffffffffffffffffff1681526020019081526020015f205f820151815f01556020820151816001015f6101000a81548160ff021916908360038111156114c2576114c1611a3d565b5b02179055509050507fa054964368a6d4122e1715a687ad08e312784ffdd58754f470c7286c0dafbcea8282856040516114fd93929190611d3e565b60405180910390a1505050565b5f33905090565b5f7feeeeeeeeeeeeeeeeeeeeeeeeeeeeeeeeeeeeeeee0000000000000000000000005f1b8260200151836040015184606001518560800151865f015160405160200161156296959493929190611d73565b604051602081830303815290604052805190602001209050919050565b5f80856040516020016115929190611e46565b6040516020818303038152906040528051906020012090505f6001828787876040515f81526020016040526040516115cd9493929190611e7a565b6020604051602081039080840390855afa1580156115ed573d5f803e3d5ffd5b5050506020604051035190508092505050949350505050565b5f80fd5b5f73ffffffffffffffffffffffffffffffffffffffff82169050919050565b5f6116338261160a565b9050919050565b61164381611629565b811461164d575f80fd5b50565b5f8135905061165e8161163a565b92915050565b5f819050919050565b61167681611664565b8114611680575f80fd5b50565b5f813590506116918161166d565b92915050565b5f805f606084860312156116ae576116ad611606565b5b5f6116bb86828701611650565b93505060206116cc86828701611650565b92505060406116dd86828701611683565b9150509250925092565b5f819050919050565b6116f9816116e7565b82525050565b5f6020820190506117125f8301846116f0565b92915050565b611721816116e7565b811461172b575f80fd5b50565b5f8135905061173c81611718565b92915050565b5f60ff82169050919050565b61175781611742565b8114611761575f80fd5b50565b5f813590506117728161174e565b92915050565b5f805f805f60a0868803121561179157611790611606565b5b5f61179e8882890161172e565b95505060206117af88828901611764565b94505060406117c08882890161172e565b93505060606117d18882890161172e565b92505060806117e288828901611650565b9150509295509295909350565b5f805f805f60a0868803121561180857611807611606565b5b5f6118158882890161172e565b955050602061182688828901611764565b94505060406118378882890161172e565b93505060606118488882890161172e565b92505060806118598882890161172e565b9150509295509295909350565b61186f81611629565b82525050565b61187e81611664565b82525050565b5f6040820190506118975f830185611866565b6118a46020830184611875565b9392505050565b5f602082840312156118c0576118bf611606565b5b5f6118cd84828501611650565b91505092915050565b5f6020820190506118e95f830184611866565b92915050565b5f6020828403121561190457611903611606565b5b5f6119118482850161172e565b91505092915050565b5f805f806080858703121561193257611931611606565b5b5f61193f8782880161172e565b945050602061195087828801611764565b93505060406119618782880161172e565b92505060606119728782880161172e565b91505092959194509250565b5f806040838503121561199457611993611606565b5b5f6119a185828601611650565b92505060206119b285828601611650565b9150509250929050565b5f8115159050919050565b6119d0816119bc565b82525050565b5f6020820190506119e95f8301846119c7565b92915050565b600481106119fb575f80fd5b50565b5f81359050611a0c816119ef565b92915050565b5f60208284031215611a2757611a26611606565b5b5f611a34848285016119fe565b91505092915050565b7f4e487b71000000000000000000000000000000000000000000000000000000005f52602160045260245ffd5b5f60a082019050611a7d5f8301886116f0565b611a8a6020830187611866565b611a976040830186611866565b611aa46060830185611866565b611ab16080830184611875565b9695505050505050565b7f4e487b71000000000000000000000000000000000000000000000000000000005f52601160045260245ffd5b5f611af282611664565b91507fffffffffffffffffffffffffffffffffffffffffffffffffffffffffffffffff8203611b2457611b23611abb565b5b600182019050919050565b5f82825260208201905092915050565b7f5349474e454420484153482055534544000000000000000000000000000000005f82015250565b5f611b73601083611b2f565b9150611b7e82611b3f565b602082019050919050565b5f6020820190508181035f830152611ba081611b67565b9050919050565b5f604082019050611bba5f830185611866565b611bc76020830184611866565b9392505050565b60048110611bdf57611bde611a3d565b5b50565b5f819050611bef82611bce565b919050565b5f611bfe82611be2565b9050919050565b611c0e81611bf4565b82525050565b5f604082019050611c275f8301856116f0565b611c346020830184611c05565b9392505050565b7f52657175657374204e6f74204d617475726521000000000000000000000000005f82015250565b5f611c6f601383611b2f565b9150611c7a82611c3b565b602082019050919050565b5f6020820190508181035f830152611c9c81611c63565b9050919050565b7f52657175657374204e6f742050656e64696e67210000000000000000000000005f82015250565b5f611cd7601483611b2f565b9150611ce282611ca3565b602082019050919050565b5f6020820190508181035f830152611d0481611ccb565b9050919050565b5f611d1582611664565b9150611d2083611664565b9250828201905080821115611d3857611d37611abb565b5b92915050565b5f606082019050611d515f830186611866565b611d5e6020830185611875565b611d6b6040830184611c05565b949350505050565b5f60c082019050611d865f8301896116f0565b611d936020830188611866565b611da06040830187611866565b611dad6060830186611866565b611dba6080830185611875565b611dc760a0830184611875565b979650505050505050565b5f81905092915050565b7f19457468657265756d205369676e6564204d6573736167653a0a3332000000005f82015250565b5f611e10601c83611dd2565b9150611e1b82611ddc565b601c82019050919050565b5f819050919050565b611e40611e3b826116e7565b611e26565b82525050565b5f611e5082611e04565b9150611e5c8284611e2f565b60208201915081905092915050565b611e7481611742565b82525050565b5f608082019050611e8d5f8301876116f0565b611e9a6020830186611e6b565b611ea760408301856116f0565b611eb460608301846116f0565b9594505050505056fea264697066735822122055325a1e514e858e23810927471f4b42d224bba8616177e85bf6f774e46dc2da64736f6c63430008140033",
  "immutableReferences": {},
  "source": "// SPDX-License-Identifier: MIT\r\npragma solidity ^0.8.20;\r\n\r\nimport {IHybrid} from \"./interfaces/IHybrid.sol\";\r\nimport {Structs} from \"./libraries/Structs.sol\";\r\n\r\nimport {Context} from \"@openzeppelin/contracts/utils/Context.sol\";\r\n\r\ncontract Hybrid is IHybrid, Context {\r\n    // ============================= //\r\n    // GLOBAL VARS                   //\r\n    // ============================= //\r\n\r\n    uint256 private _sequence = 1;\r\n    mapping(bytes32 => bool) private _usedSignedHash;\r\n\r\n    bytes32 internal constant LEAF_DOMAIN_SEPARATOR =\r\n        0xEeeeeEeeeEeEeeEeEeEeeEEEeeeeEeeeeeeeEEeE000000000000000000000000;\r\n\r\n    uint256 internal constant SECONDS_TO_CLOSE_HYBRID = 7 * 24 * 60 * 60;\r\n\r\n    mapping(address => address) private _signers;\r\n    mapping(bytes32 => Structs.Approval) private _approvals;\r\n    mapping(address => mapping(address => bool)) private _isAssetUpgraded;\r\n    mapping(address => Structs.CloseHybrid) private _closeHybrid;\r\n\r\n    // ============================= //\r\n    // CLOSE FUNCTIONS               //\r\n    // ============================= //\r\n\r\n    function onRequestCloseHybrid(Structs.Status status) external override {\r\n        address owner = _msgSender();\r\n\r\n        uint256 endTimestamp = (block.timestamp + SECONDS_TO_CLOSE_HYBRID);\r\n\r\n        _closeHybrid[owner] = Structs.CloseHybrid({\r\n            endTimestamp: endTimestamp,\r\n            status: status\r\n        });\r\n\r\n        emit CloseHybrid(owner, endTimestamp, status);\r\n    }\r\n\r\n    function onCloseHybrid() external override {\r\n        address owner = _msgSender();\r\n\r\n        Structs.CloseHybrid memory request = _closeHybrid[owner];\r\n\r\n        require(request.endTimestamp < block.timestamp, \"Request Not Mature!\");\r\n        require(\r\n            request.status == Structs.Status.PENDING,\r\n            \"Request Not Pending!\"\r\n        );\r\n\r\n        delete _signers[owner];\r\n        delete _closeHybrid[owner];\r\n\r\n        emit WalletUnBind(owner);\r\n    }\r\n\r\n    // ============================= //\r\n    // APPROVAL FUNCTIONS            //\r\n    // ============================= //\r\n\r\n    function onRequestAprroval(\r\n        address owner,\r\n        address spender,\r\n        uint256 value\r\n    ) external override returns (bytes32) {\r\n        address assetId = _msgSender();\r\n\r\n        Structs.Approval memory approval = Structs.Approval({\r\n            sequence: _sequence,\r\n            assetId: assetId,\r\n            owner: owner,\r\n            spender: spender,\r\n            value: value,\r\n            status: Structs.Status.PENDING\r\n        });\r\n\r\n        bytes32 approvalId = _getHashForApproval(approval);\r\n\r\n        emit ApprovalRequested(approvalId, assetId, owner, spender, value);\r\n\r\n        _approvals[approvalId] = approval;\r\n        _sequence++;\r\n\r\n        return approvalId;\r\n    }\r\n\r\n    function onValidApproval(\r\n        bytes32 messageHash,\r\n        uint8 v,\r\n        bytes32 r,\r\n        bytes32 s,\r\n        bytes32 approvalId\r\n    )\r\n        external\r\n        override\r\n        onlyUnusedSignedHash(messageHash)\r\n        returns (address spender, uint256 value)\r\n    {\r\n        Structs.Approval storage approval = _approvals[approvalId];\r\n\r\n        address assetId = _msgSender();\r\n\r\n        if (approval.assetId != assetId) {\r\n            revert InvalidCaller(assetId);\r\n        }\r\n\r\n        if (approval.status != Structs.Status.PENDING) {\r\n            revert InvalidStatus(approvalId);\r\n        }\r\n\r\n        address extractedSigner = _verifyHash(messageHash, v, r, s);\r\n\r\n        if (extractedSigner != signerOf(approval.owner)) {\r\n            revert InvalidSigner(extractedSigner);\r\n        }\r\n\r\n        _usedSignedHash[messageHash] = true;\r\n\r\n        approval.status = Structs.Status.ACCEPTED;\r\n\r\n        emit ApprovalResult(approvalId, Structs.Status.ACCEPTED);\r\n\r\n        return (approval.spender, approval.value);\r\n    }\r\n\r\n    function onRejectAprroval(bytes32 approvalId) external override {\r\n        Structs.Approval storage approval = _approvals[approvalId];\r\n\r\n        if (approval.assetId != _msgSender()) {\r\n            revert InvalidCaller(_msgSender());\r\n        }\r\n\r\n        if (approval.status != Structs.Status.PENDING) {\r\n            revert InvalidStatus(approvalId);\r\n        }\r\n\r\n        approval.status = Structs.Status.REJECTED;\r\n\r\n        emit ApprovalResult(approvalId, Structs.Status.REJECTED);\r\n    }\r\n\r\n    // ============================= //\r\n    // UP/DOWN GRADE FUNCTIONS       //\r\n    // ============================= //\r\n\r\n    function onUpgradeAsset(address owner) external override {\r\n        address assetId = _msgSender();\r\n        address signer = _signers[owner];\r\n\r\n        if (signer == address(0)) {\r\n            revert ZeroAddress(signer);\r\n        }\r\n\r\n        _isAssetUpgraded[assetId][owner] = true;\r\n\r\n        emit AssetUpgraded(assetId, owner);\r\n    }\r\n\r\n    function onDowngradeAsset(\r\n        bytes32 messageHash,\r\n        uint8 v,\r\n        bytes32 r,\r\n        bytes32 s,\r\n        address owner\r\n    ) external override onlyUnusedSignedHash(messageHash) {\r\n        address assetId = _msgSender();\r\n\r\n        address extractedSigner = _verifyHash(messageHash, v, r, s);\r\n\r\n        if (extractedSigner != signerOf(owner)) {\r\n            revert InvalidSigner(extractedSigner);\r\n        }\r\n\r\n        _usedSignedHash[messageHash] = true;\r\n\r\n        _isAssetUpgraded[assetId][owner] = false;\r\n\r\n        emit AssetDowngraded(assetId, owner);\r\n    }\r\n\r\n    function isUpgraded(\r\n        address assetId,\r\n        address owner\r\n    ) external view override returns (bool) {\r\n        address signer = _signers[owner];\r\n\r\n        return (signer != address(0)) && (_isAssetUpgraded[assetId][owner]);\r\n    }\r\n\r\n    // ============================= //\r\n    // WALLET BINDING FUNCTIONS      //\r\n    // ============================= //\r\n\r\n    function onWalletBind(address signer) external override {\r\n        address owner = _msgSender();\r\n        address previousSigner = _signers[owner];\r\n\r\n        if (previousSigner != address(0)) {\r\n            revert WalletBinded(previousSigner);\r\n        }\r\n\r\n        if (signer == address(0)) {\r\n            revert ZeroAddress(signer);\r\n        }\r\n\r\n        _signers[owner] = signer;\r\n\r\n        emit WalletBind(owner, signer);\r\n    }\r\n\r\n    function onWalletUnBind(\r\n        bytes32 messageHash,\r\n        uint8 v,\r\n        bytes32 r,\r\n        bytes32 s\r\n    ) external override onlyUnusedSignedHash(messageHash) {\r\n        address owner = _msgSender();\r\n\r\n        address extractedSigner = _verifyHash(messageHash, v, r, s);\r\n\r\n        if (extractedSigner != signerOf(owner)) {\r\n            revert InvalidSigner(extractedSigner);\r\n        }\r\n\r\n        _usedSignedHash[messageHash] = true;\r\n        _signers[owner] = address(0);\r\n\r\n        emit WalletUnBind(owner);\r\n    }\r\n\r\n    function signerOf(address owner) public view override returns (address) {\r\n        return _signers[owner];\r\n    }\r\n\r\n    // ============================= //\r\n    // INTERNAL FUNCTIONS            //\r\n    // ============================= //\r\n\r\n    function _getHashForApproval(\r\n        Structs.Approval memory approval\r\n    ) internal pure returns (bytes32) {\r\n        return\r\n            keccak256(\r\n                abi.encode(\r\n                    LEAF_DOMAIN_SEPARATOR,\r\n                    approval.assetId,\r\n                    approval.owner,\r\n                    approval.spender,\r\n                    approval.value,\r\n                    approval.sequence\r\n                )\r\n            );\r\n    }\r\n\r\n    function _verifyHash(\r\n        bytes32 messageHash,\r\n        uint8 v,\r\n        bytes32 r,\r\n        bytes32 s\r\n    ) internal pure returns (address) {\r\n        // Concatenate the message hash with the Ethereum prefix \"\\x19Ethereum Signed Message:\\n32\"\r\n        bytes32 prefixedHash = keccak256(\r\n            abi.encodePacked(\"\\x19Ethereum Signed Message:\\n32\", messageHash)\r\n        );\r\n\r\n        // Recover the address from the signature\r\n        address recoveredAddress = ecrecover(prefixedHash, v, r, s);\r\n\r\n        // Check if the recovered address matches the expected signer\r\n        return recoveredAddress;\r\n    }\r\n\r\n    // ============================= //\r\n    // MODIFIERS                     //\r\n    // ============================= //\r\n\r\n    modifier onlyUnusedSignedHash(bytes32 hash) {\r\n        require(!_usedSignedHash[hash], \"SIGNED HASH USED\");\r\n        _;\r\n    }\r\n}\r\n",
  "sourcePath": "C:\\Users\\DELL\\Documents\\hybrid.bnb.hack\\hybrid-token\\contracts\\Hybrid.sol",
  "compiler": {
    "name": "solc",
    "version": "0.8.20+commit.a1b79de6.Emscripten.clang"
  },
  "schemaVersion": "3.4.11",
  "updatedAt": "2024-02-19T14:01:00.635Z",
  "networkType": "ethereum",
  "devdoc": {
    "kind": "dev",
    "methods": {},
    "version": 1
  },
  "userdoc": {
    "kind": "user",
    "methods": {},
    "version": 1
  }
}