{
  "contractName": "SimpleSwap",
  "abi": [
    {
      "inputs": [
        {
          "internalType": "address",
          "name": "wrappedBnb_",
          "type": "address"
        }
      ],
      "stateMutability": "nonpayable",
      "type": "constructor"
    },
    {
      "inputs": [
        {
          "internalType": "uint256",
          "name": "amount",
          "type": "uint256"
        }
      ],
      "name": "InvalidAmount",
      "type": "error"
    },
    {
      "stateMutability": "payable",
      "type": "receive",
      "payable": true
    },
    {
      "inputs": [],
      "name": "buy",
      "outputs": [],
      "stateMutability": "payable",
      "type": "function",
      "payable": true
    },
    {
      "inputs": [
        {
          "internalType": "uint256",
          "name": "amount",
          "type": "uint256"
        }
      ],
      "name": "sell",
      "outputs": [],
      "stateMutability": "nonpayable",
      "type": "function"
    }
  ],
  "bytecode": "0x6080604052620f42405f55348015610015575f80fd5b506040516106e93803806106e98339818101604052810190610037919061015c565b8060015f6101000a81548173ffffffffffffffffffffffffffffffffffffffff021916908373ffffffffffffffffffffffffffffffffffffffff1602179055505f60015f9054906101000a900473ffffffffffffffffffffffffffffffffffffffff1690508073ffffffffffffffffffffffffffffffffffffffff16635b48684e6040518163ffffffff1660e01b81526004015f604051808303815f87803b1580156100e1575f80fd5b505af11580156100f3573d5f803e3d5ffd5b505050505050610187565b5f80fd5b5f73ffffffffffffffffffffffffffffffffffffffff82169050919050565b5f61012b82610102565b9050919050565b61013b81610121565b8114610145575f80fd5b50565b5f8151905061015681610132565b92915050565b5f60208284031215610171576101706100fe565b5b5f61017e84828501610148565b91505092915050565b610555806101945f395ff3fe60806040526004361061002c575f3560e01c8063a6f2ae3a14610037578063e4849b321461004157610033565b3661003357005b5f80fd5b61003f610069565b005b34801561004c575f80fd5b5061006760048036038101906100629190610306565b61016e565b005b5f6100726102c8565b90505f34036100b857346040517f3728b83d0000000000000000000000000000000000000000000000000000000081526004016100af9190610340565b60405180910390fd5b5f8054346100c69190610386565b90505f60015f9054906101000a900473ffffffffffffffffffffffffffffffffffffffff1690508073ffffffffffffffffffffffffffffffffffffffff1663a9059cbb84846040518363ffffffff1660e01b8152600401610128929190610406565b6020604051808303815f875af1158015610144573d5f803e3d5ffd5b505050506040513d601f19601f820116820180604052508101906101689190610462565b50505050565b5f6101776102c8565b905060015f546101879190610386565b8210156101cb57816040517f3728b83d0000000000000000000000000000000000000000000000000000000081526004016101c29190610340565b60405180910390fd5b5f8054836101d991906104ba565b90505f60015f9054906101000a900473ffffffffffffffffffffffffffffffffffffffff1690508073ffffffffffffffffffffffffffffffffffffffff166323b872dd8430876040518463ffffffff1660e01b815260040161023d939291906104ea565b6020604051808303815f875af1158015610259573d5f803e3d5ffd5b505050506040513d601f19601f8201168201806040525081019061027d9190610462565b508273ffffffffffffffffffffffffffffffffffffffff166108fc8390811502906040515f60405180830381858888f193505050501580156102c1573d5f803e3d5ffd5b5050505050565b5f33905090565b5f80fd5b5f819050919050565b6102e5816102d3565b81146102ef575f80fd5b50565b5f81359050610300816102dc565b92915050565b5f6020828403121561031b5761031a6102cf565b5b5f610328848285016102f2565b91505092915050565b61033a816102d3565b82525050565b5f6020820190506103535f830184610331565b92915050565b7f4e487b71000000000000000000000000000000000000000000000000000000005f52601160045260245ffd5b5f610390826102d3565b915061039b836102d3565b92508282026103a9816102d3565b915082820484148315176103c0576103bf610359565b5b5092915050565b5f73ffffffffffffffffffffffffffffffffffffffff82169050919050565b5f6103f0826103c7565b9050919050565b610400816103e6565b82525050565b5f6040820190506104195f8301856103f7565b6104266020830184610331565b9392505050565b5f8115159050919050565b6104418161042d565b811461044b575f80fd5b50565b5f8151905061045c81610438565b92915050565b5f60208284031215610477576104766102cf565b5b5f6104848482850161044e565b91505092915050565b7f4e487b71000000000000000000000000000000000000000000000000000000005f52601260045260245ffd5b5f6104c4826102d3565b91506104cf836102d3565b9250826104df576104de61048d565b5b828204905092915050565b5f6060820190506104fd5f8301866103f7565b61050a60208301856103f7565b6105176040830184610331565b94935050505056fea2646970667358221220d086c3b8cd2d96109d10770f935a69873cb3c3027279ed7cd2baf153cb80521d64736f6c63430008140033",
  "immutableReferences": {},
  "source": "// SPDX-License-Identifier: MIT\r\npragma solidity ^0.8.20;\r\n\r\nimport {HybridToken} from \"../HybridToken.sol\";\r\nimport {Context} from \"@openzeppelin/contracts/utils/Context.sol\";\r\n\r\ncontract SimpleSwap is Context {\r\n    uint256 private _rate = 1_000_000;\r\n    error InvalidAmount(uint256 amount);\r\n\r\n    address private wrappedBnb;\r\n\r\n    constructor(address wrappedBnb_) {\r\n        wrappedBnb = wrappedBnb_;\r\n\r\n        HybridToken token = HybridToken(wrappedBnb);\r\n        token.optIn();\r\n    }\r\n\r\n    receive() external payable {}\r\n\r\n    function buy() external payable {\r\n        address owner = _msgSender();\r\n\r\n        if (msg.value == 0) {\r\n            revert InvalidAmount(msg.value);\r\n        }\r\n\r\n        uint256 amountOut = (msg.value * _rate);\r\n\r\n        HybridToken token = HybridToken(wrappedBnb);\r\n        token.transfer(owner, amountOut);\r\n    }\r\n\r\n    function sell(uint256 amount) external {\r\n        address owner = _msgSender();\r\n\r\n        if (amount < (_rate * 1)) {\r\n            revert InvalidAmount(amount);\r\n        }\r\n\r\n        uint256 amountOut = (amount / _rate);\r\n\r\n        HybridToken token = HybridToken(wrappedBnb);\r\n        token.transferFrom(owner, address(this), amount);\r\n\r\n        payable(owner).transfer(amountOut);\r\n    }\r\n}\r\n",
  "sourcePath": "C:\\Users\\DELL\\Documents\\hybrid.bnb.hack\\hybrid-token\\contracts\\usecases\\SimpleSwap.sol",
  "compiler": {
    "name": "solc",
    "version": "0.8.20+commit.a1b79de6.Emscripten.clang"
  },
  "schemaVersion": "3.4.11",
  "updatedAt": "2024-03-04T15:24:05.932Z",
  "networkType": "ethereum",
  "devdoc": {
    "kind": "dev",
    "methods": {},
    "version": 1
  },
  "userdoc": {
    "kind": "user",
    "methods": {},
    "version": 1
  }
}