{
  "contractName": "SimpleSwap",
  "abi": [
    {
      "inputs": [
        {
          "internalType": "address",
          "name": "wrappedBnb_",
          "type": "address"
        }
      ],
      "stateMutability": "nonpayable",
      "type": "constructor"
    },
    {
      "inputs": [
        {
          "internalType": "uint256",
          "name": "amount",
          "type": "uint256"
        }
      ],
      "name": "InvalidAmount",
      "type": "error"
    },
    {
      "inputs": [],
      "name": "buy",
      "outputs": [],
      "stateMutability": "payable",
      "type": "function"
    },
    {
      "inputs": [
        {
          "internalType": "uint256",
          "name": "amount",
          "type": "uint256"
        }
      ],
      "name": "sell",
      "outputs": [],
      "stateMutability": "nonpayable",
      "type": "function"
    }
  ],
  "bytecode": "0x608060405234801561000f575f80fd5b50604051610653380380610653833981810160405281019061003191906100d4565b805f806101000a81548173ffffffffffffffffffffffffffffffffffffffff021916908373ffffffffffffffffffffffffffffffffffffffff160217905550506100ff565b5f80fd5b5f73ffffffffffffffffffffffffffffffffffffffff82169050919050565b5f6100a38261007a565b9050919050565b6100b381610099565b81146100bd575f80fd5b50565b5f815190506100ce816100aa565b92915050565b5f602082840312156100e9576100e8610076565b5b5f6100f6848285016100c0565b91505092915050565b6105478061010c5f395ff3fe608060405260043610610028575f3560e01c8063a6f2ae3a1461002c578063e4849b3214610036575b5f80fd5b61003461005e565b005b348015610041575f80fd5b5061005c600480360381019061005791906102f8565b610169565b005b5f6100676102ba565b90505f3490505f81036100b157806040517f3728b83d0000000000000000000000000000000000000000000000000000000081526004016100a89190610332565b60405180910390fd5b5f620f4240826100c19190610378565b90505f805f9054906101000a900473ffffffffffffffffffffffffffffffffffffffff1690508073ffffffffffffffffffffffffffffffffffffffff1663a9059cbb85846040518363ffffffff1660e01b81526004016101229291906103f8565b6020604051808303815f875af115801561013e573d5f803e3d5ffd5b505050506040513d601f19601f820116820180604052508101906101629190610454565b5050505050565b5f6101726102ba565b9050620f42408210156101bc57816040517f3728b83d0000000000000000000000000000000000000000000000000000000081526004016101b39190610332565b60405180910390fd5b5f620f4240836101cc91906104ac565b90505f805f9054906101000a900473ffffffffffffffffffffffffffffffffffffffff1690508073ffffffffffffffffffffffffffffffffffffffff166323b872dd8430856040518463ffffffff1660e01b815260040161022f939291906104dc565b6020604051808303815f875af115801561024b573d5f803e3d5ffd5b505050506040513d601f19601f8201168201806040525081019061026f9190610454565b508273ffffffffffffffffffffffffffffffffffffffff166108fc8390811502906040515f60405180830381858888f193505050501580156102b3573d5f803e3d5ffd5b5050505050565b5f33905090565b5f80fd5b5f819050919050565b6102d7816102c5565b81146102e1575f80fd5b50565b5f813590506102f2816102ce565b92915050565b5f6020828403121561030d5761030c6102c1565b5b5f61031a848285016102e4565b91505092915050565b61032c816102c5565b82525050565b5f6020820190506103455f830184610323565b92915050565b7f4e487b71000000000000000000000000000000000000000000000000000000005f52601160045260245ffd5b5f610382826102c5565b915061038d836102c5565b925082820261039b816102c5565b915082820484148315176103b2576103b161034b565b5b5092915050565b5f73ffffffffffffffffffffffffffffffffffffffff82169050919050565b5f6103e2826103b9565b9050919050565b6103f2816103d8565b82525050565b5f60408201905061040b5f8301856103e9565b6104186020830184610323565b9392505050565b5f8115159050919050565b6104338161041f565b811461043d575f80fd5b50565b5f8151905061044e8161042a565b92915050565b5f60208284031215610469576104686102c1565b5b5f61047684828501610440565b91505092915050565b7f4e487b71000000000000000000000000000000000000000000000000000000005f52601260045260245ffd5b5f6104b6826102c5565b91506104c1836102c5565b9250826104d1576104d061047f565b5b828204905092915050565b5f6060820190506104ef5f8301866103e9565b6104fc60208301856103e9565b6105096040830184610323565b94935050505056fea26469706673582212203992f9d9b985a8e87671ead5167483fd655d795418c2e96d396be73a56885fc664736f6c63430008140033",
  "immutableReferences": {},
  "source": "// SPDX-License-Identifier: MIT\r\npragma solidity ^0.8.20;\r\n\r\nimport {Context} from \"@openzeppelin/contracts/utils/Context.sol\";\r\nimport {IERC20} from \"@openzeppelin/contracts/token/ERC20/IERC20.sol\";\r\n\r\ncontract SimpleSwap is Context {\r\n    error InvalidAmount(uint256 amount);\r\n\r\n    address private wrappedBnb;\r\n\r\n    constructor(address wrappedBnb_) {\r\n        wrappedBnb = wrappedBnb_;\r\n    }\r\n\r\n    function buy() external payable {\r\n        address owner = _msgSender();\r\n        uint256 amount = msg.value;\r\n\r\n        if (amount == 0) {\r\n            revert InvalidAmount(amount);\r\n        }\r\n\r\n        uint256 amountOut = (amount * 1_000_000);\r\n\r\n        IERC20 token = IERC20(wrappedBnb);\r\n        token.transfer(owner, amountOut);\r\n    }\r\n\r\n    function sell(uint256 amount) external {\r\n        address owner = _msgSender();\r\n\r\n        if (amount < 1_000_000) {\r\n            revert InvalidAmount(amount);\r\n        }\r\n\r\n        uint256 amountOut = (amount / 1_000_000);\r\n\r\n        IERC20 token = IERC20(wrappedBnb);\r\n        token.transferFrom(owner, address(this), amountOut);\r\n\r\n        payable(owner).transfer(amountOut);\r\n    }\r\n}",
  "sourcePath": "C:\\Users\\DELL\\Documents\\hybrid.bnb.hack\\hybrid-token\\contracts\\usecases\\SimpleSwap.sol",
  "compiler": {
    "name": "solc",
    "version": "0.8.20+commit.a1b79de6.Emscripten.clang"
  },
  "schemaVersion": "3.4.11",
  "updatedAt": "2024-02-12T17:43:39.862Z",
  "devdoc": {
    "kind": "dev",
    "methods": {},
    "version": 1
  },
  "userdoc": {
    "kind": "user",
    "methods": {},
    "version": 1
  }
}