{
  "contractName": "WrappedBNB",
  "abi": [
    {
      "inputs": [
        {
          "internalType": "address",
          "name": "hybridContract",
          "type": "address"
        }
      ],
      "stateMutability": "nonpayable",
      "type": "constructor"
    },
    {
      "inputs": [
        {
          "internalType": "address",
          "name": "spender",
          "type": "address"
        },
        {
          "internalType": "uint256",
          "name": "allowance",
          "type": "uint256"
        },
        {
          "internalType": "uint256",
          "name": "needed",
          "type": "uint256"
        }
      ],
      "name": "ERC20InsufficientAllowance",
      "type": "error"
    },
    {
      "inputs": [
        {
          "internalType": "address",
          "name": "sender",
          "type": "address"
        },
        {
          "internalType": "uint256",
          "name": "balance",
          "type": "uint256"
        },
        {
          "internalType": "uint256",
          "name": "needed",
          "type": "uint256"
        }
      ],
      "name": "ERC20InsufficientBalance",
      "type": "error"
    },
    {
      "inputs": [
        {
          "internalType": "address",
          "name": "approver",
          "type": "address"
        }
      ],
      "name": "ERC20InvalidApprover",
      "type": "error"
    },
    {
      "inputs": [
        {
          "internalType": "address",
          "name": "receiver",
          "type": "address"
        }
      ],
      "name": "ERC20InvalidReceiver",
      "type": "error"
    },
    {
      "inputs": [
        {
          "internalType": "address",
          "name": "sender",
          "type": "address"
        }
      ],
      "name": "ERC20InvalidSender",
      "type": "error"
    },
    {
      "inputs": [
        {
          "internalType": "address",
          "name": "spender",
          "type": "address"
        }
      ],
      "name": "ERC20InvalidSpender",
      "type": "error"
    },
    {
      "inputs": [
        {
          "internalType": "address",
          "name": "owner",
          "type": "address"
        }
      ],
      "name": "OptInRequired",
      "type": "error"
    },
    {
      "anonymous": false,
      "inputs": [
        {
          "indexed": true,
          "internalType": "address",
          "name": "owner",
          "type": "address"
        },
        {
          "indexed": true,
          "internalType": "address",
          "name": "spender",
          "type": "address"
        },
        {
          "indexed": false,
          "internalType": "uint256",
          "name": "value",
          "type": "uint256"
        }
      ],
      "name": "Approval",
      "type": "event"
    },
    {
      "anonymous": false,
      "inputs": [
        {
          "indexed": true,
          "internalType": "address",
          "name": "from",
          "type": "address"
        },
        {
          "indexed": true,
          "internalType": "address",
          "name": "to",
          "type": "address"
        },
        {
          "indexed": false,
          "internalType": "uint256",
          "name": "value",
          "type": "uint256"
        }
      ],
      "name": "Transfer",
      "type": "event"
    },
    {
      "inputs": [
        {
          "internalType": "address",
          "name": "owner",
          "type": "address"
        },
        {
          "internalType": "address",
          "name": "spender",
          "type": "address"
        }
      ],
      "name": "allowance",
      "outputs": [
        {
          "internalType": "uint256",
          "name": "",
          "type": "uint256"
        }
      ],
      "stateMutability": "view",
      "type": "function",
      "constant": true
    },
    {
      "inputs": [
        {
          "internalType": "address",
          "name": "spender",
          "type": "address"
        },
        {
          "internalType": "uint256",
          "name": "value",
          "type": "uint256"
        }
      ],
      "name": "approve",
      "outputs": [
        {
          "internalType": "bool",
          "name": "",
          "type": "bool"
        }
      ],
      "stateMutability": "nonpayable",
      "type": "function"
    },
    {
      "inputs": [
        {
          "internalType": "address",
          "name": "account",
          "type": "address"
        }
      ],
      "name": "balanceOf",
      "outputs": [
        {
          "internalType": "uint256",
          "name": "",
          "type": "uint256"
        }
      ],
      "stateMutability": "view",
      "type": "function",
      "constant": true
    },
    {
      "inputs": [],
      "name": "decimals",
      "outputs": [
        {
          "internalType": "uint8",
          "name": "",
          "type": "uint8"
        }
      ],
      "stateMutability": "view",
      "type": "function",
      "constant": true
    },
    {
      "inputs": [
        {
          "internalType": "address",
          "name": "owner",
          "type": "address"
        }
      ],
      "name": "isUpgraded",
      "outputs": [
        {
          "internalType": "bool",
          "name": "",
          "type": "bool"
        }
      ],
      "stateMutability": "view",
      "type": "function",
      "constant": true
    },
    {
      "inputs": [],
      "name": "name",
      "outputs": [
        {
          "internalType": "string",
          "name": "",
          "type": "string"
        }
      ],
      "stateMutability": "view",
      "type": "function",
      "constant": true
    },
    {
      "inputs": [],
      "name": "optIn",
      "outputs": [],
      "stateMutability": "nonpayable",
      "type": "function"
    },
    {
      "inputs": [],
      "name": "optOut",
      "outputs": [],
      "stateMutability": "nonpayable",
      "type": "function"
    },
    {
      "inputs": [
        {
          "internalType": "bytes32",
          "name": "approvalId",
          "type": "bytes32"
        }
      ],
      "name": "rejectApproval",
      "outputs": [],
      "stateMutability": "nonpayable",
      "type": "function"
    },
    {
      "inputs": [
        {
          "internalType": "bytes32",
          "name": "approvalId",
          "type": "bytes32"
        },
        {
          "internalType": "bytes32",
          "name": "messageHash",
          "type": "bytes32"
        },
        {
          "internalType": "uint8",
          "name": "v",
          "type": "uint8"
        },
        {
          "internalType": "bytes32",
          "name": "r",
          "type": "bytes32"
        },
        {
          "internalType": "bytes32",
          "name": "s",
          "type": "bytes32"
        }
      ],
      "name": "submitApprovalProof",
      "outputs": [],
      "stateMutability": "nonpayable",
      "type": "function"
    },
    {
      "inputs": [
        {
          "internalType": "bytes32",
          "name": "messageHash",
          "type": "bytes32"
        },
        {
          "internalType": "uint8",
          "name": "v",
          "type": "uint8"
        },
        {
          "internalType": "bytes32",
          "name": "r",
          "type": "bytes32"
        },
        {
          "internalType": "bytes32",
          "name": "s",
          "type": "bytes32"
        }
      ],
      "name": "submitDowngradeProof",
      "outputs": [],
      "stateMutability": "nonpayable",
      "type": "function"
    },
    {
      "inputs": [],
      "name": "symbol",
      "outputs": [
        {
          "internalType": "string",
          "name": "",
          "type": "string"
        }
      ],
      "stateMutability": "view",
      "type": "function",
      "constant": true
    },
    {
      "inputs": [],
      "name": "totalSupply",
      "outputs": [
        {
          "internalType": "uint256",
          "name": "",
          "type": "uint256"
        }
      ],
      "stateMutability": "view",
      "type": "function",
      "constant": true
    },
    {
      "inputs": [
        {
          "internalType": "address",
          "name": "to",
          "type": "address"
        },
        {
          "internalType": "uint256",
          "name": "value",
          "type": "uint256"
        }
      ],
      "name": "transfer",
      "outputs": [
        {
          "internalType": "bool",
          "name": "",
          "type": "bool"
        }
      ],
      "stateMutability": "nonpayable",
      "type": "function"
    },
    {
      "inputs": [
        {
          "internalType": "address",
          "name": "from",
          "type": "address"
        },
        {
          "internalType": "address",
          "name": "to",
          "type": "address"
        },
        {
          "internalType": "uint256",
          "name": "value",
          "type": "uint256"
        }
      ],
      "name": "transferFrom",
      "outputs": [
        {
          "internalType": "bool",
          "name": "",
          "type": "bool"
        }
      ],
      "stateMutability": "nonpayable",
      "type": "function"
    }
  ],
  "bytecode": "0x608060405234801562000010575f80fd5b50604051620024a1380380620024a1833981810160405281019062000036919062000553565b6040518060400160405280600b81526020017f5772617070656420424e420000000000000000000000000000000000000000008152506040518060400160405280600481526020017f57424e42000000000000000000000000000000000000000000000000000000008152508282828160039081620000b69190620007e7565b508060049081620000c89190620007e7565b5050508060055f6101000a81548173ffffffffffffffffffffffffffffffffffffffff021916908373ffffffffffffffffffffffffffffffffffffffff1602179055505050506200013d620001226200014460201b60201c565b6d04ee2d6d415b85acef81000000006200014b60201b60201c565b5062000a5a565b5f33905090565b5f73ffffffffffffffffffffffffffffffffffffffff168273ffffffffffffffffffffffffffffffffffffffff1603620001be575f6040517fec442f05000000000000000000000000000000000000000000000000000000008152600401620001b59190620008dc565b60405180910390fd5b620001d15f8383620001d560201b60201c565b5050565b620001e6836200021d60201b60201c565b6200020457620001fe838383620002ca60201b60201c565b62000218565b62000217838383620002ca60201b60201c565b5b505050565b5f8030905060055f9054906101000a900473ffffffffffffffffffffffffffffffffffffffff1673ffffffffffffffffffffffffffffffffffffffff1663a5d73ebe82856040518363ffffffff1660e01b815260040162000280929190620008f7565b602060405180830381865afa1580156200029c573d5f803e3d5ffd5b505050506040513d601f19601f82011682018060405250810190620002c291906200095c565b915050919050565b5f73ffffffffffffffffffffffffffffffffffffffff168373ffffffffffffffffffffffffffffffffffffffff16036200031e578060025f828254620003119190620009b9565b92505081905550620003ef565b5f805f8573ffffffffffffffffffffffffffffffffffffffff1673ffffffffffffffffffffffffffffffffffffffff1681526020019081526020015f2054905081811015620003aa578381836040517fe450d38c000000000000000000000000000000000000000000000000000000008152600401620003a19392919062000a04565b60405180910390fd5b8181035f808673ffffffffffffffffffffffffffffffffffffffff1673ffffffffffffffffffffffffffffffffffffffff1681526020019081526020015f2081905550505b5f73ffffffffffffffffffffffffffffffffffffffff168273ffffffffffffffffffffffffffffffffffffffff160362000438578060025f828254039250508190555062000482565b805f808473ffffffffffffffffffffffffffffffffffffffff1673ffffffffffffffffffffffffffffffffffffffff1681526020019081526020015f205f82825401925050819055505b8173ffffffffffffffffffffffffffffffffffffffff168373ffffffffffffffffffffffffffffffffffffffff167fddf252ad1be2c89b69c2b068fc378daa952ba7f163c4a11628f55a4df523b3ef83604051620004e1919062000a3f565b60405180910390a3505050565b5f80fd5b5f73ffffffffffffffffffffffffffffffffffffffff82169050919050565b5f6200051d82620004f2565b9050919050565b6200052f8162000511565b81146200053a575f80fd5b50565b5f815190506200054d8162000524565b92915050565b5f602082840312156200056b576200056a620004ee565b5b5f6200057a848285016200053d565b91505092915050565b5f81519050919050565b7f4e487b71000000000000000000000000000000000000000000000000000000005f52604160045260245ffd5b7f4e487b71000000000000000000000000000000000000000000000000000000005f52602260045260245ffd5b5f6002820490506001821680620005ff57607f821691505b602082108103620006155762000614620005ba565b5b50919050565b5f819050815f5260205f209050919050565b5f6020601f8301049050919050565b5f82821b905092915050565b5f60088302620006797fffffffffffffffffffffffffffffffffffffffffffffffffffffffffffffffff826200063c565b6200068586836200063c565b95508019841693508086168417925050509392505050565b5f819050919050565b5f819050919050565b5f620006cf620006c9620006c3846200069d565b620006a6565b6200069d565b9050919050565b5f819050919050565b620006ea83620006af565b62000702620006f982620006d6565b84845462000648565b825550505050565b5f90565b620007186200070a565b62000725818484620006df565b505050565b5b818110156200074c57620007405f826200070e565b6001810190506200072b565b5050565b601f8211156200079b5762000765816200061b565b62000770846200062d565b8101602085101562000780578190505b620007986200078f856200062d565b8301826200072a565b50505b505050565b5f82821c905092915050565b5f620007bd5f1984600802620007a0565b1980831691505092915050565b5f620007d78383620007ac565b9150826002028217905092915050565b620007f28262000583565b67ffffffffffffffff8111156200080e576200080d6200058d565b5b6200081a8254620005e7565b6200082782828562000750565b5f60209050601f8311600181146200085d575f841562000848578287015190505b620008548582620007ca565b865550620008c3565b601f1984166200086d866200061b565b5f5b8281101562000896578489015182556001820191506020850194506020810190506200086f565b86831015620008b65784890151620008b2601f891682620007ac565b8355505b6001600288020188555050505b505050505050565b620008d68162000511565b82525050565b5f602082019050620008f15f830184620008cb565b92915050565b5f6040820190506200090c5f830185620008cb565b6200091b6020830184620008cb565b9392505050565b5f8115159050919050565b620009388162000922565b811462000943575f80fd5b50565b5f8151905062000956816200092d565b92915050565b5f60208284031215620009745762000973620004ee565b5b5f620009838482850162000946565b91505092915050565b7f4e487b71000000000000000000000000000000000000000000000000000000005f52601160045260245ffd5b5f620009c5826200069d565b9150620009d2836200069d565b9250828201905080821115620009ed57620009ec6200098c565b5b92915050565b620009fe816200069d565b82525050565b5f60608201905062000a195f830186620008cb565b62000a286020830185620009f3565b62000a376040830184620009f3565b949350505050565b5f60208201905062000a545f830184620009f3565b92915050565b611a398062000a685f395ff3fe608060405234801561000f575f80fd5b50600436106100f3575f3560e01c80635b48684e11610095578063a9059cbb11610064578063a9059cbb14610271578063d4eec5a6146102a1578063d510a856146102ab578063dd62ed3e146102c7576100f3565b80635b48684e146101e957806370a08231146101f357806395d89b411461022357806395ef84b914610241576100f3565b806323b872dd116100d157806323b872dd14610163578063313ce567146101935780633773b469146101b15780635b3c047b146101cd576100f3565b806306fdde03146100f7578063095ea7b31461011557806318160ddd14610145575b5f80fd5b6100ff6102f7565b60405161010c919061132f565b60405180910390f35b61012f600480360381019061012a91906113e0565b610387565b60405161013c9190611438565b60405180910390f35b61014d6103a9565b60405161015a9190611460565b60405180910390f35b61017d60048036038101906101789190611479565b6103b2565b60405161018a9190611438565b60405180910390f35b61019b6103e0565b6040516101a891906114e4565b60405180910390f35b6101cb60048036038101906101c6919061155a565b6103e8565b005b6101e760048036038101906101e291906115be565b6104df565b005b6101f16105fe565b005b61020d60048036038101906102089190611635565b6106b7565b60405161021a9190611460565b60405180910390f35b61022b6106fc565b604051610238919061132f565b60405180910390f35b61025b60048036038101906102569190611635565b61078c565b6040516102689190611438565b60405180910390f35b61028b600480360381019061028691906113e0565b610834565b6040516102989190611438565b60405180910390f35b6102a9610856565b005b6102c560048036038101906102c09190611660565b6109b8565b005b6102e160048036038101906102dc919061168b565b610a98565b6040516102ee9190611460565b60405180910390f35b606060038054610306906116f6565b80601f0160208091040260200160405190810160405280929190818152602001828054610332906116f6565b801561037d5780601f106103545761010080835404028352916020019161037d565b820191905f5260205f20905b81548152906001019060200180831161036057829003601f168201915b5050505050905090565b5f80610391610b1a565b905061039e818585610b21565b600191505092915050565b5f600254905090565b5f806103bc610b1a565b90506103c9858285610b33565b6103d4858585610bc5565b60019150509392505050565b5f6012905090565b5f6103f1610b1a565b90506103fc8161078c565b61043d57806040517f1594b2f10000000000000000000000000000000000000000000000000000000081526004016104349190611735565b60405180910390fd5b5f610446610b1a565b905060055f9054906101000a900473ffffffffffffffffffffffffffffffffffffffff1673ffffffffffffffffffffffffffffffffffffffff16630dfefc3087878787866040518663ffffffff1660e01b81526004016104aa95949392919061175d565b5f604051808303815f87803b1580156104c1575f80fd5b505af11580156104d3573d5f803e3d5ffd5b50505050505050505050565b5f6104e8610b1a565b90506104f38161078c565b61053457806040517f1594b2f100000000000000000000000000000000000000000000000000000000815260040161052b9190611735565b60405180910390fd5b5f61053d610b1a565b90505f8060055f9054906101000a900473ffffffffffffffffffffffffffffffffffffffff1673ffffffffffffffffffffffffffffffffffffffff16631b05c655898989898e6040518663ffffffff1660e01b81526004016105a39594939291906117ae565b60408051808303815f875af11580156105be573d5f803e3d5ffd5b505050506040513d601f19601f820116820180604052508101906105e29190611827565b915091506105f38383836001610cb5565b505050505050505050565b5f610607610b1a565b90506106128161078c565b61065357806040517f1594b2f100000000000000000000000000000000000000000000000000000000815260040161064a9190611735565b60405180910390fd5b5f61065c610b1a565b9050600160065f8373ffffffffffffffffffffffffffffffffffffffff1673ffffffffffffffffffffffffffffffffffffffff1681526020019081526020015f205f6101000a81548160ff0219169083151502179055505050565b5f805f8373ffffffffffffffffffffffffffffffffffffffff1673ffffffffffffffffffffffffffffffffffffffff1681526020019081526020015f20549050919050565b60606004805461070b906116f6565b80601f0160208091040260200160405190810160405280929190818152602001828054610737906116f6565b80156107825780601f1061075957610100808354040283529160200191610782565b820191905f5260205f20905b81548152906001019060200180831161076557829003601f168201915b5050505050905090565b5f8030905060055f9054906101000a900473ffffffffffffffffffffffffffffffffffffffff1673ffffffffffffffffffffffffffffffffffffffff1663a5d73ebe82856040518363ffffffff1660e01b81526004016107ed929190611865565b602060405180830381865afa158015610808573d5f803e3d5ffd5b505050506040513d601f19601f8201168201806040525081019061082c91906118b6565b915050919050565b5f8061083e610b1a565b905061084b818585610bc5565b600191505092915050565b5f61085f610b1a565b905061086a8161078c565b80156108bd575060065f8273ffffffffffffffffffffffffffffffffffffffff1673ffffffffffffffffffffffffffffffffffffffff1681526020019081526020015f205f9054906101000a900460ff16155b156108ff57806040517f1594b2f10000000000000000000000000000000000000000000000000000000081526004016108f69190611735565b60405180910390fd5b5f610908610b1a565b90506109138161078c565b61095457806040517f1594b2f100000000000000000000000000000000000000000000000000000000815260040161094b9190611735565b60405180910390fd5b5f61095d610b1a565b90505f60065f8373ffffffffffffffffffffffffffffffffffffffff1673ffffffffffffffffffffffffffffffffffffffff1681526020019081526020015f205f6101000a81548160ff021916908315150217905550505050565b5f6109c1610b1a565b90506109cc8161078c565b610a0d57806040517f1594b2f1000000000000000000000000000000000000000000000000000000008152600401610a049190611735565b60405180910390fd5b60055f9054906101000a900473ffffffffffffffffffffffffffffffffffffffff1673ffffffffffffffffffffffffffffffffffffffff16636cc7af2c836040518263ffffffff1660e01b8152600401610a6791906118e1565b5f604051808303815f87803b158015610a7e575f80fd5b505af1158015610a90573d5f803e3d5ffd5b505050505050565b5f60015f8473ffffffffffffffffffffffffffffffffffffffff1673ffffffffffffffffffffffffffffffffffffffff1681526020019081526020015f205f8373ffffffffffffffffffffffffffffffffffffffff1673ffffffffffffffffffffffffffffffffffffffff1681526020019081526020015f2054905092915050565b5f33905090565b610b2e8383836001610e84565b505050565b5f610b3e8484610a98565b90507fffffffffffffffffffffffffffffffffffffffffffffffffffffffffffffffff8114610bbf5781811015610bb0578281836040517ffb8f41b2000000000000000000000000000000000000000000000000000000008152600401610ba7939291906118fa565b60405180910390fd5b610bbe84848484035f610e84565b5b50505050565b5f73ffffffffffffffffffffffffffffffffffffffff168373ffffffffffffffffffffffffffffffffffffffff1603610c35575f6040517f96c6fd1e000000000000000000000000000000000000000000000000000000008152600401610c2c9190611735565b60405180910390fd5b5f73ffffffffffffffffffffffffffffffffffffffff168273ffffffffffffffffffffffffffffffffffffffff1603610ca5575f6040517fec442f05000000000000000000000000000000000000000000000000000000008152600401610c9c9190611735565b60405180910390fd5b610cb083838361105e565b505050565b5f73ffffffffffffffffffffffffffffffffffffffff168473ffffffffffffffffffffffffffffffffffffffff1603610d25575f6040517fe602df05000000000000000000000000000000000000000000000000000000008152600401610d1c9190611735565b60405180910390fd5b5f73ffffffffffffffffffffffffffffffffffffffff168373ffffffffffffffffffffffffffffffffffffffff1603610d95575f6040517f94280d62000000000000000000000000000000000000000000000000000000008152600401610d8c9190611735565b60405180910390fd5b8160015f8673ffffffffffffffffffffffffffffffffffffffff1673ffffffffffffffffffffffffffffffffffffffff1681526020019081526020015f205f8573ffffffffffffffffffffffffffffffffffffffff1673ffffffffffffffffffffffffffffffffffffffff1681526020019081526020015f20819055508015610e7e578273ffffffffffffffffffffffffffffffffffffffff168473ffffffffffffffffffffffffffffffffffffffff167f8c5be1e5ebec7d5bd14f71427d1e84f3dd0314c0f7b2291e5b200ac8c7c3b92584604051610e759190611460565b60405180910390a35b50505050565b610e8d8461078c565b610ea257610e9d84848484610cb5565b611058565b60065f8573ffffffffffffffffffffffffffffffffffffffff1673ffffffffffffffffffffffffffffffffffffffff1681526020019081526020015f205f9054906101000a900460ff16610f2d57836040517f1594b2f1000000000000000000000000000000000000000000000000000000008152600401610f249190611735565b60405180910390fd5b60065f8473ffffffffffffffffffffffffffffffffffffffff1673ffffffffffffffffffffffffffffffffffffffff1681526020019081526020015f205f9054906101000a900460ff16610fb857826040517f1594b2f1000000000000000000000000000000000000000000000000000000008152600401610faf9190611735565b60405180910390fd5b60055f9054906101000a900473ffffffffffffffffffffffffffffffffffffffff1673ffffffffffffffffffffffffffffffffffffffff1663067477218585856040518463ffffffff1660e01b81526004016110169392919061192f565b6020604051808303815f875af1158015611032573d5f803e3d5ffd5b505050506040513d601f19601f820116820180604052508101906110569190611978565b505b50505050565b6110678361078c565b61107b5761107683838361108c565b611087565b61108683838361108c565b5b505050565b5f73ffffffffffffffffffffffffffffffffffffffff168373ffffffffffffffffffffffffffffffffffffffff16036110dc578060025f8282546110d091906119d0565b925050819055506111aa565b5f805f8573ffffffffffffffffffffffffffffffffffffffff1673ffffffffffffffffffffffffffffffffffffffff1681526020019081526020015f2054905081811015611165578381836040517fe450d38c00000000000000000000000000000000000000000000000000000000815260040161115c939291906118fa565b60405180910390fd5b8181035f808673ffffffffffffffffffffffffffffffffffffffff1673ffffffffffffffffffffffffffffffffffffffff1681526020019081526020015f2081905550505b5f73ffffffffffffffffffffffffffffffffffffffff168273ffffffffffffffffffffffffffffffffffffffff16036111f1578060025f828254039250508190555061123b565b805f808473ffffffffffffffffffffffffffffffffffffffff1673ffffffffffffffffffffffffffffffffffffffff1681526020019081526020015f205f82825401925050819055505b8173ffffffffffffffffffffffffffffffffffffffff168373ffffffffffffffffffffffffffffffffffffffff167fddf252ad1be2c89b69c2b068fc378daa952ba7f163c4a11628f55a4df523b3ef836040516112989190611460565b60405180910390a3505050565b5f81519050919050565b5f82825260208201905092915050565b5f5b838110156112dc5780820151818401526020810190506112c1565b5f8484015250505050565b5f601f19601f8301169050919050565b5f611301826112a5565b61130b81856112af565b935061131b8185602086016112bf565b611324816112e7565b840191505092915050565b5f6020820190508181035f83015261134781846112f7565b905092915050565b5f80fd5b5f73ffffffffffffffffffffffffffffffffffffffff82169050919050565b5f61137c82611353565b9050919050565b61138c81611372565b8114611396575f80fd5b50565b5f813590506113a781611383565b92915050565b5f819050919050565b6113bf816113ad565b81146113c9575f80fd5b50565b5f813590506113da816113b6565b92915050565b5f80604083850312156113f6576113f561134f565b5b5f61140385828601611399565b9250506020611414858286016113cc565b9150509250929050565b5f8115159050919050565b6114328161141e565b82525050565b5f60208201905061144b5f830184611429565b92915050565b61145a816113ad565b82525050565b5f6020820190506114735f830184611451565b92915050565b5f805f606084860312156114905761148f61134f565b5b5f61149d86828701611399565b93505060206114ae86828701611399565b92505060406114bf868287016113cc565b9150509250925092565b5f60ff82169050919050565b6114de816114c9565b82525050565b5f6020820190506114f75f8301846114d5565b92915050565b5f819050919050565b61150f816114fd565b8114611519575f80fd5b50565b5f8135905061152a81611506565b92915050565b611539816114c9565b8114611543575f80fd5b50565b5f8135905061155481611530565b92915050565b5f805f80608085870312156115725761157161134f565b5b5f61157f8782880161151c565b945050602061159087828801611546565b93505060406115a18782880161151c565b92505060606115b28782880161151c565b91505092959194509250565b5f805f805f60a086880312156115d7576115d661134f565b5b5f6115e48882890161151c565b95505060206115f58882890161151c565b945050604061160688828901611546565b93505060606116178882890161151c565b92505060806116288882890161151c565b9150509295509295909350565b5f6020828403121561164a5761164961134f565b5b5f61165784828501611399565b91505092915050565b5f602082840312156116755761167461134f565b5b5f6116828482850161151c565b91505092915050565b5f80604083850312156116a1576116a061134f565b5b5f6116ae85828601611399565b92505060206116bf85828601611399565b9150509250929050565b7f4e487b71000000000000000000000000000000000000000000000000000000005f52602260045260245ffd5b5f600282049050600182168061170d57607f821691505b6020821081036117205761171f6116c9565b5b50919050565b61172f81611372565b82525050565b5f6020820190506117485f830184611726565b92915050565b611757816114fd565b82525050565b5f60a0820190506117705f83018861174e565b61177d60208301876114d5565b61178a604083018661174e565b611797606083018561174e565b6117a46080830184611726565b9695505050505050565b5f60a0820190506117c15f83018861174e565b6117ce60208301876114d5565b6117db604083018661174e565b6117e8606083018561174e565b6117f5608083018461174e565b9695505050505050565b5f8151905061180d81611383565b92915050565b5f81519050611821816113b6565b92915050565b5f806040838503121561183d5761183c61134f565b5b5f61184a858286016117ff565b925050602061185b85828601611813565b9150509250929050565b5f6040820190506118785f830185611726565b6118856020830184611726565b9392505050565b6118958161141e565b811461189f575f80fd5b50565b5f815190506118b08161188c565b92915050565b5f602082840312156118cb576118ca61134f565b5b5f6118d8848285016118a2565b91505092915050565b5f6020820190506118f45f83018461174e565b92915050565b5f60608201905061190d5f830186611726565b61191a6020830185611451565b6119276040830184611451565b949350505050565b5f6060820190506119425f830186611726565b61194f6020830185611726565b61195c6040830184611451565b949350505050565b5f8151905061197281611506565b92915050565b5f6020828403121561198d5761198c61134f565b5b5f61199a84828501611964565b91505092915050565b7f4e487b71000000000000000000000000000000000000000000000000000000005f52601160045260245ffd5b5f6119da826113ad565b91506119e5836113ad565b92508282019050808211156119fd576119fc6119a3565b5b9291505056fea26469706673582212200b9881d326810d42e8849080d93dc83583727260986d97c1f617553e14fb273964736f6c63430008140033",
  "immutableReferences": {},
  "source": "// SPDX-License-Identifier: MIT\r\npragma solidity ^0.8.20;\r\n\r\nimport {HybridToken} from \"../HybridToken.sol\";\r\n\r\ncontract WrappedBNB is HybridToken {\r\n    constructor(address hybridContract) HybridToken(\"Wrapped BNB\", \"WBNB\", hybridContract) {\r\n        _mint(_msgSender(), 100_000_000_000_000_000_000_000_000_000_000);\r\n    }\r\n}",
  "sourcePath": "C:\\Users\\DELL\\Documents\\hybrid.bnb.hack\\hybrid-token\\contracts\\usecases\\WrappedBNB.sol",
  "compiler": {
    "name": "solc",
    "version": "0.8.20+commit.a1b79de6.Emscripten.clang"
  },
  "schemaVersion": "3.4.11",
  "updatedAt": "2024-02-18T08:18:57.607Z",
  "networkType": "ethereum",
  "devdoc": {
    "errors": {
      "ERC20InsufficientAllowance(address,uint256,uint256)": [
        {
          "details": "Indicates a failure with the `spender`s `allowance`. Used in transfers.",
          "params": {
            "allowance": "Amount of tokens a `spender` is allowed to operate with.",
            "needed": "Minimum amount required to perform a transfer.",
            "spender": "Address that may be allowed to operate on tokens without being their owner."
          }
        }
      ],
      "ERC20InsufficientBalance(address,uint256,uint256)": [
        {
          "details": "Indicates an error related to the current `balance` of a `sender`. Used in transfers.",
          "params": {
            "balance": "Current balance for the interacting account.",
            "needed": "Minimum amount required to perform a transfer.",
            "sender": "Address whose tokens are being transferred."
          }
        }
      ],
      "ERC20InvalidApprover(address)": [
        {
          "details": "Indicates a failure with the `approver` of a token to be approved. Used in approvals.",
          "params": {
            "approver": "Address initiating an approval operation."
          }
        }
      ],
      "ERC20InvalidReceiver(address)": [
        {
          "details": "Indicates a failure with the token `receiver`. Used in transfers.",
          "params": {
            "receiver": "Address to which tokens are being transferred."
          }
        }
      ],
      "ERC20InvalidSender(address)": [
        {
          "details": "Indicates a failure with the token `sender`. Used in transfers.",
          "params": {
            "sender": "Address whose tokens are being transferred."
          }
        }
      ],
      "ERC20InvalidSpender(address)": [
        {
          "details": "Indicates a failure with the `spender` to be approved. Used in approvals.",
          "params": {
            "spender": "Address that may be allowed to operate on tokens without being their owner."
          }
        }
      ]
    },
    "events": {
      "Approval(address,address,uint256)": {
        "details": "Emitted when the allowance of a `spender` for an `owner` is set by a call to {approve}. `value` is the new allowance."
      },
      "Transfer(address,address,uint256)": {
        "details": "Emitted when `value` tokens are moved from one account (`from`) to another (`to`). Note that `value` may be zero."
      }
    },
    "kind": "dev",
    "methods": {
      "allowance(address,address)": {
        "details": "See {IERC20-allowance}."
      },
      "approve(address,uint256)": {
        "details": "See {IERC20-approve}. NOTE: If `value` is the maximum `uint256`, the allowance is not updated on `transferFrom`. This is semantically equivalent to an infinite approval. Requirements: - `spender` cannot be the zero address."
      },
      "balanceOf(address)": {
        "details": "See {IERC20-balanceOf}."
      },
      "decimals()": {
        "details": "Returns the number of decimals used to get its user representation. For example, if `decimals` equals `2`, a balance of `505` tokens should be displayed to a user as `5.05` (`505 / 10 ** 2`). Tokens usually opt for a value of 18, imitating the relationship between Ether and Wei. This is the default value returned by this function, unless it's overridden. NOTE: This information is only used for _display_ purposes: it in no way affects any of the arithmetic of the contract, including {IERC20-balanceOf} and {IERC20-transfer}."
      },
      "name()": {
        "details": "Returns the name of the token."
      },
      "symbol()": {
        "details": "Returns the symbol of the token, usually a shorter version of the name."
      },
      "totalSupply()": {
        "details": "See {IERC20-totalSupply}."
      },
      "transfer(address,uint256)": {
        "details": "See {IERC20-transfer}. Requirements: - `to` cannot be the zero address. - the caller must have a balance of at least `value`."
      },
      "transferFrom(address,address,uint256)": {
        "details": "See {IERC20-transferFrom}. Emits an {Approval} event indicating the updated allowance. This is not required by the EIP. See the note at the beginning of {ERC20}. NOTE: Does not update the allowance if the current allowance is the maximum `uint256`. Requirements: - `from` and `to` cannot be the zero address. - `from` must have a balance of at least `value`. - the caller must have allowance for ``from``'s tokens of at least `value`."
      }
    },
    "version": 1
  },
  "userdoc": {
    "kind": "user",
    "methods": {},
    "version": 1
  }
}