{
  "contractName": "WrappedBNB",
  "abi": [
    {
      "inputs": [
        {
          "internalType": "address",
          "name": "hybridContract",
          "type": "address"
        }
      ],
      "stateMutability": "nonpayable",
      "type": "constructor"
    },
    {
      "inputs": [
        {
          "internalType": "address",
          "name": "spender",
          "type": "address"
        },
        {
          "internalType": "uint256",
          "name": "allowance",
          "type": "uint256"
        },
        {
          "internalType": "uint256",
          "name": "needed",
          "type": "uint256"
        }
      ],
      "name": "ERC20InsufficientAllowance",
      "type": "error"
    },
    {
      "inputs": [
        {
          "internalType": "address",
          "name": "sender",
          "type": "address"
        },
        {
          "internalType": "uint256",
          "name": "balance",
          "type": "uint256"
        },
        {
          "internalType": "uint256",
          "name": "needed",
          "type": "uint256"
        }
      ],
      "name": "ERC20InsufficientBalance",
      "type": "error"
    },
    {
      "inputs": [
        {
          "internalType": "address",
          "name": "approver",
          "type": "address"
        }
      ],
      "name": "ERC20InvalidApprover",
      "type": "error"
    },
    {
      "inputs": [
        {
          "internalType": "address",
          "name": "receiver",
          "type": "address"
        }
      ],
      "name": "ERC20InvalidReceiver",
      "type": "error"
    },
    {
      "inputs": [
        {
          "internalType": "address",
          "name": "sender",
          "type": "address"
        }
      ],
      "name": "ERC20InvalidSender",
      "type": "error"
    },
    {
      "inputs": [
        {
          "internalType": "address",
          "name": "spender",
          "type": "address"
        }
      ],
      "name": "ERC20InvalidSpender",
      "type": "error"
    },
    {
      "inputs": [
        {
          "internalType": "address",
          "name": "owner",
          "type": "address"
        }
      ],
      "name": "OptInRequired",
      "type": "error"
    },
    {
      "anonymous": false,
      "inputs": [
        {
          "indexed": true,
          "internalType": "address",
          "name": "owner",
          "type": "address"
        },
        {
          "indexed": true,
          "internalType": "address",
          "name": "spender",
          "type": "address"
        },
        {
          "indexed": false,
          "internalType": "uint256",
          "name": "value",
          "type": "uint256"
        }
      ],
      "name": "Approval",
      "type": "event"
    },
    {
      "anonymous": false,
      "inputs": [
        {
          "indexed": true,
          "internalType": "address",
          "name": "from",
          "type": "address"
        },
        {
          "indexed": true,
          "internalType": "address",
          "name": "to",
          "type": "address"
        },
        {
          "indexed": false,
          "internalType": "uint256",
          "name": "value",
          "type": "uint256"
        }
      ],
      "name": "Transfer",
      "type": "event"
    },
    {
      "inputs": [
        {
          "internalType": "address",
          "name": "owner",
          "type": "address"
        },
        {
          "internalType": "address",
          "name": "spender",
          "type": "address"
        }
      ],
      "name": "allowance",
      "outputs": [
        {
          "internalType": "uint256",
          "name": "",
          "type": "uint256"
        }
      ],
      "stateMutability": "view",
      "type": "function"
    },
    {
      "inputs": [
        {
          "internalType": "address",
          "name": "spender",
          "type": "address"
        },
        {
          "internalType": "uint256",
          "name": "value",
          "type": "uint256"
        }
      ],
      "name": "approve",
      "outputs": [
        {
          "internalType": "bool",
          "name": "",
          "type": "bool"
        }
      ],
      "stateMutability": "nonpayable",
      "type": "function"
    },
    {
      "inputs": [
        {
          "internalType": "address",
          "name": "account",
          "type": "address"
        }
      ],
      "name": "balanceOf",
      "outputs": [
        {
          "internalType": "uint256",
          "name": "",
          "type": "uint256"
        }
      ],
      "stateMutability": "view",
      "type": "function"
    },
    {
      "inputs": [],
      "name": "decimals",
      "outputs": [
        {
          "internalType": "uint8",
          "name": "",
          "type": "uint8"
        }
      ],
      "stateMutability": "view",
      "type": "function"
    },
    {
      "inputs": [
        {
          "internalType": "bytes32",
          "name": "messageHash",
          "type": "bytes32"
        },
        {
          "internalType": "uint8",
          "name": "v",
          "type": "uint8"
        },
        {
          "internalType": "bytes32",
          "name": "r",
          "type": "bytes32"
        },
        {
          "internalType": "bytes32",
          "name": "s",
          "type": "bytes32"
        }
      ],
      "name": "dowgradeAsset",
      "outputs": [],
      "stateMutability": "nonpayable",
      "type": "function"
    },
    {
      "inputs": [
        {
          "internalType": "address",
          "name": "owner",
          "type": "address"
        }
      ],
      "name": "isUpgraded",
      "outputs": [
        {
          "internalType": "bool",
          "name": "",
          "type": "bool"
        }
      ],
      "stateMutability": "view",
      "type": "function"
    },
    {
      "inputs": [],
      "name": "name",
      "outputs": [
        {
          "internalType": "string",
          "name": "",
          "type": "string"
        }
      ],
      "stateMutability": "view",
      "type": "function"
    },
    {
      "inputs": [],
      "name": "optIn",
      "outputs": [],
      "stateMutability": "nonpayable",
      "type": "function"
    },
    {
      "inputs": [],
      "name": "optOut",
      "outputs": [],
      "stateMutability": "nonpayable",
      "type": "function"
    },
    {
      "inputs": [
        {
          "internalType": "bytes32",
          "name": "approvalId",
          "type": "bytes32"
        }
      ],
      "name": "rejectApproval",
      "outputs": [],
      "stateMutability": "nonpayable",
      "type": "function"
    },
    {
      "inputs": [
        {
          "internalType": "bytes32",
          "name": "approvalId",
          "type": "bytes32"
        },
        {
          "internalType": "bytes32",
          "name": "messageHash",
          "type": "bytes32"
        },
        {
          "internalType": "uint8",
          "name": "v",
          "type": "uint8"
        },
        {
          "internalType": "bytes32",
          "name": "r",
          "type": "bytes32"
        },
        {
          "internalType": "bytes32",
          "name": "s",
          "type": "bytes32"
        }
      ],
      "name": "submitApprovalProof",
      "outputs": [],
      "stateMutability": "nonpayable",
      "type": "function"
    },
    {
      "inputs": [
        {
          "internalType": "bytes32",
          "name": "messageHash",
          "type": "bytes32"
        },
        {
          "internalType": "uint8",
          "name": "v",
          "type": "uint8"
        },
        {
          "internalType": "bytes32",
          "name": "r",
          "type": "bytes32"
        },
        {
          "internalType": "bytes32",
          "name": "s",
          "type": "bytes32"
        }
      ],
      "name": "submitDowngradeProof",
      "outputs": [],
      "stateMutability": "nonpayable",
      "type": "function"
    },
    {
      "inputs": [],
      "name": "symbol",
      "outputs": [
        {
          "internalType": "string",
          "name": "",
          "type": "string"
        }
      ],
      "stateMutability": "view",
      "type": "function"
    },
    {
      "inputs": [],
      "name": "totalSupply",
      "outputs": [
        {
          "internalType": "uint256",
          "name": "",
          "type": "uint256"
        }
      ],
      "stateMutability": "view",
      "type": "function"
    },
    {
      "inputs": [
        {
          "internalType": "address",
          "name": "to",
          "type": "address"
        },
        {
          "internalType": "uint256",
          "name": "value",
          "type": "uint256"
        }
      ],
      "name": "transfer",
      "outputs": [
        {
          "internalType": "bool",
          "name": "",
          "type": "bool"
        }
      ],
      "stateMutability": "nonpayable",
      "type": "function"
    },
    {
      "inputs": [
        {
          "internalType": "address",
          "name": "from",
          "type": "address"
        },
        {
          "internalType": "address",
          "name": "to",
          "type": "address"
        },
        {
          "internalType": "uint256",
          "name": "value",
          "type": "uint256"
        }
      ],
      "name": "transferFrom",
      "outputs": [
        {
          "internalType": "bool",
          "name": "",
          "type": "bool"
        }
      ],
      "stateMutability": "nonpayable",
      "type": "function"
    },
    {
      "inputs": [],
      "name": "upgradeAsset",
      "outputs": [],
      "stateMutability": "nonpayable",
      "type": "function"
    }
  ],
  "bytecode": "0x608060405234801562000010575f80fd5b5060405162002e2b38038062002e2b833981810160405281019062000036919062000713565b6040518060400160405280600b81526020017f5772617070656420424e420000000000000000000000000000000000000000008152506040518060400160405280600481526020017f57424e42000000000000000000000000000000000000000000000000000000008152508282828160039081620000b69190620009a7565b508060049081620000c89190620009a7565b5050508060055f6101000a81548173ffffffffffffffffffffffffffffffffffffffff021916908373ffffffffffffffffffffffffffffffffffffffff1602179055505050506200013d620001226200014460201b60201c565b6d04ee2d6d415b85acef81000000006200014b60201b60201c565b5062000cd2565b5f33905090565b5f73ffffffffffffffffffffffffffffffffffffffff168273ffffffffffffffffffffffffffffffffffffffff1603620001be575f6040517fec442f05000000000000000000000000000000000000000000000000000000008152600401620001b5919062000a9c565b60405180910390fd5b620001d15f8383620001d560201b60201c565b5050565b620001e683620003dd60201b60201c565b6200020457620001fe8383836200048a60201b60201c565b620003d8565b8060075f8573ffffffffffffffffffffffffffffffffffffffff1673ffffffffffffffffffffffffffffffffffffffff1681526020019081526020015f205f8473ffffffffffffffffffffffffffffffffffffffff1673ffffffffffffffffffffffffffffffffffffffff1681526020019081526020015f20541015620002c2576040517f08c379a0000000000000000000000000000000000000000000000000000000008152600401620002b99062000b15565b60405180910390fd5b8060075f8573ffffffffffffffffffffffffffffffffffffffff1673ffffffffffffffffffffffffffffffffffffffff1681526020019081526020015f205f8473ffffffffffffffffffffffffffffffffffffffff1673ffffffffffffffffffffffffffffffffffffffff1681526020019081526020015f205462000348919062000b62565b60075f8573ffffffffffffffffffffffffffffffffffffffff1673ffffffffffffffffffffffffffffffffffffffff1681526020019081526020015f205f8473ffffffffffffffffffffffffffffffffffffffff1673ffffffffffffffffffffffffffffffffffffffff1681526020019081526020015f2081905550620003d78383836200048a60201b60201c565b5b505050565b5f8030905060055f9054906101000a900473ffffffffffffffffffffffffffffffffffffffff1673ffffffffffffffffffffffffffffffffffffffff1663a5d73ebe82856040518363ffffffff1660e01b81526004016200044092919062000b9c565b602060405180830381865afa1580156200045c573d5f803e3d5ffd5b505050506040513d601f19601f8201168201806040525081019062000482919062000c01565b915050919050565b5f73ffffffffffffffffffffffffffffffffffffffff168373ffffffffffffffffffffffffffffffffffffffff1603620004de578060025f828254620004d1919062000c31565b92505081905550620005af565b5f805f8573ffffffffffffffffffffffffffffffffffffffff1673ffffffffffffffffffffffffffffffffffffffff1681526020019081526020015f20549050818110156200056a578381836040517fe450d38c000000000000000000000000000000000000000000000000000000008152600401620005619392919062000c7c565b60405180910390fd5b8181035f808673ffffffffffffffffffffffffffffffffffffffff1673ffffffffffffffffffffffffffffffffffffffff1681526020019081526020015f2081905550505b5f73ffffffffffffffffffffffffffffffffffffffff168273ffffffffffffffffffffffffffffffffffffffff1603620005f8578060025f828254039250508190555062000642565b805f808473ffffffffffffffffffffffffffffffffffffffff1673ffffffffffffffffffffffffffffffffffffffff1681526020019081526020015f205f82825401925050819055505b8173ffffffffffffffffffffffffffffffffffffffff168373ffffffffffffffffffffffffffffffffffffffff167fddf252ad1be2c89b69c2b068fc378daa952ba7f163c4a11628f55a4df523b3ef83604051620006a1919062000cb7565b60405180910390a3505050565b5f80fd5b5f73ffffffffffffffffffffffffffffffffffffffff82169050919050565b5f620006dd82620006b2565b9050919050565b620006ef81620006d1565b8114620006fa575f80fd5b50565b5f815190506200070d81620006e4565b92915050565b5f602082840312156200072b576200072a620006ae565b5b5f6200073a84828501620006fd565b91505092915050565b5f81519050919050565b7f4e487b71000000000000000000000000000000000000000000000000000000005f52604160045260245ffd5b7f4e487b71000000000000000000000000000000000000000000000000000000005f52602260045260245ffd5b5f6002820490506001821680620007bf57607f821691505b602082108103620007d557620007d46200077a565b5b50919050565b5f819050815f5260205f209050919050565b5f6020601f8301049050919050565b5f82821b905092915050565b5f60088302620008397fffffffffffffffffffffffffffffffffffffffffffffffffffffffffffffffff82620007fc565b620008458683620007fc565b95508019841693508086168417925050509392505050565b5f819050919050565b5f819050919050565b5f6200088f6200088962000883846200085d565b62000866565b6200085d565b9050919050565b5f819050919050565b620008aa836200086f565b620008c2620008b98262000896565b84845462000808565b825550505050565b5f90565b620008d8620008ca565b620008e58184846200089f565b505050565b5b818110156200090c57620009005f82620008ce565b600181019050620008eb565b5050565b601f8211156200095b576200092581620007db565b6200093084620007ed565b8101602085101562000940578190505b620009586200094f85620007ed565b830182620008ea565b50505b505050565b5f82821c905092915050565b5f6200097d5f198460080262000960565b1980831691505092915050565b5f6200099783836200096c565b9150826002028217905092915050565b620009b28262000743565b67ffffffffffffffff811115620009ce57620009cd6200074d565b5b620009da8254620007a7565b620009e782828562000910565b5f60209050601f83116001811462000a1d575f841562000a08578287015190505b62000a1485826200098a565b86555062000a83565b601f19841662000a2d86620007db565b5f5b8281101562000a565784890151825560018201915060208501945060208101905062000a2f565b8683101562000a76578489015162000a72601f8916826200096c565b8355505b6001600288020188555050505b505050505050565b62000a9681620006d1565b82525050565b5f60208201905062000ab15f83018462000a8b565b92915050565b5f82825260208201905092915050565b7f496e73756666696369656e74207370656e6461626c65000000000000000000005f82015250565b5f62000afd60168362000ab7565b915062000b0a8262000ac7565b602082019050919050565b5f6020820190508181035f83015262000b2e8162000aef565b9050919050565b7f4e487b71000000000000000000000000000000000000000000000000000000005f52601160045260245ffd5b5f62000b6e826200085d565b915062000b7b836200085d565b925082820390508181111562000b965762000b9562000b35565b5b92915050565b5f60408201905062000bb15f83018562000a8b565b62000bc0602083018462000a8b565b9392505050565b5f8115159050919050565b62000bdd8162000bc7565b811462000be8575f80fd5b50565b5f8151905062000bfb8162000bd2565b92915050565b5f6020828403121562000c195762000c18620006ae565b5b5f62000c288482850162000beb565b91505092915050565b5f62000c3d826200085d565b915062000c4a836200085d565b925082820190508082111562000c655762000c6462000b35565b5b92915050565b62000c76816200085d565b82525050565b5f60608201905062000c915f83018662000a8b565b62000ca0602083018562000c6b565b62000caf604083018462000c6b565b949350505050565b5f60208201905062000ccc5f83018462000c6b565b92915050565b61214b8062000ce05f395ff3fe608060405234801561000f575f80fd5b5060043610610109575f3560e01c806370a08231116100a0578063a9059cbb1161006f578063a9059cbb146102a3578063ad2c68fc146102d3578063d4eec5a6146102dd578063d510a856146102e7578063dd62ed3e1461030357610109565b806370a08231146102095780637b7231651461023957806395d89b411461025557806395ef84b91461027357610109565b8063313ce567116100dc578063313ce567146101a95780633773b469146101c75780635b3c047b146101e35780635b48684e146101ff57610109565b806306fdde031461010d578063095ea7b31461012b57806318160ddd1461015b57806323b872dd14610179575b5f80fd5b610115610333565b60405161012291906119a6565b60405180910390f35b61014560048036038101906101409190611a57565b6103c3565b6040516101529190611aaf565b60405180910390f35b6101636103e5565b6040516101709190611ad7565b60405180910390f35b610193600480360381019061018e9190611af0565b6103ee565b6040516101a09190611aaf565b60405180910390f35b6101b161041d565b6040516101be9190611b5b565b60405180910390f35b6101e160048036038101906101dc9190611bd1565b610425565b005b6101fd60048036038101906101f89190611c35565b61051c565b005b6102076106b8565b005b610223600480360381019061021e9190611cac565b610771565b6040516102309190611ad7565b60405180910390f35b610253600480360381019061024e9190611bd1565b6107b6565b005b61025d610857565b60405161026a91906119a6565b60405180910390f35b61028d60048036038101906102889190611cac565b6108e7565b60405161029a9190611aaf565b60405180910390f35b6102bd60048036038101906102b89190611a57565b61098f565b6040516102ca9190611aaf565b60405180910390f35b6102db6109b1565b005b6102e5610a46565b005b61030160048036038101906102fc9190611cd7565b610ba8565b005b61031d60048036038101906103189190611d02565b610c88565b60405161032a9190611ad7565b60405180910390f35b60606003805461034290611d6d565b80601f016020809104026020016040519081016040528092919081815260200182805461036e90611d6d565b80156103b95780601f10610390576101008083540402835291602001916103b9565b820191905f5260205f20905b81548152906001019060200180831161039c57829003601f168201915b5050505050905090565b5f806103cd610d0a565b90506103da818585610d11565b600191505092915050565b5f600254905090565b5f806103f8610d0a565b9050610405858285610d23565b61041185828686610db5565b60019150509392505050565b5f6012905090565b5f61042e610d0a565b9050610439816108e7565b61047a57806040517f1594b2f10000000000000000000000000000000000000000000000000000000081526004016104719190611dac565b60405180910390fd5b5f610483610d0a565b905060055f9054906101000a900473ffffffffffffffffffffffffffffffffffffffff1673ffffffffffffffffffffffffffffffffffffffff16630dfefc3087878787866040518663ffffffff1660e01b81526004016104e7959493929190611dd4565b5f604051808303815f87803b1580156104fe575f80fd5b505af1158015610510573d5f803e3d5ffd5b50505050505050505050565b5f610525610d0a565b9050610530816108e7565b61057157806040517f1594b2f10000000000000000000000000000000000000000000000000000000081526004016105689190611dac565b60405180910390fd5b5f61057a610d0a565b90505f8060055f9054906101000a900473ffffffffffffffffffffffffffffffffffffffff1673ffffffffffffffffffffffffffffffffffffffff16631b05c655898989898e6040518663ffffffff1660e01b81526004016105e0959493929190611e25565b60408051808303815f875af11580156105fb573d5f803e3d5ffd5b505050506040513d601f19601f8201168201806040525081019061061f9190611e9e565b915091506106308383836001611081565b8060075f8573ffffffffffffffffffffffffffffffffffffffff1673ffffffffffffffffffffffffffffffffffffffff1681526020019081526020015f205f8473ffffffffffffffffffffffffffffffffffffffff1673ffffffffffffffffffffffffffffffffffffffff1681526020019081526020015f2081905550505050505050505050565b5f6106c1610d0a565b90506106cc816108e7565b61070d57806040517f1594b2f10000000000000000000000000000000000000000000000000000000081526004016107049190611dac565b60405180910390fd5b5f610716610d0a565b9050600160065f8373ffffffffffffffffffffffffffffffffffffffff1673ffffffffffffffffffffffffffffffffffffffff1681526020019081526020015f205f6101000a81548160ff0219169083151502179055505050565b5f805f8373ffffffffffffffffffffffffffffffffffffffff1673ffffffffffffffffffffffffffffffffffffffff1681526020019081526020015f20549050919050565b5f6107bf610d0a565b905060055f9054906101000a900473ffffffffffffffffffffffffffffffffffffffff1673ffffffffffffffffffffffffffffffffffffffff16630dfefc3086868686866040518663ffffffff1660e01b8152600401610823959493929190611dd4565b5f604051808303815f87803b15801561083a575f80fd5b505af115801561084c573d5f803e3d5ffd5b505050505050505050565b60606004805461086690611d6d565b80601f016020809104026020016040519081016040528092919081815260200182805461089290611d6d565b80156108dd5780601f106108b4576101008083540402835291602001916108dd565b820191905f5260205f20905b8154815290600101906020018083116108c057829003601f168201915b5050505050905090565b5f8030905060055f9054906101000a900473ffffffffffffffffffffffffffffffffffffffff1673ffffffffffffffffffffffffffffffffffffffff1663a5d73ebe82856040518363ffffffff1660e01b8152600401610948929190611edc565b602060405180830381865afa158015610963573d5f803e3d5ffd5b505050506040513d601f19601f820116820180604052508101906109879190611f2d565b915050919050565b5f80610999610d0a565b90506109a6818585611250565b600191505092915050565b5f6109ba610d0a565b905060055f9054906101000a900473ffffffffffffffffffffffffffffffffffffffff1673ffffffffffffffffffffffffffffffffffffffff16632bb5e6e3826040518263ffffffff1660e01b8152600401610a169190611dac565b5f604051808303815f87803b158015610a2d575f80fd5b505af1158015610a3f573d5f803e3d5ffd5b5050505050565b5f610a4f610d0a565b9050610a5a816108e7565b8015610aad575060065f8273ffffffffffffffffffffffffffffffffffffffff1673ffffffffffffffffffffffffffffffffffffffff1681526020019081526020015f205f9054906101000a900460ff16155b15610aef57806040517f1594b2f1000000000000000000000000000000000000000000000000000000008152600401610ae69190611dac565b60405180910390fd5b5f610af8610d0a565b9050610b03816108e7565b610b4457806040517f1594b2f1000000000000000000000000000000000000000000000000000000008152600401610b3b9190611dac565b60405180910390fd5b5f610b4d610d0a565b90505f60065f8373ffffffffffffffffffffffffffffffffffffffff1673ffffffffffffffffffffffffffffffffffffffff1681526020019081526020015f205f6101000a81548160ff021916908315150217905550505050565b5f610bb1610d0a565b9050610bbc816108e7565b610bfd57806040517f1594b2f1000000000000000000000000000000000000000000000000000000008152600401610bf49190611dac565b60405180910390fd5b60055f9054906101000a900473ffffffffffffffffffffffffffffffffffffffff1673ffffffffffffffffffffffffffffffffffffffff16636cc7af2c836040518263ffffffff1660e01b8152600401610c579190611f58565b5f604051808303815f87803b158015610c6e575f80fd5b505af1158015610c80573d5f803e3d5ffd5b505050505050565b5f60015f8473ffffffffffffffffffffffffffffffffffffffff1673ffffffffffffffffffffffffffffffffffffffff1681526020019081526020015f205f8373ffffffffffffffffffffffffffffffffffffffff1673ffffffffffffffffffffffffffffffffffffffff1681526020019081526020015f2054905092915050565b5f33905090565b610d1e8383836001611340565b505050565b5f610d2e8484610c88565b90507fffffffffffffffffffffffffffffffffffffffffffffffffffffffffffffffff8114610daf5781811015610da0578281836040517ffb8f41b2000000000000000000000000000000000000000000000000000000008152600401610d9793929190611f71565b60405180910390fd5b610dae84848484035f611340565b5b50505050565b8060075f8673ffffffffffffffffffffffffffffffffffffffff1673ffffffffffffffffffffffffffffffffffffffff1681526020019081526020015f205f8573ffffffffffffffffffffffffffffffffffffffff1673ffffffffffffffffffffffffffffffffffffffff1681526020019081526020015f20541015610e70576040517f08c379a0000000000000000000000000000000000000000000000000000000008152600401610e6790611ff0565b60405180910390fd5b8060075f8673ffffffffffffffffffffffffffffffffffffffff1673ffffffffffffffffffffffffffffffffffffffff1681526020019081526020015f205f8573ffffffffffffffffffffffffffffffffffffffff1673ffffffffffffffffffffffffffffffffffffffff1681526020019081526020015f2054610ef4919061203b565b60075f8673ffffffffffffffffffffffffffffffffffffffff1673ffffffffffffffffffffffffffffffffffffffff1681526020019081526020015f205f8573ffffffffffffffffffffffffffffffffffffffff1673ffffffffffffffffffffffffffffffffffffffff1681526020019081526020015f20819055508060075f8673ffffffffffffffffffffffffffffffffffffffff1673ffffffffffffffffffffffffffffffffffffffff1681526020019081526020015f205f8473ffffffffffffffffffffffffffffffffffffffff1673ffffffffffffffffffffffffffffffffffffffff1681526020019081526020015f2054610ff4919061206e565b60075f8673ffffffffffffffffffffffffffffffffffffffff1673ffffffffffffffffffffffffffffffffffffffff1681526020019081526020015f205f8473ffffffffffffffffffffffffffffffffffffffff1673ffffffffffffffffffffffffffffffffffffffff1681526020019081526020015f208190555061107b848383611250565b50505050565b5f73ffffffffffffffffffffffffffffffffffffffff168473ffffffffffffffffffffffffffffffffffffffff16036110f1575f6040517fe602df050000000000000000000000000000000000000000000000000000000081526004016110e89190611dac565b60405180910390fd5b5f73ffffffffffffffffffffffffffffffffffffffff168373ffffffffffffffffffffffffffffffffffffffff1603611161575f6040517f94280d620000000000000000000000000000000000000000000000000000000081526004016111589190611dac565b60405180910390fd5b8160015f8673ffffffffffffffffffffffffffffffffffffffff1673ffffffffffffffffffffffffffffffffffffffff1681526020019081526020015f205f8573ffffffffffffffffffffffffffffffffffffffff1673ffffffffffffffffffffffffffffffffffffffff1681526020019081526020015f2081905550801561124a578273ffffffffffffffffffffffffffffffffffffffff168473ffffffffffffffffffffffffffffffffffffffff167f8c5be1e5ebec7d5bd14f71427d1e84f3dd0314c0f7b2291e5b200ac8c7c3b925846040516112419190611ad7565b60405180910390a35b50505050565b5f73ffffffffffffffffffffffffffffffffffffffff168373ffffffffffffffffffffffffffffffffffffffff16036112c0575f6040517f96c6fd1e0000000000000000000000000000000000000000000000000000000081526004016112b79190611dac565b60405180910390fd5b5f73ffffffffffffffffffffffffffffffffffffffff168273ffffffffffffffffffffffffffffffffffffffff1603611330575f6040517fec442f050000000000000000000000000000000000000000000000000000000081526004016113279190611dac565b60405180910390fd5b61133b83838361151a565b505050565b611349846108e7565b61135e5761135984848484611081565b611514565b60065f8573ffffffffffffffffffffffffffffffffffffffff1673ffffffffffffffffffffffffffffffffffffffff1681526020019081526020015f205f9054906101000a900460ff166113e957836040517f1594b2f10000000000000000000000000000000000000000000000000000000081526004016113e09190611dac565b60405180910390fd5b60065f8473ffffffffffffffffffffffffffffffffffffffff1673ffffffffffffffffffffffffffffffffffffffff1681526020019081526020015f205f9054906101000a900460ff1661147457826040517f1594b2f100000000000000000000000000000000000000000000000000000000815260040161146b9190611dac565b60405180910390fd5b60055f9054906101000a900473ffffffffffffffffffffffffffffffffffffffff1673ffffffffffffffffffffffffffffffffffffffff1663067477218585856040518463ffffffff1660e01b81526004016114d2939291906120a1565b6020604051808303815f875af11580156114ee573d5f803e3d5ffd5b505050506040513d601f19601f8201168201806040525081019061151291906120ea565b505b50505050565b611523836108e7565b61153757611532838383611703565b6116fe565b8060075f8573ffffffffffffffffffffffffffffffffffffffff1673ffffffffffffffffffffffffffffffffffffffff1681526020019081526020015f205f8473ffffffffffffffffffffffffffffffffffffffff1673ffffffffffffffffffffffffffffffffffffffff1681526020019081526020015f205410156115f2576040517f08c379a00000000000000000000000000000000000000000000000000000000081526004016115e990611ff0565b60405180910390fd5b8060075f8573ffffffffffffffffffffffffffffffffffffffff1673ffffffffffffffffffffffffffffffffffffffff1681526020019081526020015f205f8473ffffffffffffffffffffffffffffffffffffffff1673ffffffffffffffffffffffffffffffffffffffff1681526020019081526020015f2054611676919061203b565b60075f8573ffffffffffffffffffffffffffffffffffffffff1673ffffffffffffffffffffffffffffffffffffffff1681526020019081526020015f205f8473ffffffffffffffffffffffffffffffffffffffff1673ffffffffffffffffffffffffffffffffffffffff1681526020019081526020015f20819055506116fd838383611703565b5b505050565b5f73ffffffffffffffffffffffffffffffffffffffff168373ffffffffffffffffffffffffffffffffffffffff1603611753578060025f828254611747919061206e565b92505081905550611821565b5f805f8573ffffffffffffffffffffffffffffffffffffffff1673ffffffffffffffffffffffffffffffffffffffff1681526020019081526020015f20549050818110156117dc578381836040517fe450d38c0000000000000000000000000000000000000000000000000000000081526004016117d393929190611f71565b60405180910390fd5b8181035f808673ffffffffffffffffffffffffffffffffffffffff1673ffffffffffffffffffffffffffffffffffffffff1681526020019081526020015f2081905550505b5f73ffffffffffffffffffffffffffffffffffffffff168273ffffffffffffffffffffffffffffffffffffffff1603611868578060025f82825403925050819055506118b2565b805f808473ffffffffffffffffffffffffffffffffffffffff1673ffffffffffffffffffffffffffffffffffffffff1681526020019081526020015f205f82825401925050819055505b8173ffffffffffffffffffffffffffffffffffffffff168373ffffffffffffffffffffffffffffffffffffffff167fddf252ad1be2c89b69c2b068fc378daa952ba7f163c4a11628f55a4df523b3ef8360405161190f9190611ad7565b60405180910390a3505050565b5f81519050919050565b5f82825260208201905092915050565b5f5b83811015611953578082015181840152602081019050611938565b5f8484015250505050565b5f601f19601f8301169050919050565b5f6119788261191c565b6119828185611926565b9350611992818560208601611936565b61199b8161195e565b840191505092915050565b5f6020820190508181035f8301526119be818461196e565b905092915050565b5f80fd5b5f73ffffffffffffffffffffffffffffffffffffffff82169050919050565b5f6119f3826119ca565b9050919050565b611a03816119e9565b8114611a0d575f80fd5b50565b5f81359050611a1e816119fa565b92915050565b5f819050919050565b611a3681611a24565b8114611a40575f80fd5b50565b5f81359050611a5181611a2d565b92915050565b5f8060408385031215611a6d57611a6c6119c6565b5b5f611a7a85828601611a10565b9250506020611a8b85828601611a43565b9150509250929050565b5f8115159050919050565b611aa981611a95565b82525050565b5f602082019050611ac25f830184611aa0565b92915050565b611ad181611a24565b82525050565b5f602082019050611aea5f830184611ac8565b92915050565b5f805f60608486031215611b0757611b066119c6565b5b5f611b1486828701611a10565b9350506020611b2586828701611a10565b9250506040611b3686828701611a43565b9150509250925092565b5f60ff82169050919050565b611b5581611b40565b82525050565b5f602082019050611b6e5f830184611b4c565b92915050565b5f819050919050565b611b8681611b74565b8114611b90575f80fd5b50565b5f81359050611ba181611b7d565b92915050565b611bb081611b40565b8114611bba575f80fd5b50565b5f81359050611bcb81611ba7565b92915050565b5f805f8060808587031215611be957611be86119c6565b5b5f611bf687828801611b93565b9450506020611c0787828801611bbd565b9350506040611c1887828801611b93565b9250506060611c2987828801611b93565b91505092959194509250565b5f805f805f60a08688031215611c4e57611c4d6119c6565b5b5f611c5b88828901611b93565b9550506020611c6c88828901611b93565b9450506040611c7d88828901611bbd565b9350506060611c8e88828901611b93565b9250506080611c9f88828901611b93565b9150509295509295909350565b5f60208284031215611cc157611cc06119c6565b5b5f611cce84828501611a10565b91505092915050565b5f60208284031215611cec57611ceb6119c6565b5b5f611cf984828501611b93565b91505092915050565b5f8060408385031215611d1857611d176119c6565b5b5f611d2585828601611a10565b9250506020611d3685828601611a10565b9150509250929050565b7f4e487b71000000000000000000000000000000000000000000000000000000005f52602260045260245ffd5b5f6002820490506001821680611d8457607f821691505b602082108103611d9757611d96611d40565b5b50919050565b611da6816119e9565b82525050565b5f602082019050611dbf5f830184611d9d565b92915050565b611dce81611b74565b82525050565b5f60a082019050611de75f830188611dc5565b611df46020830187611b4c565b611e016040830186611dc5565b611e0e6060830185611dc5565b611e1b6080830184611d9d565b9695505050505050565b5f60a082019050611e385f830188611dc5565b611e456020830187611b4c565b611e526040830186611dc5565b611e5f6060830185611dc5565b611e6c6080830184611dc5565b9695505050505050565b5f81519050611e84816119fa565b92915050565b5f81519050611e9881611a2d565b92915050565b5f8060408385031215611eb457611eb36119c6565b5b5f611ec185828601611e76565b9250506020611ed285828601611e8a565b9150509250929050565b5f604082019050611eef5f830185611d9d565b611efc6020830184611d9d565b9392505050565b611f0c81611a95565b8114611f16575f80fd5b50565b5f81519050611f2781611f03565b92915050565b5f60208284031215611f4257611f416119c6565b5b5f611f4f84828501611f19565b91505092915050565b5f602082019050611f6b5f830184611dc5565b92915050565b5f606082019050611f845f830186611d9d565b611f916020830185611ac8565b611f9e6040830184611ac8565b949350505050565b7f496e73756666696369656e74207370656e6461626c65000000000000000000005f82015250565b5f611fda601683611926565b9150611fe582611fa6565b602082019050919050565b5f6020820190508181035f83015261200781611fce565b9050919050565b7f4e487b71000000000000000000000000000000000000000000000000000000005f52601160045260245ffd5b5f61204582611a24565b915061205083611a24565b92508282039050818111156120685761206761200e565b5b92915050565b5f61207882611a24565b915061208383611a24565b925082820190508082111561209b5761209a61200e565b5b92915050565b5f6060820190506120b45f830186611d9d565b6120c16020830185611d9d565b6120ce6040830184611ac8565b949350505050565b5f815190506120e481611b7d565b92915050565b5f602082840312156120ff576120fe6119c6565b5b5f61210c848285016120d6565b9150509291505056fea2646970667358221220fc45e4b2d7a5bc87519373b5219aa3f8ea6ec69625297a0121685a47c5f0068764736f6c63430008140033",
  "immutableReferences": {},
  "source": "// SPDX-License-Identifier: MIT\r\npragma solidity ^0.8.20;\r\n\r\nimport {HybridToken} from \"../HybridToken.sol\";\r\n\r\ncontract WrappedBNB is HybridToken {\r\n    constructor(address hybridContract) HybridToken(\"Wrapped BNB\", \"WBNB\", hybridContract) {\r\n        _mint(_msgSender(), 100_000_000_000_000_000_000_000_000_000_000);\r\n    }\r\n}",
  "sourcePath": "C:\\Users\\DELL\\Documents\\hybrid.bnb.hack\\hybrid-token\\contracts\\usecases\\WrappedBNB.sol",
  "compiler": {
    "name": "solc",
    "version": "0.8.20+commit.a1b79de6.Emscripten.clang"
  },
  "schemaVersion": "3.4.11",
  "updatedAt": "2024-02-18T19:26:37.545Z",
  "devdoc": {
    "errors": {
      "ERC20InsufficientAllowance(address,uint256,uint256)": [
        {
          "details": "Indicates a failure with the `spender`s `allowance`. Used in transfers.",
          "params": {
            "allowance": "Amount of tokens a `spender` is allowed to operate with.",
            "needed": "Minimum amount required to perform a transfer.",
            "spender": "Address that may be allowed to operate on tokens without being their owner."
          }
        }
      ],
      "ERC20InsufficientBalance(address,uint256,uint256)": [
        {
          "details": "Indicates an error related to the current `balance` of a `sender`. Used in transfers.",
          "params": {
            "balance": "Current balance for the interacting account.",
            "needed": "Minimum amount required to perform a transfer.",
            "sender": "Address whose tokens are being transferred."
          }
        }
      ],
      "ERC20InvalidApprover(address)": [
        {
          "details": "Indicates a failure with the `approver` of a token to be approved. Used in approvals.",
          "params": {
            "approver": "Address initiating an approval operation."
          }
        }
      ],
      "ERC20InvalidReceiver(address)": [
        {
          "details": "Indicates a failure with the token `receiver`. Used in transfers.",
          "params": {
            "receiver": "Address to which tokens are being transferred."
          }
        }
      ],
      "ERC20InvalidSender(address)": [
        {
          "details": "Indicates a failure with the token `sender`. Used in transfers.",
          "params": {
            "sender": "Address whose tokens are being transferred."
          }
        }
      ],
      "ERC20InvalidSpender(address)": [
        {
          "details": "Indicates a failure with the `spender` to be approved. Used in approvals.",
          "params": {
            "spender": "Address that may be allowed to operate on tokens without being their owner."
          }
        }
      ]
    },
    "events": {
      "Approval(address,address,uint256)": {
        "details": "Emitted when the allowance of a `spender` for an `owner` is set by a call to {approve}. `value` is the new allowance."
      },
      "Transfer(address,address,uint256)": {
        "details": "Emitted when `value` tokens are moved from one account (`from`) to another (`to`). Note that `value` may be zero."
      }
    },
    "kind": "dev",
    "methods": {
      "allowance(address,address)": {
        "details": "See {IERC20-allowance}."
      },
      "approve(address,uint256)": {
        "details": "See {IERC20-approve}. NOTE: If `value` is the maximum `uint256`, the allowance is not updated on `transferFrom`. This is semantically equivalent to an infinite approval. Requirements: - `spender` cannot be the zero address."
      },
      "balanceOf(address)": {
        "details": "See {IERC20-balanceOf}."
      },
      "decimals()": {
        "details": "Returns the number of decimals used to get its user representation. For example, if `decimals` equals `2`, a balance of `505` tokens should be displayed to a user as `5.05` (`505 / 10 ** 2`). Tokens usually opt for a value of 18, imitating the relationship between Ether and Wei. This is the default value returned by this function, unless it's overridden. NOTE: This information is only used for _display_ purposes: it in no way affects any of the arithmetic of the contract, including {IERC20-balanceOf} and {IERC20-transfer}."
      },
      "name()": {
        "details": "Returns the name of the token."
      },
      "symbol()": {
        "details": "Returns the symbol of the token, usually a shorter version of the name."
      },
      "totalSupply()": {
        "details": "See {IERC20-totalSupply}."
      },
      "transfer(address,uint256)": {
        "details": "See {IERC20-transfer}. Requirements: - `to` cannot be the zero address. - the caller must have a balance of at least `value`."
      },
      "transferFrom(address,address,uint256)": {
        "details": "See {IERC20-transferFrom}. Emits an {Approval} event indicating the updated allowance. This is not required by the EIP. See the note at the beginning of {ERC20}. NOTE: Does not update the allowance if the current allowance is the maximum `uint256`. Requirements: - `from` and `to` cannot be the zero address. - `from` must have a balance of at least `value`. - the caller must have allowance for ``from``'s tokens of at least `value`."
      }
    },
    "version": 1
  },
  "userdoc": {
    "kind": "user",
    "methods": {},
    "version": 1
  }
}