{
  "contractName": "WrappedBNB",
  "abi": [
    {
      "inputs": [
        {
          "internalType": "address",
          "name": "hybridContract",
          "type": "address"
        }
      ],
      "stateMutability": "nonpayable",
      "type": "constructor"
    },
    {
      "inputs": [
        {
          "internalType": "address",
          "name": "spender",
          "type": "address"
        },
        {
          "internalType": "uint256",
          "name": "allowance",
          "type": "uint256"
        },
        {
          "internalType": "uint256",
          "name": "needed",
          "type": "uint256"
        }
      ],
      "name": "ERC20InsufficientAllowance",
      "type": "error"
    },
    {
      "inputs": [
        {
          "internalType": "address",
          "name": "sender",
          "type": "address"
        },
        {
          "internalType": "uint256",
          "name": "balance",
          "type": "uint256"
        },
        {
          "internalType": "uint256",
          "name": "needed",
          "type": "uint256"
        }
      ],
      "name": "ERC20InsufficientBalance",
      "type": "error"
    },
    {
      "inputs": [
        {
          "internalType": "address",
          "name": "approver",
          "type": "address"
        }
      ],
      "name": "ERC20InvalidApprover",
      "type": "error"
    },
    {
      "inputs": [
        {
          "internalType": "address",
          "name": "receiver",
          "type": "address"
        }
      ],
      "name": "ERC20InvalidReceiver",
      "type": "error"
    },
    {
      "inputs": [
        {
          "internalType": "address",
          "name": "sender",
          "type": "address"
        }
      ],
      "name": "ERC20InvalidSender",
      "type": "error"
    },
    {
      "inputs": [
        {
          "internalType": "address",
          "name": "spender",
          "type": "address"
        }
      ],
      "name": "ERC20InvalidSpender",
      "type": "error"
    },
    {
      "inputs": [
        {
          "internalType": "address",
          "name": "owner",
          "type": "address"
        }
      ],
      "name": "OptInRequired",
      "type": "error"
    },
    {
      "anonymous": false,
      "inputs": [
        {
          "indexed": true,
          "internalType": "address",
          "name": "owner",
          "type": "address"
        },
        {
          "indexed": true,
          "internalType": "address",
          "name": "spender",
          "type": "address"
        },
        {
          "indexed": false,
          "internalType": "uint256",
          "name": "value",
          "type": "uint256"
        }
      ],
      "name": "Approval",
      "type": "event"
    },
    {
      "anonymous": false,
      "inputs": [
        {
          "indexed": true,
          "internalType": "address",
          "name": "from",
          "type": "address"
        },
        {
          "indexed": true,
          "internalType": "address",
          "name": "to",
          "type": "address"
        },
        {
          "indexed": false,
          "internalType": "uint256",
          "name": "value",
          "type": "uint256"
        }
      ],
      "name": "Transfer",
      "type": "event"
    },
    {
      "inputs": [
        {
          "internalType": "address",
          "name": "owner",
          "type": "address"
        },
        {
          "internalType": "address",
          "name": "spender",
          "type": "address"
        }
      ],
      "name": "allowance",
      "outputs": [
        {
          "internalType": "uint256",
          "name": "",
          "type": "uint256"
        }
      ],
      "stateMutability": "view",
      "type": "function"
    },
    {
      "inputs": [
        {
          "internalType": "address",
          "name": "spender",
          "type": "address"
        },
        {
          "internalType": "uint256",
          "name": "value",
          "type": "uint256"
        }
      ],
      "name": "approve",
      "outputs": [
        {
          "internalType": "bool",
          "name": "",
          "type": "bool"
        }
      ],
      "stateMutability": "nonpayable",
      "type": "function"
    },
    {
      "inputs": [
        {
          "internalType": "address",
          "name": "account",
          "type": "address"
        }
      ],
      "name": "balanceOf",
      "outputs": [
        {
          "internalType": "uint256",
          "name": "",
          "type": "uint256"
        }
      ],
      "stateMutability": "view",
      "type": "function"
    },
    {
      "inputs": [],
      "name": "decimals",
      "outputs": [
        {
          "internalType": "uint8",
          "name": "",
          "type": "uint8"
        }
      ],
      "stateMutability": "view",
      "type": "function"
    },
    {
      "inputs": [
        {
          "internalType": "address",
          "name": "owner",
          "type": "address"
        }
      ],
      "name": "isUpgraded",
      "outputs": [
        {
          "internalType": "bool",
          "name": "",
          "type": "bool"
        }
      ],
      "stateMutability": "view",
      "type": "function"
    },
    {
      "inputs": [],
      "name": "name",
      "outputs": [
        {
          "internalType": "string",
          "name": "",
          "type": "string"
        }
      ],
      "stateMutability": "view",
      "type": "function"
    },
    {
      "inputs": [],
      "name": "optIn",
      "outputs": [],
      "stateMutability": "nonpayable",
      "type": "function"
    },
    {
      "inputs": [],
      "name": "optOut",
      "outputs": [],
      "stateMutability": "nonpayable",
      "type": "function"
    },
    {
      "inputs": [
        {
          "internalType": "bytes32",
          "name": "approvalId",
          "type": "bytes32"
        }
      ],
      "name": "rejectApproval",
      "outputs": [],
      "stateMutability": "nonpayable",
      "type": "function"
    },
    {
      "inputs": [
        {
          "internalType": "bytes32",
          "name": "approvalId",
          "type": "bytes32"
        },
        {
          "internalType": "bytes32",
          "name": "messageHash",
          "type": "bytes32"
        },
        {
          "internalType": "uint8",
          "name": "v",
          "type": "uint8"
        },
        {
          "internalType": "bytes32",
          "name": "r",
          "type": "bytes32"
        },
        {
          "internalType": "bytes32",
          "name": "s",
          "type": "bytes32"
        }
      ],
      "name": "submitApprovalProof",
      "outputs": [],
      "stateMutability": "nonpayable",
      "type": "function"
    },
    {
      "inputs": [],
      "name": "submitDowngradeProof",
      "outputs": [],
      "stateMutability": "nonpayable",
      "type": "function"
    },
    {
      "inputs": [],
      "name": "symbol",
      "outputs": [
        {
          "internalType": "string",
          "name": "",
          "type": "string"
        }
      ],
      "stateMutability": "view",
      "type": "function"
    },
    {
      "inputs": [],
      "name": "totalSupply",
      "outputs": [
        {
          "internalType": "uint256",
          "name": "",
          "type": "uint256"
        }
      ],
      "stateMutability": "view",
      "type": "function"
    },
    {
      "inputs": [
        {
          "internalType": "address",
          "name": "to",
          "type": "address"
        },
        {
          "internalType": "uint256",
          "name": "value",
          "type": "uint256"
        }
      ],
      "name": "transfer",
      "outputs": [
        {
          "internalType": "bool",
          "name": "",
          "type": "bool"
        }
      ],
      "stateMutability": "nonpayable",
      "type": "function"
    },
    {
      "inputs": [
        {
          "internalType": "address",
          "name": "from",
          "type": "address"
        },
        {
          "internalType": "address",
          "name": "to",
          "type": "address"
        },
        {
          "internalType": "uint256",
          "name": "value",
          "type": "uint256"
        }
      ],
      "name": "transferFrom",
      "outputs": [
        {
          "internalType": "bool",
          "name": "",
          "type": "bool"
        }
      ],
      "stateMutability": "nonpayable",
      "type": "function"
    }
  ],
  "bytecode": "0x608060405234801562000010575f80fd5b506040516200233b3803806200233b833981810160405281019062000036919062000553565b6040518060400160405280600b81526020017f5772617070656420424e420000000000000000000000000000000000000000008152506040518060400160405280600481526020017f57424e42000000000000000000000000000000000000000000000000000000008152508282828160039081620000b69190620007e7565b508060049081620000c89190620007e7565b5050508060055f6101000a81548173ffffffffffffffffffffffffffffffffffffffff021916908373ffffffffffffffffffffffffffffffffffffffff1602179055505050506200013d620001226200014460201b60201c565b6d04ee2d6d415b85acef81000000006200014b60201b60201c565b5062000a5a565b5f33905090565b5f73ffffffffffffffffffffffffffffffffffffffff168273ffffffffffffffffffffffffffffffffffffffff1603620001be575f6040517fec442f05000000000000000000000000000000000000000000000000000000008152600401620001b59190620008dc565b60405180910390fd5b620001d15f8383620001d560201b60201c565b5050565b620001e6836200021d60201b60201c565b6200020457620001fe838383620002ca60201b60201c565b62000218565b62000217838383620002ca60201b60201c565b5b505050565b5f8030905060055f9054906101000a900473ffffffffffffffffffffffffffffffffffffffff1673ffffffffffffffffffffffffffffffffffffffff1663a5d73ebe82856040518363ffffffff1660e01b815260040162000280929190620008f7565b602060405180830381865afa1580156200029c573d5f803e3d5ffd5b505050506040513d601f19601f82011682018060405250810190620002c291906200095c565b915050919050565b5f73ffffffffffffffffffffffffffffffffffffffff168373ffffffffffffffffffffffffffffffffffffffff16036200031e578060025f828254620003119190620009b9565b92505081905550620003ef565b5f805f8573ffffffffffffffffffffffffffffffffffffffff1673ffffffffffffffffffffffffffffffffffffffff1681526020019081526020015f2054905081811015620003aa578381836040517fe450d38c000000000000000000000000000000000000000000000000000000008152600401620003a19392919062000a04565b60405180910390fd5b8181035f808673ffffffffffffffffffffffffffffffffffffffff1673ffffffffffffffffffffffffffffffffffffffff1681526020019081526020015f2081905550505b5f73ffffffffffffffffffffffffffffffffffffffff168273ffffffffffffffffffffffffffffffffffffffff160362000438578060025f828254039250508190555062000482565b805f808473ffffffffffffffffffffffffffffffffffffffff1673ffffffffffffffffffffffffffffffffffffffff1681526020019081526020015f205f82825401925050819055505b8173ffffffffffffffffffffffffffffffffffffffff168373ffffffffffffffffffffffffffffffffffffffff167fddf252ad1be2c89b69c2b068fc378daa952ba7f163c4a11628f55a4df523b3ef83604051620004e1919062000a3f565b60405180910390a3505050565b5f80fd5b5f73ffffffffffffffffffffffffffffffffffffffff82169050919050565b5f6200051d82620004f2565b9050919050565b6200052f8162000511565b81146200053a575f80fd5b50565b5f815190506200054d8162000524565b92915050565b5f602082840312156200056b576200056a620004ee565b5b5f6200057a848285016200053d565b91505092915050565b5f81519050919050565b7f4e487b71000000000000000000000000000000000000000000000000000000005f52604160045260245ffd5b7f4e487b71000000000000000000000000000000000000000000000000000000005f52602260045260245ffd5b5f6002820490506001821680620005ff57607f821691505b602082108103620006155762000614620005ba565b5b50919050565b5f819050815f5260205f209050919050565b5f6020601f8301049050919050565b5f82821b905092915050565b5f60088302620006797fffffffffffffffffffffffffffffffffffffffffffffffffffffffffffffffff826200063c565b6200068586836200063c565b95508019841693508086168417925050509392505050565b5f819050919050565b5f819050919050565b5f620006cf620006c9620006c3846200069d565b620006a6565b6200069d565b9050919050565b5f819050919050565b620006ea83620006af565b62000702620006f982620006d6565b84845462000648565b825550505050565b5f90565b620007186200070a565b62000725818484620006df565b505050565b5b818110156200074c57620007405f826200070e565b6001810190506200072b565b5050565b601f8211156200079b5762000765816200061b565b62000770846200062d565b8101602085101562000780578190505b620007986200078f856200062d565b8301826200072a565b50505b505050565b5f82821c905092915050565b5f620007bd5f1984600802620007a0565b1980831691505092915050565b5f620007d78383620007ac565b9150826002028217905092915050565b620007f28262000583565b67ffffffffffffffff8111156200080e576200080d6200058d565b5b6200081a8254620005e7565b6200082782828562000750565b5f60209050601f8311600181146200085d575f841562000848578287015190505b620008548582620007ca565b865550620008c3565b601f1984166200086d866200061b565b5f5b8281101562000896578489015182556001820191506020850194506020810190506200086f565b86831015620008b65784890151620008b2601f891682620007ac565b8355505b6001600288020188555050505b505050505050565b620008d68162000511565b82525050565b5f602082019050620008f15f830184620008cb565b92915050565b5f6040820190506200090c5f830185620008cb565b6200091b6020830184620008cb565b9392505050565b5f8115159050919050565b620009388162000922565b811462000943575f80fd5b50565b5f8151905062000956816200092d565b92915050565b5f60208284031215620009745762000973620004ee565b5b5f620009838482850162000946565b91505092915050565b7f4e487b71000000000000000000000000000000000000000000000000000000005f52601160045260245ffd5b5f620009c5826200069d565b9150620009d2836200069d565b9250828201905080821115620009ed57620009ec6200098c565b5b92915050565b620009fe816200069d565b82525050565b5f60608201905062000a195f830186620008cb565b62000a286020830185620009f3565b62000a376040830184620009f3565b949350505050565b5f60208201905062000a545f830184620009f3565b92915050565b6118d38062000a685f395ff3fe608060405234801561000f575f80fd5b50600436106100f3575f3560e01c806370a0823111610095578063a9059cbb11610064578063a9059cbb1461025f578063d4eec5a61461028f578063d510a85614610299578063dd62ed3e146102b5576100f3565b806370a08231146101d757806395d89b411461020757806395ef84b9146102255780639ff0a20b14610255576100f3565b806323b872dd116100d157806323b872dd14610163578063313ce567146101935780635b3c047b146101b15780635b48684e146101cd576100f3565b806306fdde03146100f7578063095ea7b31461011557806318160ddd14610145575b5f80fd5b6100ff6102e5565b60405161010c919061127e565b60405180910390f35b61012f600480360381019061012a919061132f565b610375565b60405161013c9190611387565b60405180910390f35b61014d610397565b60405161015a91906113af565b60405180910390f35b61017d600480360381019061017891906113c8565b6103a0565b60405161018a9190611387565b60405180910390f35b61019b6103ce565b6040516101a89190611433565b60405180910390f35b6101cb60048036038101906101c691906114a9565b6103d6565b005b6101d56104f5565b005b6101f160048036038101906101ec9190611520565b6105ae565b6040516101fe91906113af565b60405180910390f35b61020f6105f3565b60405161021c919061127e565b60405180910390f35b61023f600480360381019061023a9190611520565b610683565b60405161024c9190611387565b60405180910390f35b61025d61072b565b005b6102796004803603810190610274919061132f565b610783565b6040516102869190611387565b60405180910390f35b6102976107a5565b005b6102b360048036038101906102ae919061154b565b610907565b005b6102cf60048036038101906102ca9190611576565b6109e7565b6040516102dc91906113af565b60405180910390f35b6060600380546102f4906115e1565b80601f0160208091040260200160405190810160405280929190818152602001828054610320906115e1565b801561036b5780601f106103425761010080835404028352916020019161036b565b820191905f5260205f20905b81548152906001019060200180831161034e57829003601f168201915b5050505050905090565b5f8061037f610a69565b905061038c818585610a70565b600191505092915050565b5f600254905090565b5f806103aa610a69565b90506103b7858285610a82565b6103c2858585610b14565b60019150509392505050565b5f6012905090565b5f6103df610a69565b90506103ea81610683565b61042b57806040517f1594b2f10000000000000000000000000000000000000000000000000000000081526004016104229190611620565b60405180910390fd5b5f610434610a69565b90505f8060055f9054906101000a900473ffffffffffffffffffffffffffffffffffffffff1673ffffffffffffffffffffffffffffffffffffffff16631b05c655898989898e6040518663ffffffff1660e01b815260040161049a959493929190611648565b60408051808303815f875af11580156104b5573d5f803e3d5ffd5b505050506040513d601f19601f820116820180604052508101906104d991906116c1565b915091506104ea8383836001610c04565b505050505050505050565b5f6104fe610a69565b905061050981610683565b61054a57806040517f1594b2f10000000000000000000000000000000000000000000000000000000081526004016105419190611620565b60405180910390fd5b5f610553610a69565b9050600160065f8373ffffffffffffffffffffffffffffffffffffffff1673ffffffffffffffffffffffffffffffffffffffff1681526020019081526020015f205f6101000a81548160ff0219169083151502179055505050565b5f805f8373ffffffffffffffffffffffffffffffffffffffff1673ffffffffffffffffffffffffffffffffffffffff1681526020019081526020015f20549050919050565b606060048054610602906115e1565b80601f016020809104026020016040519081016040528092919081815260200182805461062e906115e1565b80156106795780601f1061065057610100808354040283529160200191610679565b820191905f5260205f20905b81548152906001019060200180831161065c57829003601f168201915b5050505050905090565b5f8030905060055f9054906101000a900473ffffffffffffffffffffffffffffffffffffffff1673ffffffffffffffffffffffffffffffffffffffff1663a5d73ebe82856040518363ffffffff1660e01b81526004016106e49291906116ff565b602060405180830381865afa1580156106ff573d5f803e3d5ffd5b505050506040513d601f19601f820116820180604052508101906107239190611750565b915050919050565b5f610734610a69565b905061073f81610683565b61078057806040517f1594b2f10000000000000000000000000000000000000000000000000000000081526004016107779190611620565b60405180910390fd5b50565b5f8061078d610a69565b905061079a818585610b14565b600191505092915050565b5f6107ae610a69565b90506107b981610683565b801561080c575060065f8273ffffffffffffffffffffffffffffffffffffffff1673ffffffffffffffffffffffffffffffffffffffff1681526020019081526020015f205f9054906101000a900460ff16155b1561084e57806040517f1594b2f10000000000000000000000000000000000000000000000000000000081526004016108459190611620565b60405180910390fd5b5f610857610a69565b905061086281610683565b6108a357806040517f1594b2f100000000000000000000000000000000000000000000000000000000815260040161089a9190611620565b60405180910390fd5b5f6108ac610a69565b90505f60065f8373ffffffffffffffffffffffffffffffffffffffff1673ffffffffffffffffffffffffffffffffffffffff1681526020019081526020015f205f6101000a81548160ff021916908315150217905550505050565b5f610910610a69565b905061091b81610683565b61095c57806040517f1594b2f10000000000000000000000000000000000000000000000000000000081526004016109539190611620565b60405180910390fd5b60055f9054906101000a900473ffffffffffffffffffffffffffffffffffffffff1673ffffffffffffffffffffffffffffffffffffffff16636cc7af2c836040518263ffffffff1660e01b81526004016109b6919061177b565b5f604051808303815f87803b1580156109cd575f80fd5b505af11580156109df573d5f803e3d5ffd5b505050505050565b5f60015f8473ffffffffffffffffffffffffffffffffffffffff1673ffffffffffffffffffffffffffffffffffffffff1681526020019081526020015f205f8373ffffffffffffffffffffffffffffffffffffffff1673ffffffffffffffffffffffffffffffffffffffff1681526020019081526020015f2054905092915050565b5f33905090565b610a7d8383836001610dd3565b505050565b5f610a8d84846109e7565b90507fffffffffffffffffffffffffffffffffffffffffffffffffffffffffffffffff8114610b0e5781811015610aff578281836040517ffb8f41b2000000000000000000000000000000000000000000000000000000008152600401610af693929190611794565b60405180910390fd5b610b0d84848484035f610dd3565b5b50505050565b5f73ffffffffffffffffffffffffffffffffffffffff168373ffffffffffffffffffffffffffffffffffffffff1603610b84575f6040517f96c6fd1e000000000000000000000000000000000000000000000000000000008152600401610b7b9190611620565b60405180910390fd5b5f73ffffffffffffffffffffffffffffffffffffffff168273ffffffffffffffffffffffffffffffffffffffff1603610bf4575f6040517fec442f05000000000000000000000000000000000000000000000000000000008152600401610beb9190611620565b60405180910390fd5b610bff838383610fad565b505050565b5f73ffffffffffffffffffffffffffffffffffffffff168473ffffffffffffffffffffffffffffffffffffffff1603610c74575f6040517fe602df05000000000000000000000000000000000000000000000000000000008152600401610c6b9190611620565b60405180910390fd5b5f73ffffffffffffffffffffffffffffffffffffffff168373ffffffffffffffffffffffffffffffffffffffff1603610ce4575f6040517f94280d62000000000000000000000000000000000000000000000000000000008152600401610cdb9190611620565b60405180910390fd5b8160015f8673ffffffffffffffffffffffffffffffffffffffff1673ffffffffffffffffffffffffffffffffffffffff1681526020019081526020015f205f8573ffffffffffffffffffffffffffffffffffffffff1673ffffffffffffffffffffffffffffffffffffffff1681526020019081526020015f20819055508015610dcd578273ffffffffffffffffffffffffffffffffffffffff168473ffffffffffffffffffffffffffffffffffffffff167f8c5be1e5ebec7d5bd14f71427d1e84f3dd0314c0f7b2291e5b200ac8c7c3b92584604051610dc491906113af565b60405180910390a35b50505050565b610ddc84610683565b610df157610dec84848484610c04565b610fa7565b60065f8573ffffffffffffffffffffffffffffffffffffffff1673ffffffffffffffffffffffffffffffffffffffff1681526020019081526020015f205f9054906101000a900460ff16610e7c57836040517f1594b2f1000000000000000000000000000000000000000000000000000000008152600401610e739190611620565b60405180910390fd5b60065f8473ffffffffffffffffffffffffffffffffffffffff1673ffffffffffffffffffffffffffffffffffffffff1681526020019081526020015f205f9054906101000a900460ff16610f0757826040517f1594b2f1000000000000000000000000000000000000000000000000000000008152600401610efe9190611620565b60405180910390fd5b60055f9054906101000a900473ffffffffffffffffffffffffffffffffffffffff1673ffffffffffffffffffffffffffffffffffffffff1663067477218585856040518463ffffffff1660e01b8152600401610f65939291906117c9565b6020604051808303815f875af1158015610f81573d5f803e3d5ffd5b505050506040513d601f19601f82011682018060405250810190610fa59190611812565b505b50505050565b610fb683610683565b610fca57610fc5838383610fdb565b610fd6565b610fd5838383610fdb565b5b505050565b5f73ffffffffffffffffffffffffffffffffffffffff168373ffffffffffffffffffffffffffffffffffffffff160361102b578060025f82825461101f919061186a565b925050819055506110f9565b5f805f8573ffffffffffffffffffffffffffffffffffffffff1673ffffffffffffffffffffffffffffffffffffffff1681526020019081526020015f20549050818110156110b4578381836040517fe450d38c0000000000000000000000000000000000000000000000000000000081526004016110ab93929190611794565b60405180910390fd5b8181035f808673ffffffffffffffffffffffffffffffffffffffff1673ffffffffffffffffffffffffffffffffffffffff1681526020019081526020015f2081905550505b5f73ffffffffffffffffffffffffffffffffffffffff168273ffffffffffffffffffffffffffffffffffffffff1603611140578060025f828254039250508190555061118a565b805f808473ffffffffffffffffffffffffffffffffffffffff1673ffffffffffffffffffffffffffffffffffffffff1681526020019081526020015f205f82825401925050819055505b8173ffffffffffffffffffffffffffffffffffffffff168373ffffffffffffffffffffffffffffffffffffffff167fddf252ad1be2c89b69c2b068fc378daa952ba7f163c4a11628f55a4df523b3ef836040516111e791906113af565b60405180910390a3505050565b5f81519050919050565b5f82825260208201905092915050565b5f5b8381101561122b578082015181840152602081019050611210565b5f8484015250505050565b5f601f19601f8301169050919050565b5f611250826111f4565b61125a81856111fe565b935061126a81856020860161120e565b61127381611236565b840191505092915050565b5f6020820190508181035f8301526112968184611246565b905092915050565b5f80fd5b5f73ffffffffffffffffffffffffffffffffffffffff82169050919050565b5f6112cb826112a2565b9050919050565b6112db816112c1565b81146112e5575f80fd5b50565b5f813590506112f6816112d2565b92915050565b5f819050919050565b61130e816112fc565b8114611318575f80fd5b50565b5f8135905061132981611305565b92915050565b5f80604083850312156113455761134461129e565b5b5f611352858286016112e8565b92505060206113638582860161131b565b9150509250929050565b5f8115159050919050565b6113818161136d565b82525050565b5f60208201905061139a5f830184611378565b92915050565b6113a9816112fc565b82525050565b5f6020820190506113c25f8301846113a0565b92915050565b5f805f606084860312156113df576113de61129e565b5b5f6113ec868287016112e8565b93505060206113fd868287016112e8565b925050604061140e8682870161131b565b9150509250925092565b5f60ff82169050919050565b61142d81611418565b82525050565b5f6020820190506114465f830184611424565b92915050565b5f819050919050565b61145e8161144c565b8114611468575f80fd5b50565b5f8135905061147981611455565b92915050565b61148881611418565b8114611492575f80fd5b50565b5f813590506114a38161147f565b92915050565b5f805f805f60a086880312156114c2576114c161129e565b5b5f6114cf8882890161146b565b95505060206114e08882890161146b565b94505060406114f188828901611495565b93505060606115028882890161146b565b92505060806115138882890161146b565b9150509295509295909350565b5f602082840312156115355761153461129e565b5b5f611542848285016112e8565b91505092915050565b5f602082840312156115605761155f61129e565b5b5f61156d8482850161146b565b91505092915050565b5f806040838503121561158c5761158b61129e565b5b5f611599858286016112e8565b92505060206115aa858286016112e8565b9150509250929050565b7f4e487b71000000000000000000000000000000000000000000000000000000005f52602260045260245ffd5b5f60028204905060018216806115f857607f821691505b60208210810361160b5761160a6115b4565b5b50919050565b61161a816112c1565b82525050565b5f6020820190506116335f830184611611565b92915050565b6116428161144c565b82525050565b5f60a08201905061165b5f830188611639565b6116686020830187611424565b6116756040830186611639565b6116826060830185611639565b61168f6080830184611639565b9695505050505050565b5f815190506116a7816112d2565b92915050565b5f815190506116bb81611305565b92915050565b5f80604083850312156116d7576116d661129e565b5b5f6116e485828601611699565b92505060206116f5858286016116ad565b9150509250929050565b5f6040820190506117125f830185611611565b61171f6020830184611611565b9392505050565b61172f8161136d565b8114611739575f80fd5b50565b5f8151905061174a81611726565b92915050565b5f602082840312156117655761176461129e565b5b5f6117728482850161173c565b91505092915050565b5f60208201905061178e5f830184611639565b92915050565b5f6060820190506117a75f830186611611565b6117b460208301856113a0565b6117c160408301846113a0565b949350505050565b5f6060820190506117dc5f830186611611565b6117e96020830185611611565b6117f660408301846113a0565b949350505050565b5f8151905061180c81611455565b92915050565b5f602082840312156118275761182661129e565b5b5f611834848285016117fe565b91505092915050565b7f4e487b71000000000000000000000000000000000000000000000000000000005f52601160045260245ffd5b5f611874826112fc565b915061187f836112fc565b92508282019050808211156118975761189661183d565b5b9291505056fea2646970667358221220efbd3f89339e5745e14d7ada0af4df68639e157dcad3a01acabe913bc4ab724064736f6c63430008140033",
  "immutableReferences": {},
  "source": "// SPDX-License-Identifier: MIT\r\npragma solidity ^0.8.20;\r\n\r\nimport {HybridToken} from \"../HybridToken.sol\";\r\n\r\ncontract WrappedBNB is HybridToken {\r\n    constructor(address hybridContract) HybridToken(\"Wrapped BNB\", \"WBNB\", hybridContract) {\r\n        _mint(_msgSender(), 100_000_000_000_000_000_000_000_000_000_000);\r\n    }\r\n}",
  "sourcePath": "C:\\Users\\DELL\\Documents\\hybrid.bnb.hack\\hybrid-token\\contracts\\usecases\\WrappedBNB.sol",
  "compiler": {
    "name": "solc",
    "version": "0.8.20+commit.a1b79de6.Emscripten.clang"
  },
  "schemaVersion": "3.4.11",
  "updatedAt": "2024-02-12T17:43:39.868Z",
  "devdoc": {
    "errors": {
      "ERC20InsufficientAllowance(address,uint256,uint256)": [
        {
          "details": "Indicates a failure with the `spender`s `allowance`. Used in transfers.",
          "params": {
            "allowance": "Amount of tokens a `spender` is allowed to operate with.",
            "needed": "Minimum amount required to perform a transfer.",
            "spender": "Address that may be allowed to operate on tokens without being their owner."
          }
        }
      ],
      "ERC20InsufficientBalance(address,uint256,uint256)": [
        {
          "details": "Indicates an error related to the current `balance` of a `sender`. Used in transfers.",
          "params": {
            "balance": "Current balance for the interacting account.",
            "needed": "Minimum amount required to perform a transfer.",
            "sender": "Address whose tokens are being transferred."
          }
        }
      ],
      "ERC20InvalidApprover(address)": [
        {
          "details": "Indicates a failure with the `approver` of a token to be approved. Used in approvals.",
          "params": {
            "approver": "Address initiating an approval operation."
          }
        }
      ],
      "ERC20InvalidReceiver(address)": [
        {
          "details": "Indicates a failure with the token `receiver`. Used in transfers.",
          "params": {
            "receiver": "Address to which tokens are being transferred."
          }
        }
      ],
      "ERC20InvalidSender(address)": [
        {
          "details": "Indicates a failure with the token `sender`. Used in transfers.",
          "params": {
            "sender": "Address whose tokens are being transferred."
          }
        }
      ],
      "ERC20InvalidSpender(address)": [
        {
          "details": "Indicates a failure with the `spender` to be approved. Used in approvals.",
          "params": {
            "spender": "Address that may be allowed to operate on tokens without being their owner."
          }
        }
      ]
    },
    "events": {
      "Approval(address,address,uint256)": {
        "details": "Emitted when the allowance of a `spender` for an `owner` is set by a call to {approve}. `value` is the new allowance."
      },
      "Transfer(address,address,uint256)": {
        "details": "Emitted when `value` tokens are moved from one account (`from`) to another (`to`). Note that `value` may be zero."
      }
    },
    "kind": "dev",
    "methods": {
      "allowance(address,address)": {
        "details": "See {IERC20-allowance}."
      },
      "approve(address,uint256)": {
        "details": "See {IERC20-approve}. NOTE: If `value` is the maximum `uint256`, the allowance is not updated on `transferFrom`. This is semantically equivalent to an infinite approval. Requirements: - `spender` cannot be the zero address."
      },
      "balanceOf(address)": {
        "details": "See {IERC20-balanceOf}."
      },
      "decimals()": {
        "details": "Returns the number of decimals used to get its user representation. For example, if `decimals` equals `2`, a balance of `505` tokens should be displayed to a user as `5.05` (`505 / 10 ** 2`). Tokens usually opt for a value of 18, imitating the relationship between Ether and Wei. This is the default value returned by this function, unless it's overridden. NOTE: This information is only used for _display_ purposes: it in no way affects any of the arithmetic of the contract, including {IERC20-balanceOf} and {IERC20-transfer}."
      },
      "name()": {
        "details": "Returns the name of the token."
      },
      "symbol()": {
        "details": "Returns the symbol of the token, usually a shorter version of the name."
      },
      "totalSupply()": {
        "details": "See {IERC20-totalSupply}."
      },
      "transfer(address,uint256)": {
        "details": "See {IERC20-transfer}. Requirements: - `to` cannot be the zero address. - the caller must have a balance of at least `value`."
      },
      "transferFrom(address,address,uint256)": {
        "details": "See {IERC20-transferFrom}. Emits an {Approval} event indicating the updated allowance. This is not required by the EIP. See the note at the beginning of {ERC20}. NOTE: Does not update the allowance if the current allowance is the maximum `uint256`. Requirements: - `from` and `to` cannot be the zero address. - `from` must have a balance of at least `value`. - the caller must have allowance for ``from``'s tokens of at least `value`."
      }
    },
    "version": 1
  },
  "userdoc": {
    "kind": "user",
    "methods": {},
    "version": 1
  }
}