{
  "contractName": "WrappedBNB",
  "abi": [
    {
      "inputs": [
        {
          "internalType": "address",
          "name": "hybridContract",
          "type": "address"
        }
      ],
      "stateMutability": "nonpayable",
      "type": "constructor"
    },
    {
      "inputs": [
        {
          "internalType": "address",
          "name": "spender",
          "type": "address"
        },
        {
          "internalType": "uint256",
          "name": "allowance",
          "type": "uint256"
        },
        {
          "internalType": "uint256",
          "name": "needed",
          "type": "uint256"
        }
      ],
      "name": "ERC20InsufficientAllowance",
      "type": "error"
    },
    {
      "inputs": [
        {
          "internalType": "address",
          "name": "sender",
          "type": "address"
        },
        {
          "internalType": "uint256",
          "name": "balance",
          "type": "uint256"
        },
        {
          "internalType": "uint256",
          "name": "needed",
          "type": "uint256"
        }
      ],
      "name": "ERC20InsufficientBalance",
      "type": "error"
    },
    {
      "inputs": [
        {
          "internalType": "address",
          "name": "approver",
          "type": "address"
        }
      ],
      "name": "ERC20InvalidApprover",
      "type": "error"
    },
    {
      "inputs": [
        {
          "internalType": "address",
          "name": "receiver",
          "type": "address"
        }
      ],
      "name": "ERC20InvalidReceiver",
      "type": "error"
    },
    {
      "inputs": [
        {
          "internalType": "address",
          "name": "sender",
          "type": "address"
        }
      ],
      "name": "ERC20InvalidSender",
      "type": "error"
    },
    {
      "inputs": [
        {
          "internalType": "address",
          "name": "spender",
          "type": "address"
        }
      ],
      "name": "ERC20InvalidSpender",
      "type": "error"
    },
    {
      "inputs": [
        {
          "internalType": "address",
          "name": "owner",
          "type": "address"
        }
      ],
      "name": "OptInRequired",
      "type": "error"
    },
    {
      "anonymous": false,
      "inputs": [
        {
          "indexed": true,
          "internalType": "address",
          "name": "owner",
          "type": "address"
        },
        {
          "indexed": true,
          "internalType": "address",
          "name": "spender",
          "type": "address"
        },
        {
          "indexed": false,
          "internalType": "uint256",
          "name": "value",
          "type": "uint256"
        }
      ],
      "name": "Approval",
      "type": "event"
    },
    {
      "anonymous": false,
      "inputs": [
        {
          "indexed": true,
          "internalType": "address",
          "name": "from",
          "type": "address"
        },
        {
          "indexed": true,
          "internalType": "address",
          "name": "to",
          "type": "address"
        },
        {
          "indexed": false,
          "internalType": "uint256",
          "name": "value",
          "type": "uint256"
        }
      ],
      "name": "Transfer",
      "type": "event"
    },
    {
      "inputs": [
        {
          "internalType": "address",
          "name": "owner",
          "type": "address"
        },
        {
          "internalType": "address",
          "name": "spender",
          "type": "address"
        }
      ],
      "name": "allowance",
      "outputs": [
        {
          "internalType": "uint256",
          "name": "",
          "type": "uint256"
        }
      ],
      "stateMutability": "view",
      "type": "function",
      "constant": true
    },
    {
      "inputs": [
        {
          "internalType": "address",
          "name": "spender",
          "type": "address"
        },
        {
          "internalType": "uint256",
          "name": "value",
          "type": "uint256"
        }
      ],
      "name": "approve",
      "outputs": [
        {
          "internalType": "bool",
          "name": "",
          "type": "bool"
        }
      ],
      "stateMutability": "nonpayable",
      "type": "function"
    },
    {
      "inputs": [
        {
          "internalType": "address",
          "name": "account",
          "type": "address"
        }
      ],
      "name": "balanceOf",
      "outputs": [
        {
          "internalType": "uint256",
          "name": "",
          "type": "uint256"
        }
      ],
      "stateMutability": "view",
      "type": "function",
      "constant": true
    },
    {
      "inputs": [],
      "name": "decimals",
      "outputs": [
        {
          "internalType": "uint8",
          "name": "",
          "type": "uint8"
        }
      ],
      "stateMutability": "view",
      "type": "function",
      "constant": true
    },
    {
      "inputs": [
        {
          "internalType": "address",
          "name": "owner",
          "type": "address"
        }
      ],
      "name": "isUpgraded",
      "outputs": [
        {
          "internalType": "bool",
          "name": "",
          "type": "bool"
        }
      ],
      "stateMutability": "view",
      "type": "function",
      "constant": true
    },
    {
      "inputs": [],
      "name": "name",
      "outputs": [
        {
          "internalType": "string",
          "name": "",
          "type": "string"
        }
      ],
      "stateMutability": "view",
      "type": "function",
      "constant": true
    },
    {
      "inputs": [],
      "name": "optIn",
      "outputs": [],
      "stateMutability": "nonpayable",
      "type": "function"
    },
    {
      "inputs": [],
      "name": "optOut",
      "outputs": [],
      "stateMutability": "nonpayable",
      "type": "function"
    },
    {
      "inputs": [
        {
          "internalType": "bytes32",
          "name": "approvalId",
          "type": "bytes32"
        }
      ],
      "name": "rejectApproval",
      "outputs": [],
      "stateMutability": "nonpayable",
      "type": "function"
    },
    {
      "inputs": [
        {
          "internalType": "bytes32",
          "name": "approvalId",
          "type": "bytes32"
        },
        {
          "internalType": "bytes32",
          "name": "message",
          "type": "bytes32"
        },
        {
          "internalType": "bytes",
          "name": "signature",
          "type": "bytes"
        }
      ],
      "name": "submitApprovalProof",
      "outputs": [],
      "stateMutability": "nonpayable",
      "type": "function"
    },
    {
      "inputs": [
        {
          "internalType": "bytes32",
          "name": "message",
          "type": "bytes32"
        },
        {
          "internalType": "bytes",
          "name": "signature",
          "type": "bytes"
        }
      ],
      "name": "submitDowngradeProof",
      "outputs": [],
      "stateMutability": "nonpayable",
      "type": "function"
    },
    {
      "inputs": [],
      "name": "symbol",
      "outputs": [
        {
          "internalType": "string",
          "name": "",
          "type": "string"
        }
      ],
      "stateMutability": "view",
      "type": "function",
      "constant": true
    },
    {
      "inputs": [],
      "name": "totalSupply",
      "outputs": [
        {
          "internalType": "uint256",
          "name": "",
          "type": "uint256"
        }
      ],
      "stateMutability": "view",
      "type": "function",
      "constant": true
    },
    {
      "inputs": [
        {
          "internalType": "address",
          "name": "to",
          "type": "address"
        },
        {
          "internalType": "uint256",
          "name": "value",
          "type": "uint256"
        }
      ],
      "name": "transfer",
      "outputs": [
        {
          "internalType": "bool",
          "name": "",
          "type": "bool"
        }
      ],
      "stateMutability": "nonpayable",
      "type": "function"
    },
    {
      "inputs": [
        {
          "internalType": "address",
          "name": "from",
          "type": "address"
        },
        {
          "internalType": "address",
          "name": "to",
          "type": "address"
        },
        {
          "internalType": "uint256",
          "name": "value",
          "type": "uint256"
        }
      ],
      "name": "transferFrom",
      "outputs": [
        {
          "internalType": "bool",
          "name": "",
          "type": "bool"
        }
      ],
      "stateMutability": "nonpayable",
      "type": "function"
    },
    {
      "inputs": [],
      "name": "upgradeAsset",
      "outputs": [],
      "stateMutability": "nonpayable",
      "type": "function"
    },
    {
      "inputs": [
        {
          "internalType": "uint256",
          "name": "amount",
          "type": "uint256"
        }
      ],
      "name": "faucet",
      "outputs": [],
      "stateMutability": "nonpayable",
      "type": "function"
    }
  ],
  "bytecode": "0x608060405234801562000010575f80fd5b50604051620026d2380380620026d283398181016040528101906200003691906200017a565b6040518060400160405280600b81526020017f5772617070656420424e420000000000000000000000000000000000000000008152506040518060400160405280600481526020017f57424e42000000000000000000000000000000000000000000000000000000008152508282828160039081620000b691906200040e565b508060049081620000c891906200040e565b5050508060055f6101000a81548173ffffffffffffffffffffffffffffffffffffffff021916908373ffffffffffffffffffffffffffffffffffffffff16021790555050505050620004f2565b5f80fd5b5f73ffffffffffffffffffffffffffffffffffffffff82169050919050565b5f620001448262000119565b9050919050565b620001568162000138565b811462000161575f80fd5b50565b5f8151905062000174816200014b565b92915050565b5f6020828403121562000192576200019162000115565b5b5f620001a18482850162000164565b91505092915050565b5f81519050919050565b7f4e487b71000000000000000000000000000000000000000000000000000000005f52604160045260245ffd5b7f4e487b71000000000000000000000000000000000000000000000000000000005f52602260045260245ffd5b5f60028204905060018216806200022657607f821691505b6020821081036200023c576200023b620001e1565b5b50919050565b5f819050815f5260205f209050919050565b5f6020601f8301049050919050565b5f82821b905092915050565b5f60088302620002a07fffffffffffffffffffffffffffffffffffffffffffffffffffffffffffffffff8262000263565b620002ac868362000263565b95508019841693508086168417925050509392505050565b5f819050919050565b5f819050919050565b5f620002f6620002f0620002ea84620002c4565b620002cd565b620002c4565b9050919050565b5f819050919050565b6200031183620002d6565b620003296200032082620002fd565b8484546200026f565b825550505050565b5f90565b6200033f62000331565b6200034c81848462000306565b505050565b5b818110156200037357620003675f8262000335565b60018101905062000352565b5050565b601f821115620003c2576200038c8162000242565b620003978462000254565b81016020851015620003a7578190505b620003bf620003b68562000254565b83018262000351565b50505b505050565b5f82821c905092915050565b5f620003e45f1984600802620003c7565b1980831691505092915050565b5f620003fe8383620003d3565b9150826002028217905092915050565b6200041982620001aa565b67ffffffffffffffff811115620004355762000434620001b4565b5b6200044182546200020e565b6200044e82828562000377565b5f60209050601f83116001811462000484575f84156200046f578287015190505b6200047b8582620003f1565b865550620004ea565b601f198416620004948662000242565b5f5b82811015620004bd5784890151825560018201915060208501945060208101905062000496565b86831015620004dd5784890151620004d9601f891682620003d3565b8355505b6001600288020188555050505b505050505050565b6121d280620005005f395ff3fe608060405234801561000f575f80fd5b5060043610610109575f3560e01c806370a08231116100a0578063a9059cbb1161006f578063a9059cbb146102a3578063ad2c68fc146102d3578063d4eec5a6146102dd578063d510a856146102e7578063dd62ed3e1461030357610109565b806370a0823114610209578063773a0da91461023957806395d89b411461025557806395ef84b91461027357610109565b8063313ce567116100dc578063313ce567146101a95780634f758cd1146101c757806357915897146101e35780635b48684e146101ff57610109565b806306fdde031461010d578063095ea7b31461012b57806318160ddd1461015b57806323b872dd14610179575b5f80fd5b610115610333565b60405161012291906118e0565b60405180910390f35b6101456004803603810190610140919061199e565b6103c3565b60405161015291906119f6565b60405180910390f35b6101636103e5565b6040516101709190611a1e565b60405180910390f35b610193600480360381019061018e9190611a37565b6103ee565b6040516101a091906119f6565b60405180910390f35b6101b161041d565b6040516101be9190611aa2565b60405180910390f35b6101e160048036038101906101dc9190611c1a565b610425565b005b6101fd60048036038101906101f89190611c86565b6105bb565b005b6102076105cf565b005b610223600480360381019061021e9190611cb1565b610632565b6040516102309190611a1e565b60405180910390f35b610253600480360381019061024e9190611cdc565b610677565b005b61025d610768565b60405161026a91906118e0565b60405180910390f35b61028d60048036038101906102889190611cb1565b6107f8565b60405161029a91906119f6565b60405180910390f35b6102bd60048036038101906102b8919061199e565b6108a0565b6040516102ca91906119f6565b60405180910390f35b6102db6108c2565b005b6102e5610957565b005b61030160048036038101906102fc9190611d36565b610a63565b005b61031d60048036038101906103189190611d61565b610b43565b60405161032a9190611a1e565b60405180910390f35b60606003805461034290611dcc565b80601f016020809104026020016040519081016040528092919081815260200182805461036e90611dcc565b80156103b95780601f10610390576101008083540402835291602001916103b9565b820191905f5260205f20905b81548152906001019060200180831161039c57829003601f168201915b5050505050905090565b5f806103cd610bc5565b90506103da818585610bcc565b600191505092915050565b5f600254905090565b5f806103f8610bc5565b9050610405858285610bde565b61041185828686610c70565b60019150509392505050565b5f6012905090565b5f61042e610bc5565b9050610439816107f8565b61047a57806040517f1594b2f10000000000000000000000000000000000000000000000000000000081526004016104719190611e0b565b60405180910390fd5b5f610483610bc5565b90505f8060055f9054906101000a900473ffffffffffffffffffffffffffffffffffffffff1673ffffffffffffffffffffffffffffffffffffffff1663ebca197d87878a6040518463ffffffff1660e01b81526004016104e593929190611e85565b60408051808303815f875af1158015610500573d5f803e3d5ffd5b505050506040513d601f19601f820116820180604052508101906105249190611ee9565b915091506105358383836001610f3c565b8060075f8573ffffffffffffffffffffffffffffffffffffffff1673ffffffffffffffffffffffffffffffffffffffff1681526020019081526020015f205f8473ffffffffffffffffffffffffffffffffffffffff1673ffffffffffffffffffffffffffffffffffffffff1681526020019081526020015f208190555050505050505050565b6105cc6105c6610bc5565b8261110b565b50565b5f6105d8610bc5565b9050600160065f8373ffffffffffffffffffffffffffffffffffffffff1673ffffffffffffffffffffffffffffffffffffffff1681526020019081526020015f205f6101000a81548160ff02191690831515021790555050565b5f805f8373ffffffffffffffffffffffffffffffffffffffff1673ffffffffffffffffffffffffffffffffffffffff1681526020019081526020015f20549050919050565b5f610680610bc5565b905061068b816107f8565b6106cc57806040517f1594b2f10000000000000000000000000000000000000000000000000000000081526004016106c39190611e0b565b60405180910390fd5b5f6106d5610bc5565b905060055f9054906101000a900473ffffffffffffffffffffffffffffffffffffffff1673ffffffffffffffffffffffffffffffffffffffff16637bd6f9c18585846040518463ffffffff1660e01b815260040161073593929190611f27565b5f604051808303815f87803b15801561074c575f80fd5b505af115801561075e573d5f803e3d5ffd5b5050505050505050565b60606004805461077790611dcc565b80601f01602080910402602001604051908101604052809291908181526020018280546107a390611dcc565b80156107ee5780601f106107c5576101008083540402835291602001916107ee565b820191905f5260205f20905b8154815290600101906020018083116107d157829003601f168201915b5050505050905090565b5f8030905060055f9054906101000a900473ffffffffffffffffffffffffffffffffffffffff1673ffffffffffffffffffffffffffffffffffffffff1663a5d73ebe82856040518363ffffffff1660e01b8152600401610859929190611f63565b602060405180830381865afa158015610874573d5f803e3d5ffd5b505050506040513d601f19601f820116820180604052508101906108989190611fb4565b915050919050565b5f806108aa610bc5565b90506108b781858561118a565b600191505092915050565b5f6108cb610bc5565b905060055f9054906101000a900473ffffffffffffffffffffffffffffffffffffffff1673ffffffffffffffffffffffffffffffffffffffff16632bb5e6e3826040518263ffffffff1660e01b81526004016109279190611e0b565b5f604051808303815f87803b15801561093e575f80fd5b505af1158015610950573d5f803e3d5ffd5b5050505050565b5f610960610bc5565b905061096b816107f8565b80156109be575060065f8273ffffffffffffffffffffffffffffffffffffffff1673ffffffffffffffffffffffffffffffffffffffff1681526020019081526020015f205f9054906101000a900460ff16155b15610a0057806040517f1594b2f10000000000000000000000000000000000000000000000000000000081526004016109f79190611e0b565b60405180910390fd5b5f610a09610bc5565b90505f60065f8373ffffffffffffffffffffffffffffffffffffffff1673ffffffffffffffffffffffffffffffffffffffff1681526020019081526020015f205f6101000a81548160ff0219169083151502179055505050565b5f610a6c610bc5565b9050610a77816107f8565b610ab857806040517f1594b2f1000000000000000000000000000000000000000000000000000000008152600401610aaf9190611e0b565b60405180910390fd5b60055f9054906101000a900473ffffffffffffffffffffffffffffffffffffffff1673ffffffffffffffffffffffffffffffffffffffff16636cc7af2c836040518263ffffffff1660e01b8152600401610b129190611fdf565b5f604051808303815f87803b158015610b29575f80fd5b505af1158015610b3b573d5f803e3d5ffd5b505050505050565b5f60015f8473ffffffffffffffffffffffffffffffffffffffff1673ffffffffffffffffffffffffffffffffffffffff1681526020019081526020015f205f8373ffffffffffffffffffffffffffffffffffffffff1673ffffffffffffffffffffffffffffffffffffffff1681526020019081526020015f2054905092915050565b5f33905090565b610bd9838383600161127a565b505050565b5f610be98484610b43565b90507fffffffffffffffffffffffffffffffffffffffffffffffffffffffffffffffff8114610c6a5781811015610c5b578281836040517ffb8f41b2000000000000000000000000000000000000000000000000000000008152600401610c5293929190611ff8565b60405180910390fd5b610c6984848484035f61127a565b5b50505050565b8060075f8673ffffffffffffffffffffffffffffffffffffffff1673ffffffffffffffffffffffffffffffffffffffff1681526020019081526020015f205f8573ffffffffffffffffffffffffffffffffffffffff1673ffffffffffffffffffffffffffffffffffffffff1681526020019081526020015f20541015610d2b576040517f08c379a0000000000000000000000000000000000000000000000000000000008152600401610d2290612077565b60405180910390fd5b8060075f8673ffffffffffffffffffffffffffffffffffffffff1673ffffffffffffffffffffffffffffffffffffffff1681526020019081526020015f205f8573ffffffffffffffffffffffffffffffffffffffff1673ffffffffffffffffffffffffffffffffffffffff1681526020019081526020015f2054610daf91906120c2565b60075f8673ffffffffffffffffffffffffffffffffffffffff1673ffffffffffffffffffffffffffffffffffffffff1681526020019081526020015f205f8573ffffffffffffffffffffffffffffffffffffffff1673ffffffffffffffffffffffffffffffffffffffff1681526020019081526020015f20819055508060075f8673ffffffffffffffffffffffffffffffffffffffff1673ffffffffffffffffffffffffffffffffffffffff1681526020019081526020015f205f8473ffffffffffffffffffffffffffffffffffffffff1673ffffffffffffffffffffffffffffffffffffffff1681526020019081526020015f2054610eaf91906120f5565b60075f8673ffffffffffffffffffffffffffffffffffffffff1673ffffffffffffffffffffffffffffffffffffffff1681526020019081526020015f205f8473ffffffffffffffffffffffffffffffffffffffff1673ffffffffffffffffffffffffffffffffffffffff1681526020019081526020015f2081905550610f3684838361118a565b50505050565b5f73ffffffffffffffffffffffffffffffffffffffff168473ffffffffffffffffffffffffffffffffffffffff1603610fac575f6040517fe602df05000000000000000000000000000000000000000000000000000000008152600401610fa39190611e0b565b60405180910390fd5b5f73ffffffffffffffffffffffffffffffffffffffff168373ffffffffffffffffffffffffffffffffffffffff160361101c575f6040517f94280d620000000000000000000000000000000000000000000000000000000081526004016110139190611e0b565b60405180910390fd5b8160015f8673ffffffffffffffffffffffffffffffffffffffff1673ffffffffffffffffffffffffffffffffffffffff1681526020019081526020015f205f8573ffffffffffffffffffffffffffffffffffffffff1673ffffffffffffffffffffffffffffffffffffffff1681526020019081526020015f20819055508015611105578273ffffffffffffffffffffffffffffffffffffffff168473ffffffffffffffffffffffffffffffffffffffff167f8c5be1e5ebec7d5bd14f71427d1e84f3dd0314c0f7b2291e5b200ac8c7c3b925846040516110fc9190611a1e565b60405180910390a35b50505050565b5f73ffffffffffffffffffffffffffffffffffffffff168273ffffffffffffffffffffffffffffffffffffffff160361117b575f6040517fec442f050000000000000000000000000000000000000000000000000000000081526004016111729190611e0b565b60405180910390fd5b6111865f838361133e565b5050565b5f73ffffffffffffffffffffffffffffffffffffffff168373ffffffffffffffffffffffffffffffffffffffff16036111fa575f6040517f96c6fd1e0000000000000000000000000000000000000000000000000000000081526004016111f19190611e0b565b60405180910390fd5b5f73ffffffffffffffffffffffffffffffffffffffff168273ffffffffffffffffffffffffffffffffffffffff160361126a575f6040517fec442f050000000000000000000000000000000000000000000000000000000081526004016112619190611e0b565b60405180910390fd5b61127583838361133e565b505050565b611283846107f8565b6112985761129384848484610f3c565b611338565b60055f9054906101000a900473ffffffffffffffffffffffffffffffffffffffff1673ffffffffffffffffffffffffffffffffffffffff1663067477218585856040518463ffffffff1660e01b81526004016112f693929190612128565b6020604051808303815f875af1158015611312573d5f803e3d5ffd5b505050506040513d601f19601f820116820180604052508101906113369190612171565b505b50505050565b60065f8473ffffffffffffffffffffffffffffffffffffffff1673ffffffffffffffffffffffffffffffffffffffff1681526020019081526020015f205f9054906101000a900460ff166113c957826040517f1594b2f10000000000000000000000000000000000000000000000000000000081526004016113c09190611e0b565b60405180910390fd5b60065f8373ffffffffffffffffffffffffffffffffffffffff1673ffffffffffffffffffffffffffffffffffffffff1681526020019081526020015f205f9054906101000a900460ff1661145457816040517f1594b2f100000000000000000000000000000000000000000000000000000000815260040161144b9190611e0b565b60405180910390fd5b61145d836107f8565b6114715761146c83838361163d565b611638565b8060075f8573ffffffffffffffffffffffffffffffffffffffff1673ffffffffffffffffffffffffffffffffffffffff1681526020019081526020015f205f8473ffffffffffffffffffffffffffffffffffffffff1673ffffffffffffffffffffffffffffffffffffffff1681526020019081526020015f2054101561152c576040517f08c379a000000000000000000000000000000000000000000000000000000000815260040161152390612077565b60405180910390fd5b8060075f8573ffffffffffffffffffffffffffffffffffffffff1673ffffffffffffffffffffffffffffffffffffffff1681526020019081526020015f205f8473ffffffffffffffffffffffffffffffffffffffff1673ffffffffffffffffffffffffffffffffffffffff1681526020019081526020015f20546115b091906120c2565b60075f8573ffffffffffffffffffffffffffffffffffffffff1673ffffffffffffffffffffffffffffffffffffffff1681526020019081526020015f205f8473ffffffffffffffffffffffffffffffffffffffff1673ffffffffffffffffffffffffffffffffffffffff1681526020019081526020015f208190555061163783838361163d565b5b505050565b5f73ffffffffffffffffffffffffffffffffffffffff168373ffffffffffffffffffffffffffffffffffffffff160361168d578060025f82825461168191906120f5565b9250508190555061175b565b5f805f8573ffffffffffffffffffffffffffffffffffffffff1673ffffffffffffffffffffffffffffffffffffffff1681526020019081526020015f2054905081811015611716578381836040517fe450d38c00000000000000000000000000000000000000000000000000000000815260040161170d93929190611ff8565b60405180910390fd5b8181035f808673ffffffffffffffffffffffffffffffffffffffff1673ffffffffffffffffffffffffffffffffffffffff1681526020019081526020015f2081905550505b5f73ffffffffffffffffffffffffffffffffffffffff168273ffffffffffffffffffffffffffffffffffffffff16036117a2578060025f82825403925050819055506117ec565b805f808473ffffffffffffffffffffffffffffffffffffffff1673ffffffffffffffffffffffffffffffffffffffff1681526020019081526020015f205f82825401925050819055505b8173ffffffffffffffffffffffffffffffffffffffff168373ffffffffffffffffffffffffffffffffffffffff167fddf252ad1be2c89b69c2b068fc378daa952ba7f163c4a11628f55a4df523b3ef836040516118499190611a1e565b60405180910390a3505050565b5f81519050919050565b5f82825260208201905092915050565b5f5b8381101561188d578082015181840152602081019050611872565b5f8484015250505050565b5f601f19601f8301169050919050565b5f6118b282611856565b6118bc8185611860565b93506118cc818560208601611870565b6118d581611898565b840191505092915050565b5f6020820190508181035f8301526118f881846118a8565b905092915050565b5f604051905090565b5f80fd5b5f80fd5b5f73ffffffffffffffffffffffffffffffffffffffff82169050919050565b5f61193a82611911565b9050919050565b61194a81611930565b8114611954575f80fd5b50565b5f8135905061196581611941565b92915050565b5f819050919050565b61197d8161196b565b8114611987575f80fd5b50565b5f8135905061199881611974565b92915050565b5f80604083850312156119b4576119b3611909565b5b5f6119c185828601611957565b92505060206119d28582860161198a565b9150509250929050565b5f8115159050919050565b6119f0816119dc565b82525050565b5f602082019050611a095f8301846119e7565b92915050565b611a188161196b565b82525050565b5f602082019050611a315f830184611a0f565b92915050565b5f805f60608486031215611a4e57611a4d611909565b5b5f611a5b86828701611957565b9350506020611a6c86828701611957565b9250506040611a7d8682870161198a565b9150509250925092565b5f60ff82169050919050565b611a9c81611a87565b82525050565b5f602082019050611ab55f830184611a93565b92915050565b5f819050919050565b611acd81611abb565b8114611ad7575f80fd5b50565b5f81359050611ae881611ac4565b92915050565b5f80fd5b5f80fd5b7f4e487b71000000000000000000000000000000000000000000000000000000005f52604160045260245ffd5b611b2c82611898565b810181811067ffffffffffffffff82111715611b4b57611b4a611af6565b5b80604052505050565b5f611b5d611900565b9050611b698282611b23565b919050565b5f67ffffffffffffffff821115611b8857611b87611af6565b5b611b9182611898565b9050602081019050919050565b828183375f83830152505050565b5f611bbe611bb984611b6e565b611b54565b905082815260208101848484011115611bda57611bd9611af2565b5b611be5848285611b9e565b509392505050565b5f82601f830112611c0157611c00611aee565b5b8135611c11848260208601611bac565b91505092915050565b5f805f60608486031215611c3157611c30611909565b5b5f611c3e86828701611ada565b9350506020611c4f86828701611ada565b925050604084013567ffffffffffffffff811115611c7057611c6f61190d565b5b611c7c86828701611bed565b9150509250925092565b5f60208284031215611c9b57611c9a611909565b5b5f611ca88482850161198a565b91505092915050565b5f60208284031215611cc657611cc5611909565b5b5f611cd384828501611957565b91505092915050565b5f8060408385031215611cf257611cf1611909565b5b5f611cff85828601611ada565b925050602083013567ffffffffffffffff811115611d2057611d1f61190d565b5b611d2c85828601611bed565b9150509250929050565b5f60208284031215611d4b57611d4a611909565b5b5f611d5884828501611ada565b91505092915050565b5f8060408385031215611d7757611d76611909565b5b5f611d8485828601611957565b9250506020611d9585828601611957565b9150509250929050565b7f4e487b71000000000000000000000000000000000000000000000000000000005f52602260045260245ffd5b5f6002820490506001821680611de357607f821691505b602082108103611df657611df5611d9f565b5b50919050565b611e0581611930565b82525050565b5f602082019050611e1e5f830184611dfc565b92915050565b611e2d81611abb565b82525050565b5f81519050919050565b5f82825260208201905092915050565b5f611e5782611e33565b611e618185611e3d565b9350611e71818560208601611870565b611e7a81611898565b840191505092915050565b5f606082019050611e985f830186611e24565b8181036020830152611eaa8185611e4d565b9050611eb96040830184611e24565b949350505050565b5f81519050611ecf81611941565b92915050565b5f81519050611ee381611974565b92915050565b5f8060408385031215611eff57611efe611909565b5b5f611f0c85828601611ec1565b9250506020611f1d85828601611ed5565b9150509250929050565b5f606082019050611f3a5f830186611e24565b8181036020830152611f4c8185611e4d565b9050611f5b6040830184611dfc565b949350505050565b5f604082019050611f765f830185611dfc565b611f836020830184611dfc565b9392505050565b611f93816119dc565b8114611f9d575f80fd5b50565b5f81519050611fae81611f8a565b92915050565b5f60208284031215611fc957611fc8611909565b5b5f611fd684828501611fa0565b91505092915050565b5f602082019050611ff25f830184611e24565b92915050565b5f60608201905061200b5f830186611dfc565b6120186020830185611a0f565b6120256040830184611a0f565b949350505050565b7f496e73756666696369656e74207370656e6461626c65000000000000000000005f82015250565b5f612061601683611860565b915061206c8261202d565b602082019050919050565b5f6020820190508181035f83015261208e81612055565b9050919050565b7f4e487b71000000000000000000000000000000000000000000000000000000005f52601160045260245ffd5b5f6120cc8261196b565b91506120d78361196b565b92508282039050818111156120ef576120ee612095565b5b92915050565b5f6120ff8261196b565b915061210a8361196b565b925082820190508082111561212257612121612095565b5b92915050565b5f60608201905061213b5f830186611dfc565b6121486020830185611dfc565b6121556040830184611a0f565b949350505050565b5f8151905061216b81611ac4565b92915050565b5f6020828403121561218657612185611909565b5b5f6121938482850161215d565b9150509291505056fea26469706673582212208bbca1970f9313e53f215ee0c8866c8eb44f9e11e7580a08852540586812603264736f6c63430008140033",
  "immutableReferences": {},
  "source": "// SPDX-License-Identifier: MIT\r\npragma solidity ^0.8.20;\r\n\r\nimport {HybridToken} from \"../HybridToken.sol\";\r\n\r\ncontract WrappedBNB is HybridToken {\r\n    constructor(\r\n        address hybridContract\r\n    ) HybridToken(\"Wrapped BNB\", \"WBNB\", hybridContract) {}\r\n\r\n    function faucet(uint256 amount) external {\r\n        _mint(_msgSender(), amount);\r\n    }\r\n}\r\n",
  "sourcePath": "C:\\Users\\DELL\\Documents\\hybrid.bnb.hack\\hybrid-token\\contracts\\usecases\\WrappedBNB.sol",
  "compiler": {
    "name": "solc",
    "version": "0.8.20+commit.a1b79de6.Emscripten.clang"
  },
  "schemaVersion": "3.4.11",
  "updatedAt": "2024-03-03T23:18:45.980Z",
  "networkType": "ethereum",
  "devdoc": {
    "errors": {
      "ERC20InsufficientAllowance(address,uint256,uint256)": [
        {
          "details": "Indicates a failure with the `spender`s `allowance`. Used in transfers.",
          "params": {
            "allowance": "Amount of tokens a `spender` is allowed to operate with.",
            "needed": "Minimum amount required to perform a transfer.",
            "spender": "Address that may be allowed to operate on tokens without being their owner."
          }
        }
      ],
      "ERC20InsufficientBalance(address,uint256,uint256)": [
        {
          "details": "Indicates an error related to the current `balance` of a `sender`. Used in transfers.",
          "params": {
            "balance": "Current balance for the interacting account.",
            "needed": "Minimum amount required to perform a transfer.",
            "sender": "Address whose tokens are being transferred."
          }
        }
      ],
      "ERC20InvalidApprover(address)": [
        {
          "details": "Indicates a failure with the `approver` of a token to be approved. Used in approvals.",
          "params": {
            "approver": "Address initiating an approval operation."
          }
        }
      ],
      "ERC20InvalidReceiver(address)": [
        {
          "details": "Indicates a failure with the token `receiver`. Used in transfers.",
          "params": {
            "receiver": "Address to which tokens are being transferred."
          }
        }
      ],
      "ERC20InvalidSender(address)": [
        {
          "details": "Indicates a failure with the token `sender`. Used in transfers.",
          "params": {
            "sender": "Address whose tokens are being transferred."
          }
        }
      ],
      "ERC20InvalidSpender(address)": [
        {
          "details": "Indicates a failure with the `spender` to be approved. Used in approvals.",
          "params": {
            "spender": "Address that may be allowed to operate on tokens without being their owner."
          }
        }
      ]
    },
    "events": {
      "Approval(address,address,uint256)": {
        "details": "Emitted when the allowance of a `spender` for an `owner` is set by a call to {approve}. `value` is the new allowance."
      },
      "Transfer(address,address,uint256)": {
        "details": "Emitted when `value` tokens are moved from one account (`from`) to another (`to`). Note that `value` may be zero."
      }
    },
    "kind": "dev",
    "methods": {
      "allowance(address,address)": {
        "details": "See {IERC20-allowance}."
      },
      "approve(address,uint256)": {
        "details": "See {IERC20-approve}. NOTE: If `value` is the maximum `uint256`, the allowance is not updated on `transferFrom`. This is semantically equivalent to an infinite approval. Requirements: - `spender` cannot be the zero address."
      },
      "balanceOf(address)": {
        "details": "See {IERC20-balanceOf}."
      },
      "decimals()": {
        "details": "Returns the number of decimals used to get its user representation. For example, if `decimals` equals `2`, a balance of `505` tokens should be displayed to a user as `5.05` (`505 / 10 ** 2`). Tokens usually opt for a value of 18, imitating the relationship between Ether and Wei. This is the default value returned by this function, unless it's overridden. NOTE: This information is only used for _display_ purposes: it in no way affects any of the arithmetic of the contract, including {IERC20-balanceOf} and {IERC20-transfer}."
      },
      "name()": {
        "details": "Returns the name of the token."
      },
      "symbol()": {
        "details": "Returns the symbol of the token, usually a shorter version of the name."
      },
      "totalSupply()": {
        "details": "See {IERC20-totalSupply}."
      },
      "transfer(address,uint256)": {
        "details": "See {IERC20-transfer}. Requirements: - `to` cannot be the zero address. - the caller must have a balance of at least `value`."
      }
    },
    "version": 1
  },
  "userdoc": {
    "kind": "user",
    "methods": {},
    "version": 1
  }
}