{
  "contractName": "WrappedBNB",
  "abi": [
    {
      "inputs": [
        {
          "internalType": "address",
          "name": "hybridContract",
          "type": "address"
        }
      ],
      "stateMutability": "nonpayable",
      "type": "constructor"
    },
    {
      "inputs": [
        {
          "internalType": "address",
          "name": "spender",
          "type": "address"
        },
        {
          "internalType": "uint256",
          "name": "allowance",
          "type": "uint256"
        },
        {
          "internalType": "uint256",
          "name": "needed",
          "type": "uint256"
        }
      ],
      "name": "ERC20InsufficientAllowance",
      "type": "error"
    },
    {
      "inputs": [
        {
          "internalType": "address",
          "name": "sender",
          "type": "address"
        },
        {
          "internalType": "uint256",
          "name": "balance",
          "type": "uint256"
        },
        {
          "internalType": "uint256",
          "name": "needed",
          "type": "uint256"
        }
      ],
      "name": "ERC20InsufficientBalance",
      "type": "error"
    },
    {
      "inputs": [
        {
          "internalType": "address",
          "name": "approver",
          "type": "address"
        }
      ],
      "name": "ERC20InvalidApprover",
      "type": "error"
    },
    {
      "inputs": [
        {
          "internalType": "address",
          "name": "receiver",
          "type": "address"
        }
      ],
      "name": "ERC20InvalidReceiver",
      "type": "error"
    },
    {
      "inputs": [
        {
          "internalType": "address",
          "name": "sender",
          "type": "address"
        }
      ],
      "name": "ERC20InvalidSender",
      "type": "error"
    },
    {
      "inputs": [
        {
          "internalType": "address",
          "name": "spender",
          "type": "address"
        }
      ],
      "name": "ERC20InvalidSpender",
      "type": "error"
    },
    {
      "inputs": [
        {
          "internalType": "address",
          "name": "owner",
          "type": "address"
        }
      ],
      "name": "OptInRequired",
      "type": "error"
    },
    {
      "anonymous": false,
      "inputs": [
        {
          "indexed": true,
          "internalType": "address",
          "name": "owner",
          "type": "address"
        },
        {
          "indexed": true,
          "internalType": "address",
          "name": "spender",
          "type": "address"
        },
        {
          "indexed": false,
          "internalType": "uint256",
          "name": "value",
          "type": "uint256"
        }
      ],
      "name": "Approval",
      "type": "event"
    },
    {
      "anonymous": false,
      "inputs": [
        {
          "indexed": true,
          "internalType": "address",
          "name": "from",
          "type": "address"
        },
        {
          "indexed": true,
          "internalType": "address",
          "name": "to",
          "type": "address"
        },
        {
          "indexed": false,
          "internalType": "uint256",
          "name": "value",
          "type": "uint256"
        }
      ],
      "name": "Transfer",
      "type": "event"
    },
    {
      "inputs": [
        {
          "internalType": "address",
          "name": "owner",
          "type": "address"
        },
        {
          "internalType": "address",
          "name": "spender",
          "type": "address"
        }
      ],
      "name": "allowance",
      "outputs": [
        {
          "internalType": "uint256",
          "name": "",
          "type": "uint256"
        }
      ],
      "stateMutability": "view",
      "type": "function"
    },
    {
      "inputs": [
        {
          "internalType": "address",
          "name": "spender",
          "type": "address"
        },
        {
          "internalType": "uint256",
          "name": "value",
          "type": "uint256"
        }
      ],
      "name": "approve",
      "outputs": [
        {
          "internalType": "bool",
          "name": "",
          "type": "bool"
        }
      ],
      "stateMutability": "nonpayable",
      "type": "function"
    },
    {
      "inputs": [
        {
          "internalType": "address",
          "name": "account",
          "type": "address"
        }
      ],
      "name": "balanceOf",
      "outputs": [
        {
          "internalType": "uint256",
          "name": "",
          "type": "uint256"
        }
      ],
      "stateMutability": "view",
      "type": "function"
    },
    {
      "inputs": [],
      "name": "decimals",
      "outputs": [
        {
          "internalType": "uint8",
          "name": "",
          "type": "uint8"
        }
      ],
      "stateMutability": "view",
      "type": "function"
    },
    {
      "inputs": [
        {
          "internalType": "address",
          "name": "owner",
          "type": "address"
        }
      ],
      "name": "isUpgraded",
      "outputs": [
        {
          "internalType": "bool",
          "name": "",
          "type": "bool"
        }
      ],
      "stateMutability": "view",
      "type": "function"
    },
    {
      "inputs": [],
      "name": "name",
      "outputs": [
        {
          "internalType": "string",
          "name": "",
          "type": "string"
        }
      ],
      "stateMutability": "view",
      "type": "function"
    },
    {
      "inputs": [],
      "name": "optIn",
      "outputs": [],
      "stateMutability": "nonpayable",
      "type": "function"
    },
    {
      "inputs": [],
      "name": "optOut",
      "outputs": [],
      "stateMutability": "nonpayable",
      "type": "function"
    },
    {
      "inputs": [
        {
          "internalType": "bytes32",
          "name": "approvalId",
          "type": "bytes32"
        }
      ],
      "name": "rejectApproval",
      "outputs": [],
      "stateMutability": "nonpayable",
      "type": "function"
    },
    {
      "inputs": [
        {
          "internalType": "bytes32",
          "name": "approvalId",
          "type": "bytes32"
        },
        {
          "internalType": "bytes32",
          "name": "message",
          "type": "bytes32"
        },
        {
          "internalType": "bytes",
          "name": "signature",
          "type": "bytes"
        }
      ],
      "name": "submitApprovalProof",
      "outputs": [],
      "stateMutability": "nonpayable",
      "type": "function"
    },
    {
      "inputs": [
        {
          "internalType": "bytes32",
          "name": "message",
          "type": "bytes32"
        },
        {
          "internalType": "bytes",
          "name": "signature",
          "type": "bytes"
        }
      ],
      "name": "submitDowngradeProof",
      "outputs": [],
      "stateMutability": "nonpayable",
      "type": "function"
    },
    {
      "inputs": [],
      "name": "symbol",
      "outputs": [
        {
          "internalType": "string",
          "name": "",
          "type": "string"
        }
      ],
      "stateMutability": "view",
      "type": "function"
    },
    {
      "inputs": [],
      "name": "totalSupply",
      "outputs": [
        {
          "internalType": "uint256",
          "name": "",
          "type": "uint256"
        }
      ],
      "stateMutability": "view",
      "type": "function"
    },
    {
      "inputs": [
        {
          "internalType": "address",
          "name": "to",
          "type": "address"
        },
        {
          "internalType": "uint256",
          "name": "value",
          "type": "uint256"
        }
      ],
      "name": "transfer",
      "outputs": [
        {
          "internalType": "bool",
          "name": "",
          "type": "bool"
        }
      ],
      "stateMutability": "nonpayable",
      "type": "function"
    },
    {
      "inputs": [
        {
          "internalType": "address",
          "name": "from",
          "type": "address"
        },
        {
          "internalType": "address",
          "name": "to",
          "type": "address"
        },
        {
          "internalType": "uint256",
          "name": "value",
          "type": "uint256"
        }
      ],
      "name": "transferFrom",
      "outputs": [
        {
          "internalType": "bool",
          "name": "",
          "type": "bool"
        }
      ],
      "stateMutability": "nonpayable",
      "type": "function"
    },
    {
      "inputs": [],
      "name": "upgradeAsset",
      "outputs": [],
      "stateMutability": "nonpayable",
      "type": "function"
    },
    {
      "inputs": [
        {
          "internalType": "uint256",
          "name": "amount",
          "type": "uint256"
        }
      ],
      "name": "faucet",
      "outputs": [],
      "stateMutability": "nonpayable",
      "type": "function"
    }
  ],
  "bytecode": "0x608060405234801562000010575f80fd5b50604051620027cf380380620027cf8339818101604052810190620000369190620001cf565b6040518060400160405280600b81526020017f5772617070656420424e420000000000000000000000000000000000000000008152506040518060400160405280600481526020017f57424e42000000000000000000000000000000000000000000000000000000008152508282828160039081620000b6919062000463565b508060049081620000c8919062000463565b5050508060055f6101000a81548173ffffffffffffffffffffffffffffffffffffffff021916908373ffffffffffffffffffffffffffffffffffffffff160217905550600160065f8073ffffffffffffffffffffffffffffffffffffffff1673ffffffffffffffffffffffffffffffffffffffff1681526020019081526020015f205f6101000a81548160ff0219169083151502179055505050505062000547565b5f80fd5b5f73ffffffffffffffffffffffffffffffffffffffff82169050919050565b5f62000199826200016e565b9050919050565b620001ab816200018d565b8114620001b6575f80fd5b50565b5f81519050620001c981620001a0565b92915050565b5f60208284031215620001e757620001e66200016a565b5b5f620001f684828501620001b9565b91505092915050565b5f81519050919050565b7f4e487b71000000000000000000000000000000000000000000000000000000005f52604160045260245ffd5b7f4e487b71000000000000000000000000000000000000000000000000000000005f52602260045260245ffd5b5f60028204905060018216806200027b57607f821691505b60208210810362000291576200029062000236565b5b50919050565b5f819050815f5260205f209050919050565b5f6020601f8301049050919050565b5f82821b905092915050565b5f60088302620002f57fffffffffffffffffffffffffffffffffffffffffffffffffffffffffffffffff82620002b8565b620003018683620002b8565b95508019841693508086168417925050509392505050565b5f819050919050565b5f819050919050565b5f6200034b620003456200033f8462000319565b62000322565b62000319565b9050919050565b5f819050919050565b62000366836200032b565b6200037e620003758262000352565b848454620002c4565b825550505050565b5f90565b6200039462000386565b620003a18184846200035b565b505050565b5b81811015620003c857620003bc5f826200038a565b600181019050620003a7565b5050565b601f8211156200041757620003e18162000297565b620003ec84620002a9565b81016020851015620003fc578190505b620004146200040b85620002a9565b830182620003a6565b50505b505050565b5f82821c905092915050565b5f620004395f19846008026200041c565b1980831691505092915050565b5f62000453838362000428565b9150826002028217905092915050565b6200046e82620001ff565b67ffffffffffffffff8111156200048a576200048962000209565b5b62000496825462000263565b620004a3828285620003cc565b5f60209050601f831160018114620004d9575f8415620004c4578287015190505b620004d0858262000446565b8655506200053f565b601f198416620004e98662000297565b5f5b828110156200051257848901518255600182019150602085019450602081019050620004eb565b868310156200053257848901516200052e601f89168262000428565b8355505b6001600288020188555050505b505050505050565b61227a80620005555f395ff3fe608060405234801561000f575f80fd5b5060043610610109575f3560e01c806370a08231116100a0578063a9059cbb1161006f578063a9059cbb146102a3578063ad2c68fc146102d3578063d4eec5a6146102dd578063d510a856146102e7578063dd62ed3e1461030357610109565b806370a0823114610209578063773a0da91461023957806395d89b411461025557806395ef84b91461027357610109565b8063313ce567116100dc578063313ce567146101a95780634f758cd1146101c757806357915897146101e35780635b48684e146101ff57610109565b806306fdde031461010d578063095ea7b31461012b57806318160ddd1461015b57806323b872dd14610179575b5f80fd5b610115610333565b6040516101229190611988565b60405180910390f35b61014560048036038101906101409190611a46565b6103c3565b6040516101529190611a9e565b60405180910390f35b6101636103e5565b6040516101709190611ac6565b60405180910390f35b610193600480360381019061018e9190611adf565b6103ee565b6040516101a09190611a9e565b60405180910390f35b6101b161041d565b6040516101be9190611b4a565b60405180910390f35b6101e160048036038101906101dc9190611cc2565b610425565b005b6101fd60048036038101906101f89190611d2e565b6105bb565b005b6102076105cf565b005b610223600480360381019061021e9190611d59565b610632565b6040516102309190611ac6565b60405180910390f35b610253600480360381019061024e9190611d84565b610677565b005b61025d610768565b60405161026a9190611988565b60405180910390f35b61028d60048036038101906102889190611d59565b6107f8565b60405161029a9190611a9e565b60405180910390f35b6102bd60048036038101906102b89190611a46565b6108a0565b6040516102ca9190611a9e565b60405180910390f35b6102db6108c2565b005b6102e5610957565b005b61030160048036038101906102fc9190611dde565b610a63565b005b61031d60048036038101906103189190611e09565b610b43565b60405161032a9190611ac6565b60405180910390f35b60606003805461034290611e74565b80601f016020809104026020016040519081016040528092919081815260200182805461036e90611e74565b80156103b95780601f10610390576101008083540402835291602001916103b9565b820191905f5260205f20905b81548152906001019060200180831161039c57829003601f168201915b5050505050905090565b5f806103cd610be4565b90506103da818585610beb565b600191505092915050565b5f600254905090565b5f806103f8610be4565b9050610405858285610bfd565b61041185828686610c8f565b60019150509392505050565b5f6012905090565b5f61042e610be4565b9050610439816107f8565b61047a57806040517f1594b2f10000000000000000000000000000000000000000000000000000000081526004016104719190611eb3565b60405180910390fd5b5f610483610be4565b90505f8060055f9054906101000a900473ffffffffffffffffffffffffffffffffffffffff1673ffffffffffffffffffffffffffffffffffffffff1663ebca197d87878a6040518463ffffffff1660e01b81526004016104e593929190611f2d565b60408051808303815f875af1158015610500573d5f803e3d5ffd5b505050506040513d601f19601f820116820180604052508101906105249190611f91565b915091506105358383836001610f5b565b8060075f8573ffffffffffffffffffffffffffffffffffffffff1673ffffffffffffffffffffffffffffffffffffffff1681526020019081526020015f205f8473ffffffffffffffffffffffffffffffffffffffff1673ffffffffffffffffffffffffffffffffffffffff1681526020019081526020015f208190555050505050505050565b6105cc6105c6610be4565b8261112a565b50565b5f6105d8610be4565b9050600160065f8373ffffffffffffffffffffffffffffffffffffffff1673ffffffffffffffffffffffffffffffffffffffff1681526020019081526020015f205f6101000a81548160ff02191690831515021790555050565b5f805f8373ffffffffffffffffffffffffffffffffffffffff1673ffffffffffffffffffffffffffffffffffffffff1681526020019081526020015f20549050919050565b5f610680610be4565b905061068b816107f8565b6106cc57806040517f1594b2f10000000000000000000000000000000000000000000000000000000081526004016106c39190611eb3565b60405180910390fd5b5f6106d5610be4565b905060055f9054906101000a900473ffffffffffffffffffffffffffffffffffffffff1673ffffffffffffffffffffffffffffffffffffffff16637bd6f9c18585846040518463ffffffff1660e01b815260040161073593929190611fcf565b5f604051808303815f87803b15801561074c575f80fd5b505af115801561075e573d5f803e3d5ffd5b5050505050505050565b60606004805461077790611e74565b80601f01602080910402602001604051908101604052809291908181526020018280546107a390611e74565b80156107ee5780601f106107c5576101008083540402835291602001916107ee565b820191905f5260205f20905b8154815290600101906020018083116107d157829003601f168201915b5050505050905090565b5f8030905060055f9054906101000a900473ffffffffffffffffffffffffffffffffffffffff1673ffffffffffffffffffffffffffffffffffffffff1663a5d73ebe82856040518363ffffffff1660e01b815260040161085992919061200b565b602060405180830381865afa158015610874573d5f803e3d5ffd5b505050506040513d601f19601f82011682018060405250810190610898919061205c565b915050919050565b5f806108aa610be4565b90506108b78185856111a9565b600191505092915050565b5f6108cb610be4565b905060055f9054906101000a900473ffffffffffffffffffffffffffffffffffffffff1673ffffffffffffffffffffffffffffffffffffffff16632bb5e6e3826040518263ffffffff1660e01b81526004016109279190611eb3565b5f604051808303815f87803b15801561093e575f80fd5b505af1158015610950573d5f803e3d5ffd5b5050505050565b5f610960610be4565b905061096b816107f8565b80156109be575060065f8273ffffffffffffffffffffffffffffffffffffffff1673ffffffffffffffffffffffffffffffffffffffff1681526020019081526020015f205f9054906101000a900460ff16155b15610a0057806040517f1594b2f10000000000000000000000000000000000000000000000000000000081526004016109f79190611eb3565b60405180910390fd5b5f610a09610be4565b90505f60065f8373ffffffffffffffffffffffffffffffffffffffff1673ffffffffffffffffffffffffffffffffffffffff1681526020019081526020015f205f6101000a81548160ff0219169083151502179055505050565b5f610a6c610be4565b9050610a77816107f8565b610ab857806040517f1594b2f1000000000000000000000000000000000000000000000000000000008152600401610aaf9190611eb3565b60405180910390fd5b60055f9054906101000a900473ffffffffffffffffffffffffffffffffffffffff1673ffffffffffffffffffffffffffffffffffffffff16636cc7af2c836040518263ffffffff1660e01b8152600401610b129190612087565b5f604051808303815f87803b158015610b29575f80fd5b505af1158015610b3b573d5f803e3d5ffd5b505050505050565b5f610b4d836107f8565b610b6257610b5b8383611299565b9050610bde565b60075f8473ffffffffffffffffffffffffffffffffffffffff1673ffffffffffffffffffffffffffffffffffffffff1681526020019081526020015f205f8373ffffffffffffffffffffffffffffffffffffffff1673ffffffffffffffffffffffffffffffffffffffff1681526020019081526020015f205490505b92915050565b5f33905090565b610bf8838383600161131b565b505050565b5f610c088484610b43565b90507fffffffffffffffffffffffffffffffffffffffffffffffffffffffffffffffff8114610c895781811015610c7a578281836040517ffb8f41b2000000000000000000000000000000000000000000000000000000008152600401610c71939291906120a0565b60405180910390fd5b610c8884848484035f61131b565b5b50505050565b8060075f8673ffffffffffffffffffffffffffffffffffffffff1673ffffffffffffffffffffffffffffffffffffffff1681526020019081526020015f205f8573ffffffffffffffffffffffffffffffffffffffff1673ffffffffffffffffffffffffffffffffffffffff1681526020019081526020015f20541015610d4a576040517f08c379a0000000000000000000000000000000000000000000000000000000008152600401610d419061211f565b60405180910390fd5b8060075f8673ffffffffffffffffffffffffffffffffffffffff1673ffffffffffffffffffffffffffffffffffffffff1681526020019081526020015f205f8573ffffffffffffffffffffffffffffffffffffffff1673ffffffffffffffffffffffffffffffffffffffff1681526020019081526020015f2054610dce919061216a565b60075f8673ffffffffffffffffffffffffffffffffffffffff1673ffffffffffffffffffffffffffffffffffffffff1681526020019081526020015f205f8573ffffffffffffffffffffffffffffffffffffffff1673ffffffffffffffffffffffffffffffffffffffff1681526020019081526020015f20819055508060075f8673ffffffffffffffffffffffffffffffffffffffff1673ffffffffffffffffffffffffffffffffffffffff1681526020019081526020015f205f8473ffffffffffffffffffffffffffffffffffffffff1673ffffffffffffffffffffffffffffffffffffffff1681526020019081526020015f2054610ece919061219d565b60075f8673ffffffffffffffffffffffffffffffffffffffff1673ffffffffffffffffffffffffffffffffffffffff1681526020019081526020015f205f8473ffffffffffffffffffffffffffffffffffffffff1673ffffffffffffffffffffffffffffffffffffffff1681526020019081526020015f2081905550610f558483836111a9565b50505050565b5f73ffffffffffffffffffffffffffffffffffffffff168473ffffffffffffffffffffffffffffffffffffffff1603610fcb575f6040517fe602df05000000000000000000000000000000000000000000000000000000008152600401610fc29190611eb3565b60405180910390fd5b5f73ffffffffffffffffffffffffffffffffffffffff168373ffffffffffffffffffffffffffffffffffffffff160361103b575f6040517f94280d620000000000000000000000000000000000000000000000000000000081526004016110329190611eb3565b60405180910390fd5b8160015f8673ffffffffffffffffffffffffffffffffffffffff1673ffffffffffffffffffffffffffffffffffffffff1681526020019081526020015f205f8573ffffffffffffffffffffffffffffffffffffffff1673ffffffffffffffffffffffffffffffffffffffff1681526020019081526020015f20819055508015611124578273ffffffffffffffffffffffffffffffffffffffff168473ffffffffffffffffffffffffffffffffffffffff167f8c5be1e5ebec7d5bd14f71427d1e84f3dd0314c0f7b2291e5b200ac8c7c3b9258460405161111b9190611ac6565b60405180910390a35b50505050565b5f73ffffffffffffffffffffffffffffffffffffffff168273ffffffffffffffffffffffffffffffffffffffff160361119a575f6040517fec442f050000000000000000000000000000000000000000000000000000000081526004016111919190611eb3565b60405180910390fd5b6111a55f83836113e6565b5050565b5f73ffffffffffffffffffffffffffffffffffffffff168373ffffffffffffffffffffffffffffffffffffffff1603611219575f6040517f96c6fd1e0000000000000000000000000000000000000000000000000000000081526004016112109190611eb3565b60405180910390fd5b5f73ffffffffffffffffffffffffffffffffffffffff168273ffffffffffffffffffffffffffffffffffffffff1603611289575f6040517fec442f050000000000000000000000000000000000000000000000000000000081526004016112809190611eb3565b60405180910390fd5b6112948383836113e6565b505050565b5f60015f8473ffffffffffffffffffffffffffffffffffffffff1673ffffffffffffffffffffffffffffffffffffffff1681526020019081526020015f205f8373ffffffffffffffffffffffffffffffffffffffff1673ffffffffffffffffffffffffffffffffffffffff1681526020019081526020015f2054905092915050565b611324846107f8565b6113395761133484848484610f5b565b6113df565b80156113e05760055f9054906101000a900473ffffffffffffffffffffffffffffffffffffffff1673ffffffffffffffffffffffffffffffffffffffff1663067477218585856040518463ffffffff1660e01b815260040161139d939291906121d0565b6020604051808303815f875af11580156113b9573d5f803e3d5ffd5b505050506040513d601f19601f820116820180604052508101906113dd9190612219565b505b5b50505050565b60065f8473ffffffffffffffffffffffffffffffffffffffff1673ffffffffffffffffffffffffffffffffffffffff1681526020019081526020015f205f9054906101000a900460ff1661147157826040517f1594b2f10000000000000000000000000000000000000000000000000000000081526004016114689190611eb3565b60405180910390fd5b60065f8373ffffffffffffffffffffffffffffffffffffffff1673ffffffffffffffffffffffffffffffffffffffff1681526020019081526020015f205f9054906101000a900460ff166114fc57816040517f1594b2f10000000000000000000000000000000000000000000000000000000081526004016114f39190611eb3565b60405180910390fd5b611505836107f8565b611519576115148383836116e5565b6116e0565b8060075f8573ffffffffffffffffffffffffffffffffffffffff1673ffffffffffffffffffffffffffffffffffffffff1681526020019081526020015f205f8473ffffffffffffffffffffffffffffffffffffffff1673ffffffffffffffffffffffffffffffffffffffff1681526020019081526020015f205410156115d4576040517f08c379a00000000000000000000000000000000000000000000000000000000081526004016115cb9061211f565b60405180910390fd5b8060075f8573ffffffffffffffffffffffffffffffffffffffff1673ffffffffffffffffffffffffffffffffffffffff1681526020019081526020015f205f8473ffffffffffffffffffffffffffffffffffffffff1673ffffffffffffffffffffffffffffffffffffffff1681526020019081526020015f2054611658919061216a565b60075f8573ffffffffffffffffffffffffffffffffffffffff1673ffffffffffffffffffffffffffffffffffffffff1681526020019081526020015f205f8473ffffffffffffffffffffffffffffffffffffffff1673ffffffffffffffffffffffffffffffffffffffff1681526020019081526020015f20819055506116df8383836116e5565b5b505050565b5f73ffffffffffffffffffffffffffffffffffffffff168373ffffffffffffffffffffffffffffffffffffffff1603611735578060025f828254611729919061219d565b92505081905550611803565b5f805f8573ffffffffffffffffffffffffffffffffffffffff1673ffffffffffffffffffffffffffffffffffffffff1681526020019081526020015f20549050818110156117be578381836040517fe450d38c0000000000000000000000000000000000000000000000000000000081526004016117b5939291906120a0565b60405180910390fd5b8181035f808673ffffffffffffffffffffffffffffffffffffffff1673ffffffffffffffffffffffffffffffffffffffff1681526020019081526020015f2081905550505b5f73ffffffffffffffffffffffffffffffffffffffff168273ffffffffffffffffffffffffffffffffffffffff160361184a578060025f8282540392505081905550611894565b805f808473ffffffffffffffffffffffffffffffffffffffff1673ffffffffffffffffffffffffffffffffffffffff1681526020019081526020015f205f82825401925050819055505b8173ffffffffffffffffffffffffffffffffffffffff168373ffffffffffffffffffffffffffffffffffffffff167fddf252ad1be2c89b69c2b068fc378daa952ba7f163c4a11628f55a4df523b3ef836040516118f19190611ac6565b60405180910390a3505050565b5f81519050919050565b5f82825260208201905092915050565b5f5b8381101561193557808201518184015260208101905061191a565b5f8484015250505050565b5f601f19601f8301169050919050565b5f61195a826118fe565b6119648185611908565b9350611974818560208601611918565b61197d81611940565b840191505092915050565b5f6020820190508181035f8301526119a08184611950565b905092915050565b5f604051905090565b5f80fd5b5f80fd5b5f73ffffffffffffffffffffffffffffffffffffffff82169050919050565b5f6119e2826119b9565b9050919050565b6119f2816119d8565b81146119fc575f80fd5b50565b5f81359050611a0d816119e9565b92915050565b5f819050919050565b611a2581611a13565b8114611a2f575f80fd5b50565b5f81359050611a4081611a1c565b92915050565b5f8060408385031215611a5c57611a5b6119b1565b5b5f611a69858286016119ff565b9250506020611a7a85828601611a32565b9150509250929050565b5f8115159050919050565b611a9881611a84565b82525050565b5f602082019050611ab15f830184611a8f565b92915050565b611ac081611a13565b82525050565b5f602082019050611ad95f830184611ab7565b92915050565b5f805f60608486031215611af657611af56119b1565b5b5f611b03868287016119ff565b9350506020611b14868287016119ff565b9250506040611b2586828701611a32565b9150509250925092565b5f60ff82169050919050565b611b4481611b2f565b82525050565b5f602082019050611b5d5f830184611b3b565b92915050565b5f819050919050565b611b7581611b63565b8114611b7f575f80fd5b50565b5f81359050611b9081611b6c565b92915050565b5f80fd5b5f80fd5b7f4e487b71000000000000000000000000000000000000000000000000000000005f52604160045260245ffd5b611bd482611940565b810181811067ffffffffffffffff82111715611bf357611bf2611b9e565b5b80604052505050565b5f611c056119a8565b9050611c118282611bcb565b919050565b5f67ffffffffffffffff821115611c3057611c2f611b9e565b5b611c3982611940565b9050602081019050919050565b828183375f83830152505050565b5f611c66611c6184611c16565b611bfc565b905082815260208101848484011115611c8257611c81611b9a565b5b611c8d848285611c46565b509392505050565b5f82601f830112611ca957611ca8611b96565b5b8135611cb9848260208601611c54565b91505092915050565b5f805f60608486031215611cd957611cd86119b1565b5b5f611ce686828701611b82565b9350506020611cf786828701611b82565b925050604084013567ffffffffffffffff811115611d1857611d176119b5565b5b611d2486828701611c95565b9150509250925092565b5f60208284031215611d4357611d426119b1565b5b5f611d5084828501611a32565b91505092915050565b5f60208284031215611d6e57611d6d6119b1565b5b5f611d7b848285016119ff565b91505092915050565b5f8060408385031215611d9a57611d996119b1565b5b5f611da785828601611b82565b925050602083013567ffffffffffffffff811115611dc857611dc76119b5565b5b611dd485828601611c95565b9150509250929050565b5f60208284031215611df357611df26119b1565b5b5f611e0084828501611b82565b91505092915050565b5f8060408385031215611e1f57611e1e6119b1565b5b5f611e2c858286016119ff565b9250506020611e3d858286016119ff565b9150509250929050565b7f4e487b71000000000000000000000000000000000000000000000000000000005f52602260045260245ffd5b5f6002820490506001821680611e8b57607f821691505b602082108103611e9e57611e9d611e47565b5b50919050565b611ead816119d8565b82525050565b5f602082019050611ec65f830184611ea4565b92915050565b611ed581611b63565b82525050565b5f81519050919050565b5f82825260208201905092915050565b5f611eff82611edb565b611f098185611ee5565b9350611f19818560208601611918565b611f2281611940565b840191505092915050565b5f606082019050611f405f830186611ecc565b8181036020830152611f528185611ef5565b9050611f616040830184611ecc565b949350505050565b5f81519050611f77816119e9565b92915050565b5f81519050611f8b81611a1c565b92915050565b5f8060408385031215611fa757611fa66119b1565b5b5f611fb485828601611f69565b9250506020611fc585828601611f7d565b9150509250929050565b5f606082019050611fe25f830186611ecc565b8181036020830152611ff48185611ef5565b90506120036040830184611ea4565b949350505050565b5f60408201905061201e5f830185611ea4565b61202b6020830184611ea4565b9392505050565b61203b81611a84565b8114612045575f80fd5b50565b5f8151905061205681612032565b92915050565b5f60208284031215612071576120706119b1565b5b5f61207e84828501612048565b91505092915050565b5f60208201905061209a5f830184611ecc565b92915050565b5f6060820190506120b35f830186611ea4565b6120c06020830185611ab7565b6120cd6040830184611ab7565b949350505050565b7f496e73756666696369656e74207370656e6461626c65000000000000000000005f82015250565b5f612109601683611908565b9150612114826120d5565b602082019050919050565b5f6020820190508181035f830152612136816120fd565b9050919050565b7f4e487b71000000000000000000000000000000000000000000000000000000005f52601160045260245ffd5b5f61217482611a13565b915061217f83611a13565b92508282039050818111156121975761219661213d565b5b92915050565b5f6121a782611a13565b91506121b283611a13565b92508282019050808211156121ca576121c961213d565b5b92915050565b5f6060820190506121e35f830186611ea4565b6121f06020830185611ea4565b6121fd6040830184611ab7565b949350505050565b5f8151905061221381611b6c565b92915050565b5f6020828403121561222e5761222d6119b1565b5b5f61223b84828501612205565b9150509291505056fea2646970667358221220cd05b38273b59c2a117fe3a44f2be450b5ae13221717f83cd7e309940a6971c564736f6c63430008140033",
  "immutableReferences": {},
  "source": "// SPDX-License-Identifier: MIT\r\npragma solidity ^0.8.20;\r\n\r\nimport {HybridToken} from \"../HybridToken.sol\";\r\n\r\ncontract WrappedBNB is HybridToken {\r\n    constructor(\r\n        address hybridContract\r\n    ) HybridToken(\"Wrapped BNB\", \"WBNB\", hybridContract) {}\r\n\r\n    function faucet(uint256 amount) external {\r\n        _mint(_msgSender(), amount);\r\n    }\r\n}\r\n",
  "sourcePath": "C:\\Users\\DELL\\Documents\\hybrid.bnb.hack\\hybrid-token\\contracts\\usecases\\WrappedBNB.sol",
  "compiler": {
    "name": "solc",
    "version": "0.8.20+commit.a1b79de6.Emscripten.clang"
  },
  "schemaVersion": "3.4.11",
  "updatedAt": "2024-03-04T15:13:19.791Z",
  "devdoc": {
    "errors": {
      "ERC20InsufficientAllowance(address,uint256,uint256)": [
        {
          "details": "Indicates a failure with the `spender`s `allowance`. Used in transfers.",
          "params": {
            "allowance": "Amount of tokens a `spender` is allowed to operate with.",
            "needed": "Minimum amount required to perform a transfer.",
            "spender": "Address that may be allowed to operate on tokens without being their owner."
          }
        }
      ],
      "ERC20InsufficientBalance(address,uint256,uint256)": [
        {
          "details": "Indicates an error related to the current `balance` of a `sender`. Used in transfers.",
          "params": {
            "balance": "Current balance for the interacting account.",
            "needed": "Minimum amount required to perform a transfer.",
            "sender": "Address whose tokens are being transferred."
          }
        }
      ],
      "ERC20InvalidApprover(address)": [
        {
          "details": "Indicates a failure with the `approver` of a token to be approved. Used in approvals.",
          "params": {
            "approver": "Address initiating an approval operation."
          }
        }
      ],
      "ERC20InvalidReceiver(address)": [
        {
          "details": "Indicates a failure with the token `receiver`. Used in transfers.",
          "params": {
            "receiver": "Address to which tokens are being transferred."
          }
        }
      ],
      "ERC20InvalidSender(address)": [
        {
          "details": "Indicates a failure with the token `sender`. Used in transfers.",
          "params": {
            "sender": "Address whose tokens are being transferred."
          }
        }
      ],
      "ERC20InvalidSpender(address)": [
        {
          "details": "Indicates a failure with the `spender` to be approved. Used in approvals.",
          "params": {
            "spender": "Address that may be allowed to operate on tokens without being their owner."
          }
        }
      ]
    },
    "events": {
      "Approval(address,address,uint256)": {
        "details": "Emitted when the allowance of a `spender` for an `owner` is set by a call to {approve}. `value` is the new allowance."
      },
      "Transfer(address,address,uint256)": {
        "details": "Emitted when `value` tokens are moved from one account (`from`) to another (`to`). Note that `value` may be zero."
      }
    },
    "kind": "dev",
    "methods": {
      "approve(address,uint256)": {
        "details": "See {IERC20-approve}. NOTE: If `value` is the maximum `uint256`, the allowance is not updated on `transferFrom`. This is semantically equivalent to an infinite approval. Requirements: - `spender` cannot be the zero address."
      },
      "balanceOf(address)": {
        "details": "See {IERC20-balanceOf}."
      },
      "decimals()": {
        "details": "Returns the number of decimals used to get its user representation. For example, if `decimals` equals `2`, a balance of `505` tokens should be displayed to a user as `5.05` (`505 / 10 ** 2`). Tokens usually opt for a value of 18, imitating the relationship between Ether and Wei. This is the default value returned by this function, unless it's overridden. NOTE: This information is only used for _display_ purposes: it in no way affects any of the arithmetic of the contract, including {IERC20-balanceOf} and {IERC20-transfer}."
      },
      "name()": {
        "details": "Returns the name of the token."
      },
      "symbol()": {
        "details": "Returns the symbol of the token, usually a shorter version of the name."
      },
      "totalSupply()": {
        "details": "See {IERC20-totalSupply}."
      },
      "transfer(address,uint256)": {
        "details": "See {IERC20-transfer}. Requirements: - `to` cannot be the zero address. - the caller must have a balance of at least `value`."
      }
    },
    "version": 1
  },
  "userdoc": {
    "kind": "user",
    "methods": {},
    "version": 1
  }
}