{
  "contractName": "WrappedBNB",
  "abi": [
    {
      "inputs": [
        {
          "internalType": "address",
          "name": "hybridContract",
          "type": "address"
        }
      ],
      "stateMutability": "nonpayable",
      "type": "constructor"
    },
    {
      "inputs": [
        {
          "internalType": "address",
          "name": "spender",
          "type": "address"
        },
        {
          "internalType": "uint256",
          "name": "allowance",
          "type": "uint256"
        },
        {
          "internalType": "uint256",
          "name": "needed",
          "type": "uint256"
        }
      ],
      "name": "ERC20InsufficientAllowance",
      "type": "error"
    },
    {
      "inputs": [
        {
          "internalType": "address",
          "name": "sender",
          "type": "address"
        },
        {
          "internalType": "uint256",
          "name": "balance",
          "type": "uint256"
        },
        {
          "internalType": "uint256",
          "name": "needed",
          "type": "uint256"
        }
      ],
      "name": "ERC20InsufficientBalance",
      "type": "error"
    },
    {
      "inputs": [
        {
          "internalType": "address",
          "name": "approver",
          "type": "address"
        }
      ],
      "name": "ERC20InvalidApprover",
      "type": "error"
    },
    {
      "inputs": [
        {
          "internalType": "address",
          "name": "receiver",
          "type": "address"
        }
      ],
      "name": "ERC20InvalidReceiver",
      "type": "error"
    },
    {
      "inputs": [
        {
          "internalType": "address",
          "name": "sender",
          "type": "address"
        }
      ],
      "name": "ERC20InvalidSender",
      "type": "error"
    },
    {
      "inputs": [
        {
          "internalType": "address",
          "name": "spender",
          "type": "address"
        }
      ],
      "name": "ERC20InvalidSpender",
      "type": "error"
    },
    {
      "inputs": [
        {
          "internalType": "address",
          "name": "owner",
          "type": "address"
        }
      ],
      "name": "OptInRequired",
      "type": "error"
    },
    {
      "anonymous": false,
      "inputs": [
        {
          "indexed": true,
          "internalType": "address",
          "name": "owner",
          "type": "address"
        },
        {
          "indexed": true,
          "internalType": "address",
          "name": "spender",
          "type": "address"
        },
        {
          "indexed": false,
          "internalType": "uint256",
          "name": "value",
          "type": "uint256"
        }
      ],
      "name": "Approval",
      "type": "event"
    },
    {
      "anonymous": false,
      "inputs": [
        {
          "indexed": true,
          "internalType": "address",
          "name": "from",
          "type": "address"
        },
        {
          "indexed": true,
          "internalType": "address",
          "name": "to",
          "type": "address"
        },
        {
          "indexed": false,
          "internalType": "uint256",
          "name": "value",
          "type": "uint256"
        }
      ],
      "name": "Transfer",
      "type": "event"
    },
    {
      "inputs": [
        {
          "internalType": "address",
          "name": "owner",
          "type": "address"
        },
        {
          "internalType": "address",
          "name": "spender",
          "type": "address"
        }
      ],
      "name": "allowance",
      "outputs": [
        {
          "internalType": "uint256",
          "name": "",
          "type": "uint256"
        }
      ],
      "stateMutability": "view",
      "type": "function",
      "constant": true
    },
    {
      "inputs": [
        {
          "internalType": "address",
          "name": "spender",
          "type": "address"
        },
        {
          "internalType": "uint256",
          "name": "value",
          "type": "uint256"
        }
      ],
      "name": "approve",
      "outputs": [
        {
          "internalType": "bool",
          "name": "",
          "type": "bool"
        }
      ],
      "stateMutability": "nonpayable",
      "type": "function"
    },
    {
      "inputs": [
        {
          "internalType": "address",
          "name": "account",
          "type": "address"
        }
      ],
      "name": "balanceOf",
      "outputs": [
        {
          "internalType": "uint256",
          "name": "",
          "type": "uint256"
        }
      ],
      "stateMutability": "view",
      "type": "function",
      "constant": true
    },
    {
      "inputs": [],
      "name": "decimals",
      "outputs": [
        {
          "internalType": "uint8",
          "name": "",
          "type": "uint8"
        }
      ],
      "stateMutability": "view",
      "type": "function",
      "constant": true
    },
    {
      "inputs": [
        {
          "internalType": "address",
          "name": "owner",
          "type": "address"
        }
      ],
      "name": "isUpgraded",
      "outputs": [
        {
          "internalType": "bool",
          "name": "",
          "type": "bool"
        }
      ],
      "stateMutability": "view",
      "type": "function",
      "constant": true
    },
    {
      "inputs": [],
      "name": "name",
      "outputs": [
        {
          "internalType": "string",
          "name": "",
          "type": "string"
        }
      ],
      "stateMutability": "view",
      "type": "function",
      "constant": true
    },
    {
      "inputs": [],
      "name": "optIn",
      "outputs": [],
      "stateMutability": "nonpayable",
      "type": "function"
    },
    {
      "inputs": [],
      "name": "optOut",
      "outputs": [],
      "stateMutability": "nonpayable",
      "type": "function"
    },
    {
      "inputs": [
        {
          "internalType": "bytes32",
          "name": "approvalId",
          "type": "bytes32"
        }
      ],
      "name": "rejectApproval",
      "outputs": [],
      "stateMutability": "nonpayable",
      "type": "function"
    },
    {
      "inputs": [
        {
          "internalType": "bytes32",
          "name": "approvalId",
          "type": "bytes32"
        },
        {
          "internalType": "bytes32",
          "name": "messageHash",
          "type": "bytes32"
        },
        {
          "internalType": "uint8",
          "name": "v",
          "type": "uint8"
        },
        {
          "internalType": "bytes32",
          "name": "r",
          "type": "bytes32"
        },
        {
          "internalType": "bytes32",
          "name": "s",
          "type": "bytes32"
        }
      ],
      "name": "submitApprovalProof",
      "outputs": [],
      "stateMutability": "nonpayable",
      "type": "function"
    },
    {
      "inputs": [
        {
          "internalType": "bytes32",
          "name": "messageHash",
          "type": "bytes32"
        },
        {
          "internalType": "uint8",
          "name": "v",
          "type": "uint8"
        },
        {
          "internalType": "bytes32",
          "name": "r",
          "type": "bytes32"
        },
        {
          "internalType": "bytes32",
          "name": "s",
          "type": "bytes32"
        }
      ],
      "name": "submitDowngradeProof",
      "outputs": [],
      "stateMutability": "nonpayable",
      "type": "function"
    },
    {
      "inputs": [],
      "name": "symbol",
      "outputs": [
        {
          "internalType": "string",
          "name": "",
          "type": "string"
        }
      ],
      "stateMutability": "view",
      "type": "function",
      "constant": true
    },
    {
      "inputs": [],
      "name": "totalSupply",
      "outputs": [
        {
          "internalType": "uint256",
          "name": "",
          "type": "uint256"
        }
      ],
      "stateMutability": "view",
      "type": "function",
      "constant": true
    },
    {
      "inputs": [
        {
          "internalType": "address",
          "name": "to",
          "type": "address"
        },
        {
          "internalType": "uint256",
          "name": "value",
          "type": "uint256"
        }
      ],
      "name": "transfer",
      "outputs": [
        {
          "internalType": "bool",
          "name": "",
          "type": "bool"
        }
      ],
      "stateMutability": "nonpayable",
      "type": "function"
    },
    {
      "inputs": [
        {
          "internalType": "address",
          "name": "from",
          "type": "address"
        },
        {
          "internalType": "address",
          "name": "to",
          "type": "address"
        },
        {
          "internalType": "uint256",
          "name": "value",
          "type": "uint256"
        }
      ],
      "name": "transferFrom",
      "outputs": [
        {
          "internalType": "bool",
          "name": "",
          "type": "bool"
        }
      ],
      "stateMutability": "nonpayable",
      "type": "function"
    },
    {
      "inputs": [],
      "name": "upgradeAsset",
      "outputs": [],
      "stateMutability": "nonpayable",
      "type": "function"
    },
    {
      "inputs": [
        {
          "internalType": "uint256",
          "name": "amount",
          "type": "uint256"
        }
      ],
      "name": "faucet",
      "outputs": [],
      "stateMutability": "nonpayable",
      "type": "function"
    }
  ],
  "bytecode": "0x608060405234801562000010575f80fd5b50604051620025bc380380620025bc83398181016040528101906200003691906200017a565b6040518060400160405280600b81526020017f5772617070656420424e420000000000000000000000000000000000000000008152506040518060400160405280600481526020017f57424e42000000000000000000000000000000000000000000000000000000008152508282828160039081620000b691906200040e565b508060049081620000c891906200040e565b5050508060055f6101000a81548173ffffffffffffffffffffffffffffffffffffffff021916908373ffffffffffffffffffffffffffffffffffffffff16021790555050505050620004f2565b5f80fd5b5f73ffffffffffffffffffffffffffffffffffffffff82169050919050565b5f620001448262000119565b9050919050565b620001568162000138565b811462000161575f80fd5b50565b5f8151905062000174816200014b565b92915050565b5f6020828403121562000192576200019162000115565b5b5f620001a18482850162000164565b91505092915050565b5f81519050919050565b7f4e487b71000000000000000000000000000000000000000000000000000000005f52604160045260245ffd5b7f4e487b71000000000000000000000000000000000000000000000000000000005f52602260045260245ffd5b5f60028204905060018216806200022657607f821691505b6020821081036200023c576200023b620001e1565b5b50919050565b5f819050815f5260205f209050919050565b5f6020601f8301049050919050565b5f82821b905092915050565b5f60088302620002a07fffffffffffffffffffffffffffffffffffffffffffffffffffffffffffffffff8262000263565b620002ac868362000263565b95508019841693508086168417925050509392505050565b5f819050919050565b5f819050919050565b5f620002f6620002f0620002ea84620002c4565b620002cd565b620002c4565b9050919050565b5f819050919050565b6200031183620002d6565b620003296200032082620002fd565b8484546200026f565b825550505050565b5f90565b6200033f62000331565b6200034c81848462000306565b505050565b5b818110156200037357620003675f8262000335565b60018101905062000352565b5050565b601f821115620003c2576200038c8162000242565b620003978462000254565b81016020851015620003a7578190505b620003bf620003b68562000254565b83018262000351565b50505b505050565b5f82821c905092915050565b5f620003e45f1984600802620003c7565b1980831691505092915050565b5f620003fe8383620003d3565b9150826002028217905092915050565b6200041982620001aa565b67ffffffffffffffff811115620004355762000434620001b4565b5b6200044182546200020e565b6200044e82828562000377565b5f60209050601f83116001811462000484575f84156200046f578287015190505b6200047b8582620003f1565b865550620004ea565b601f198416620004948662000242565b5f5b82811015620004bd5784890151825560018201915060208501945060208101905062000496565b86831015620004dd5784890151620004d9601f891682620003d3565b8355505b6001600288020188555050505b505050505050565b6120bc80620005005f395ff3fe608060405234801561000f575f80fd5b5060043610610109575f3560e01c80635b48684e116100a0578063a9059cbb1161006f578063a9059cbb146102a3578063ad2c68fc146102d3578063d4eec5a6146102dd578063d510a856146102e7578063dd62ed3e1461030357610109565b80635b48684e1461021b57806370a082311461022557806395d89b411461025557806395ef84b91461027357610109565b8063313ce567116100dc578063313ce567146101a95780633773b469146101c757806357915897146101e35780635b3c047b146101ff57610109565b806306fdde031461010d578063095ea7b31461012b57806318160ddd1461015b57806323b872dd14610179575b5f80fd5b610115610333565b60405161012291906118ec565b60405180910390f35b6101456004803603810190610140919061199d565b6103c3565b60405161015291906119f5565b60405180910390f35b6101636103e5565b6040516101709190611a1d565b60405180910390f35b610193600480360381019061018e9190611a36565b6103ee565b6040516101a091906119f5565b60405180910390f35b6101b161041d565b6040516101be9190611aa1565b60405180910390f35b6101e160048036038101906101dc9190611b17565b610425565b005b6101fd60048036038101906101f89190611b7b565b61051c565b005b61021960048036038101906102149190611ba6565b610530565b005b6102236106cc565b005b61023f600480360381019061023a9190611c1d565b61072f565b60405161024c9190611a1d565b60405180910390f35b61025d610774565b60405161026a91906118ec565b60405180910390f35b61028d60048036038101906102889190611c1d565b610804565b60405161029a91906119f5565b60405180910390f35b6102bd60048036038101906102b8919061199d565b6108ac565b6040516102ca91906119f5565b60405180910390f35b6102db6108ce565b005b6102e5610963565b005b61030160048036038101906102fc9190611c48565b610a6f565b005b61031d60048036038101906103189190611c73565b610b4f565b60405161032a9190611a1d565b60405180910390f35b60606003805461034290611cde565b80601f016020809104026020016040519081016040528092919081815260200182805461036e90611cde565b80156103b95780601f10610390576101008083540402835291602001916103b9565b820191905f5260205f20905b81548152906001019060200180831161039c57829003601f168201915b5050505050905090565b5f806103cd610bd1565b90506103da818585610bd8565b600191505092915050565b5f600254905090565b5f806103f8610bd1565b9050610405858285610bea565b61041185828686610c7c565b60019150509392505050565b5f6012905090565b5f61042e610bd1565b905061043981610804565b61047a57806040517f1594b2f10000000000000000000000000000000000000000000000000000000081526004016104719190611d1d565b60405180910390fd5b5f610483610bd1565b905060055f9054906101000a900473ffffffffffffffffffffffffffffffffffffffff1673ffffffffffffffffffffffffffffffffffffffff16630dfefc3087878787866040518663ffffffff1660e01b81526004016104e7959493929190611d45565b5f604051808303815f87803b1580156104fe575f80fd5b505af1158015610510573d5f803e3d5ffd5b50505050505050505050565b61052d610527610bd1565b82610f48565b50565b5f610539610bd1565b905061054481610804565b61058557806040517f1594b2f100000000000000000000000000000000000000000000000000000000815260040161057c9190611d1d565b60405180910390fd5b5f61058e610bd1565b90505f8060055f9054906101000a900473ffffffffffffffffffffffffffffffffffffffff1673ffffffffffffffffffffffffffffffffffffffff16631b05c655898989898e6040518663ffffffff1660e01b81526004016105f4959493929190611d96565b60408051808303815f875af115801561060f573d5f803e3d5ffd5b505050506040513d601f19601f820116820180604052508101906106339190611e0f565b915091506106448383836001610fc7565b8060075f8573ffffffffffffffffffffffffffffffffffffffff1673ffffffffffffffffffffffffffffffffffffffff1681526020019081526020015f205f8473ffffffffffffffffffffffffffffffffffffffff1673ffffffffffffffffffffffffffffffffffffffff1681526020019081526020015f2081905550505050505050505050565b5f6106d5610bd1565b9050600160065f8373ffffffffffffffffffffffffffffffffffffffff1673ffffffffffffffffffffffffffffffffffffffff1681526020019081526020015f205f6101000a81548160ff02191690831515021790555050565b5f805f8373ffffffffffffffffffffffffffffffffffffffff1673ffffffffffffffffffffffffffffffffffffffff1681526020019081526020015f20549050919050565b60606004805461078390611cde565b80601f01602080910402602001604051908101604052809291908181526020018280546107af90611cde565b80156107fa5780601f106107d1576101008083540402835291602001916107fa565b820191905f5260205f20905b8154815290600101906020018083116107dd57829003601f168201915b5050505050905090565b5f8030905060055f9054906101000a900473ffffffffffffffffffffffffffffffffffffffff1673ffffffffffffffffffffffffffffffffffffffff1663a5d73ebe82856040518363ffffffff1660e01b8152600401610865929190611e4d565b602060405180830381865afa158015610880573d5f803e3d5ffd5b505050506040513d601f19601f820116820180604052508101906108a49190611e9e565b915050919050565b5f806108b6610bd1565b90506108c3818585611196565b600191505092915050565b5f6108d7610bd1565b905060055f9054906101000a900473ffffffffffffffffffffffffffffffffffffffff1673ffffffffffffffffffffffffffffffffffffffff16632bb5e6e3826040518263ffffffff1660e01b81526004016109339190611d1d565b5f604051808303815f87803b15801561094a575f80fd5b505af115801561095c573d5f803e3d5ffd5b5050505050565b5f61096c610bd1565b905061097781610804565b80156109ca575060065f8273ffffffffffffffffffffffffffffffffffffffff1673ffffffffffffffffffffffffffffffffffffffff1681526020019081526020015f205f9054906101000a900460ff16155b15610a0c57806040517f1594b2f1000000000000000000000000000000000000000000000000000000008152600401610a039190611d1d565b60405180910390fd5b5f610a15610bd1565b90505f60065f8373ffffffffffffffffffffffffffffffffffffffff1673ffffffffffffffffffffffffffffffffffffffff1681526020019081526020015f205f6101000a81548160ff0219169083151502179055505050565b5f610a78610bd1565b9050610a8381610804565b610ac457806040517f1594b2f1000000000000000000000000000000000000000000000000000000008152600401610abb9190611d1d565b60405180910390fd5b60055f9054906101000a900473ffffffffffffffffffffffffffffffffffffffff1673ffffffffffffffffffffffffffffffffffffffff16636cc7af2c836040518263ffffffff1660e01b8152600401610b1e9190611ec9565b5f604051808303815f87803b158015610b35575f80fd5b505af1158015610b47573d5f803e3d5ffd5b505050505050565b5f60015f8473ffffffffffffffffffffffffffffffffffffffff1673ffffffffffffffffffffffffffffffffffffffff1681526020019081526020015f205f8373ffffffffffffffffffffffffffffffffffffffff1673ffffffffffffffffffffffffffffffffffffffff1681526020019081526020015f2054905092915050565b5f33905090565b610be58383836001611286565b505050565b5f610bf58484610b4f565b90507fffffffffffffffffffffffffffffffffffffffffffffffffffffffffffffffff8114610c765781811015610c67578281836040517ffb8f41b2000000000000000000000000000000000000000000000000000000008152600401610c5e93929190611ee2565b60405180910390fd5b610c7584848484035f611286565b5b50505050565b8060075f8673ffffffffffffffffffffffffffffffffffffffff1673ffffffffffffffffffffffffffffffffffffffff1681526020019081526020015f205f8573ffffffffffffffffffffffffffffffffffffffff1673ffffffffffffffffffffffffffffffffffffffff1681526020019081526020015f20541015610d37576040517f08c379a0000000000000000000000000000000000000000000000000000000008152600401610d2e90611f61565b60405180910390fd5b8060075f8673ffffffffffffffffffffffffffffffffffffffff1673ffffffffffffffffffffffffffffffffffffffff1681526020019081526020015f205f8573ffffffffffffffffffffffffffffffffffffffff1673ffffffffffffffffffffffffffffffffffffffff1681526020019081526020015f2054610dbb9190611fac565b60075f8673ffffffffffffffffffffffffffffffffffffffff1673ffffffffffffffffffffffffffffffffffffffff1681526020019081526020015f205f8573ffffffffffffffffffffffffffffffffffffffff1673ffffffffffffffffffffffffffffffffffffffff1681526020019081526020015f20819055508060075f8673ffffffffffffffffffffffffffffffffffffffff1673ffffffffffffffffffffffffffffffffffffffff1681526020019081526020015f205f8473ffffffffffffffffffffffffffffffffffffffff1673ffffffffffffffffffffffffffffffffffffffff1681526020019081526020015f2054610ebb9190611fdf565b60075f8673ffffffffffffffffffffffffffffffffffffffff1673ffffffffffffffffffffffffffffffffffffffff1681526020019081526020015f205f8473ffffffffffffffffffffffffffffffffffffffff1673ffffffffffffffffffffffffffffffffffffffff1681526020019081526020015f2081905550610f42848383611196565b50505050565b5f73ffffffffffffffffffffffffffffffffffffffff168273ffffffffffffffffffffffffffffffffffffffff1603610fb8575f6040517fec442f05000000000000000000000000000000000000000000000000000000008152600401610faf9190611d1d565b60405180910390fd5b610fc35f838361134a565b5050565b5f73ffffffffffffffffffffffffffffffffffffffff168473ffffffffffffffffffffffffffffffffffffffff1603611037575f6040517fe602df0500000000000000000000000000000000000000000000000000000000815260040161102e9190611d1d565b60405180910390fd5b5f73ffffffffffffffffffffffffffffffffffffffff168373ffffffffffffffffffffffffffffffffffffffff16036110a7575f6040517f94280d6200000000000000000000000000000000000000000000000000000000815260040161109e9190611d1d565b60405180910390fd5b8160015f8673ffffffffffffffffffffffffffffffffffffffff1673ffffffffffffffffffffffffffffffffffffffff1681526020019081526020015f205f8573ffffffffffffffffffffffffffffffffffffffff1673ffffffffffffffffffffffffffffffffffffffff1681526020019081526020015f20819055508015611190578273ffffffffffffffffffffffffffffffffffffffff168473ffffffffffffffffffffffffffffffffffffffff167f8c5be1e5ebec7d5bd14f71427d1e84f3dd0314c0f7b2291e5b200ac8c7c3b925846040516111879190611a1d565b60405180910390a35b50505050565b5f73ffffffffffffffffffffffffffffffffffffffff168373ffffffffffffffffffffffffffffffffffffffff1603611206575f6040517f96c6fd1e0000000000000000000000000000000000000000000000000000000081526004016111fd9190611d1d565b60405180910390fd5b5f73ffffffffffffffffffffffffffffffffffffffff168273ffffffffffffffffffffffffffffffffffffffff1603611276575f6040517fec442f0500000000000000000000000000000000000000000000000000000000815260040161126d9190611d1d565b60405180910390fd5b61128183838361134a565b505050565b61128f84610804565b6112a45761129f84848484610fc7565b611344565b60055f9054906101000a900473ffffffffffffffffffffffffffffffffffffffff1673ffffffffffffffffffffffffffffffffffffffff1663067477218585856040518463ffffffff1660e01b815260040161130293929190612012565b6020604051808303815f875af115801561131e573d5f803e3d5ffd5b505050506040513d601f19601f82011682018060405250810190611342919061205b565b505b50505050565b60065f8473ffffffffffffffffffffffffffffffffffffffff1673ffffffffffffffffffffffffffffffffffffffff1681526020019081526020015f205f9054906101000a900460ff166113d557826040517f1594b2f10000000000000000000000000000000000000000000000000000000081526004016113cc9190611d1d565b60405180910390fd5b60065f8373ffffffffffffffffffffffffffffffffffffffff1673ffffffffffffffffffffffffffffffffffffffff1681526020019081526020015f205f9054906101000a900460ff1661146057816040517f1594b2f10000000000000000000000000000000000000000000000000000000081526004016114579190611d1d565b60405180910390fd5b61146983610804565b61147d57611478838383611649565b611644565b8060075f8573ffffffffffffffffffffffffffffffffffffffff1673ffffffffffffffffffffffffffffffffffffffff1681526020019081526020015f205f8473ffffffffffffffffffffffffffffffffffffffff1673ffffffffffffffffffffffffffffffffffffffff1681526020019081526020015f20541015611538576040517f08c379a000000000000000000000000000000000000000000000000000000000815260040161152f90611f61565b60405180910390fd5b8060075f8573ffffffffffffffffffffffffffffffffffffffff1673ffffffffffffffffffffffffffffffffffffffff1681526020019081526020015f205f8473ffffffffffffffffffffffffffffffffffffffff1673ffffffffffffffffffffffffffffffffffffffff1681526020019081526020015f20546115bc9190611fac565b60075f8573ffffffffffffffffffffffffffffffffffffffff1673ffffffffffffffffffffffffffffffffffffffff1681526020019081526020015f205f8473ffffffffffffffffffffffffffffffffffffffff1673ffffffffffffffffffffffffffffffffffffffff1681526020019081526020015f2081905550611643838383611649565b5b505050565b5f73ffffffffffffffffffffffffffffffffffffffff168373ffffffffffffffffffffffffffffffffffffffff1603611699578060025f82825461168d9190611fdf565b92505081905550611767565b5f805f8573ffffffffffffffffffffffffffffffffffffffff1673ffffffffffffffffffffffffffffffffffffffff1681526020019081526020015f2054905081811015611722578381836040517fe450d38c00000000000000000000000000000000000000000000000000000000815260040161171993929190611ee2565b60405180910390fd5b8181035f808673ffffffffffffffffffffffffffffffffffffffff1673ffffffffffffffffffffffffffffffffffffffff1681526020019081526020015f2081905550505b5f73ffffffffffffffffffffffffffffffffffffffff168273ffffffffffffffffffffffffffffffffffffffff16036117ae578060025f82825403925050819055506117f8565b805f808473ffffffffffffffffffffffffffffffffffffffff1673ffffffffffffffffffffffffffffffffffffffff1681526020019081526020015f205f82825401925050819055505b8173ffffffffffffffffffffffffffffffffffffffff168373ffffffffffffffffffffffffffffffffffffffff167fddf252ad1be2c89b69c2b068fc378daa952ba7f163c4a11628f55a4df523b3ef836040516118559190611a1d565b60405180910390a3505050565b5f81519050919050565b5f82825260208201905092915050565b5f5b8381101561189957808201518184015260208101905061187e565b5f8484015250505050565b5f601f19601f8301169050919050565b5f6118be82611862565b6118c8818561186c565b93506118d881856020860161187c565b6118e1816118a4565b840191505092915050565b5f6020820190508181035f83015261190481846118b4565b905092915050565b5f80fd5b5f73ffffffffffffffffffffffffffffffffffffffff82169050919050565b5f61193982611910565b9050919050565b6119498161192f565b8114611953575f80fd5b50565b5f8135905061196481611940565b92915050565b5f819050919050565b61197c8161196a565b8114611986575f80fd5b50565b5f8135905061199781611973565b92915050565b5f80604083850312156119b3576119b261190c565b5b5f6119c085828601611956565b92505060206119d185828601611989565b9150509250929050565b5f8115159050919050565b6119ef816119db565b82525050565b5f602082019050611a085f8301846119e6565b92915050565b611a178161196a565b82525050565b5f602082019050611a305f830184611a0e565b92915050565b5f805f60608486031215611a4d57611a4c61190c565b5b5f611a5a86828701611956565b9350506020611a6b86828701611956565b9250506040611a7c86828701611989565b9150509250925092565b5f60ff82169050919050565b611a9b81611a86565b82525050565b5f602082019050611ab45f830184611a92565b92915050565b5f819050919050565b611acc81611aba565b8114611ad6575f80fd5b50565b5f81359050611ae781611ac3565b92915050565b611af681611a86565b8114611b00575f80fd5b50565b5f81359050611b1181611aed565b92915050565b5f805f8060808587031215611b2f57611b2e61190c565b5b5f611b3c87828801611ad9565b9450506020611b4d87828801611b03565b9350506040611b5e87828801611ad9565b9250506060611b6f87828801611ad9565b91505092959194509250565b5f60208284031215611b9057611b8f61190c565b5b5f611b9d84828501611989565b91505092915050565b5f805f805f60a08688031215611bbf57611bbe61190c565b5b5f611bcc88828901611ad9565b9550506020611bdd88828901611ad9565b9450506040611bee88828901611b03565b9350506060611bff88828901611ad9565b9250506080611c1088828901611ad9565b9150509295509295909350565b5f60208284031215611c3257611c3161190c565b5b5f611c3f84828501611956565b91505092915050565b5f60208284031215611c5d57611c5c61190c565b5b5f611c6a84828501611ad9565b91505092915050565b5f8060408385031215611c8957611c8861190c565b5b5f611c9685828601611956565b9250506020611ca785828601611956565b9150509250929050565b7f4e487b71000000000000000000000000000000000000000000000000000000005f52602260045260245ffd5b5f6002820490506001821680611cf557607f821691505b602082108103611d0857611d07611cb1565b5b50919050565b611d178161192f565b82525050565b5f602082019050611d305f830184611d0e565b92915050565b611d3f81611aba565b82525050565b5f60a082019050611d585f830188611d36565b611d656020830187611a92565b611d726040830186611d36565b611d7f6060830185611d36565b611d8c6080830184611d0e565b9695505050505050565b5f60a082019050611da95f830188611d36565b611db66020830187611a92565b611dc36040830186611d36565b611dd06060830185611d36565b611ddd6080830184611d36565b9695505050505050565b5f81519050611df581611940565b92915050565b5f81519050611e0981611973565b92915050565b5f8060408385031215611e2557611e2461190c565b5b5f611e3285828601611de7565b9250506020611e4385828601611dfb565b9150509250929050565b5f604082019050611e605f830185611d0e565b611e6d6020830184611d0e565b9392505050565b611e7d816119db565b8114611e87575f80fd5b50565b5f81519050611e9881611e74565b92915050565b5f60208284031215611eb357611eb261190c565b5b5f611ec084828501611e8a565b91505092915050565b5f602082019050611edc5f830184611d36565b92915050565b5f606082019050611ef55f830186611d0e565b611f026020830185611a0e565b611f0f6040830184611a0e565b949350505050565b7f496e73756666696369656e74207370656e6461626c65000000000000000000005f82015250565b5f611f4b60168361186c565b9150611f5682611f17565b602082019050919050565b5f6020820190508181035f830152611f7881611f3f565b9050919050565b7f4e487b71000000000000000000000000000000000000000000000000000000005f52601160045260245ffd5b5f611fb68261196a565b9150611fc18361196a565b9250828203905081811115611fd957611fd8611f7f565b5b92915050565b5f611fe98261196a565b9150611ff48361196a565b925082820190508082111561200c5761200b611f7f565b5b92915050565b5f6060820190506120255f830186611d0e565b6120326020830185611d0e565b61203f6040830184611a0e565b949350505050565b5f8151905061205581611ac3565b92915050565b5f602082840312156120705761206f61190c565b5b5f61207d84828501612047565b9150509291505056fea264697066735822122035c6a1f086e2e5ad30d53a7d4e4493d36195346005774ae88e33812b0e26c69264736f6c63430008140033",
  "immutableReferences": {},
  "source": "// SPDX-License-Identifier: MIT\r\npragma solidity ^0.8.20;\r\n\r\nimport {HybridToken} from \"../HybridToken.sol\";\r\n\r\ncontract WrappedBNB is HybridToken {\r\n    constructor(\r\n        address hybridContract\r\n    ) HybridToken(\"Wrapped BNB\", \"WBNB\", hybridContract) {}\r\n\r\n    function faucet(uint256 amount) external {\r\n        _mint(_msgSender(), amount);\r\n    }\r\n}\r\n",
  "sourcePath": "C:\\Users\\DELL\\Documents\\hybrid.bnb.hack\\hybrid-token\\contracts\\usecases\\WrappedBNB.sol",
  "compiler": {
    "name": "solc",
    "version": "0.8.20+commit.a1b79de6.Emscripten.clang"
  },
  "schemaVersion": "3.4.11",
  "updatedAt": "2024-02-19T14:01:00.669Z",
  "networkType": "ethereum",
  "devdoc": {
    "errors": {
      "ERC20InsufficientAllowance(address,uint256,uint256)": [
        {
          "details": "Indicates a failure with the `spender`s `allowance`. Used in transfers.",
          "params": {
            "allowance": "Amount of tokens a `spender` is allowed to operate with.",
            "needed": "Minimum amount required to perform a transfer.",
            "spender": "Address that may be allowed to operate on tokens without being their owner."
          }
        }
      ],
      "ERC20InsufficientBalance(address,uint256,uint256)": [
        {
          "details": "Indicates an error related to the current `balance` of a `sender`. Used in transfers.",
          "params": {
            "balance": "Current balance for the interacting account.",
            "needed": "Minimum amount required to perform a transfer.",
            "sender": "Address whose tokens are being transferred."
          }
        }
      ],
      "ERC20InvalidApprover(address)": [
        {
          "details": "Indicates a failure with the `approver` of a token to be approved. Used in approvals.",
          "params": {
            "approver": "Address initiating an approval operation."
          }
        }
      ],
      "ERC20InvalidReceiver(address)": [
        {
          "details": "Indicates a failure with the token `receiver`. Used in transfers.",
          "params": {
            "receiver": "Address to which tokens are being transferred."
          }
        }
      ],
      "ERC20InvalidSender(address)": [
        {
          "details": "Indicates a failure with the token `sender`. Used in transfers.",
          "params": {
            "sender": "Address whose tokens are being transferred."
          }
        }
      ],
      "ERC20InvalidSpender(address)": [
        {
          "details": "Indicates a failure with the `spender` to be approved. Used in approvals.",
          "params": {
            "spender": "Address that may be allowed to operate on tokens without being their owner."
          }
        }
      ]
    },
    "events": {
      "Approval(address,address,uint256)": {
        "details": "Emitted when the allowance of a `spender` for an `owner` is set by a call to {approve}. `value` is the new allowance."
      },
      "Transfer(address,address,uint256)": {
        "details": "Emitted when `value` tokens are moved from one account (`from`) to another (`to`). Note that `value` may be zero."
      }
    },
    "kind": "dev",
    "methods": {
      "allowance(address,address)": {
        "details": "See {IERC20-allowance}."
      },
      "approve(address,uint256)": {
        "details": "See {IERC20-approve}. NOTE: If `value` is the maximum `uint256`, the allowance is not updated on `transferFrom`. This is semantically equivalent to an infinite approval. Requirements: - `spender` cannot be the zero address."
      },
      "balanceOf(address)": {
        "details": "See {IERC20-balanceOf}."
      },
      "decimals()": {
        "details": "Returns the number of decimals used to get its user representation. For example, if `decimals` equals `2`, a balance of `505` tokens should be displayed to a user as `5.05` (`505 / 10 ** 2`). Tokens usually opt for a value of 18, imitating the relationship between Ether and Wei. This is the default value returned by this function, unless it's overridden. NOTE: This information is only used for _display_ purposes: it in no way affects any of the arithmetic of the contract, including {IERC20-balanceOf} and {IERC20-transfer}."
      },
      "name()": {
        "details": "Returns the name of the token."
      },
      "symbol()": {
        "details": "Returns the symbol of the token, usually a shorter version of the name."
      },
      "totalSupply()": {
        "details": "See {IERC20-totalSupply}."
      },
      "transfer(address,uint256)": {
        "details": "See {IERC20-transfer}. Requirements: - `to` cannot be the zero address. - the caller must have a balance of at least `value`."
      }
    },
    "version": 1
  },
  "userdoc": {
    "kind": "user",
    "methods": {},
    "version": 1
  }
}